:020000040800F2
:10800000B8450020A18100084DAD00084BA700082D
:1080100049AD000899830008E9B400080000000099
:1080200000000000000000000000000049AF000850
:10803000618400080000000051AD00084BAF00084B
:10804000BB810008BB810008BB810008BB81000820
:10805000BB810008BB810008BB810008BB81000810
:10806000BB810008BB810008BB810008BB81000800
:10807000BB810008BB810008BB810008BB810008F0
:10808000BB810008BB810008BB810008BB810008E0
:10809000BB810008BB810008BB810008BB810008D0
:1080A000BB810008BB810008BB810008BB810008C0
:1080B000BB810008BB810008BB810008BB810008B0
:1080C000BB810008BB810008BB810008BB810008A0
:1080D000BB810008D9B40008BB810008BB8100083F
:1080E000BB810008BB810008BB810008BB81000880
:1080F000BB810008BB810008BB810008BB81000870
:10810000BB810008BB810008BB810008BB8100085F
:10811000BB810008BB810008BB810008BB8100084F
:10812000BB810008BB810008BB810008BB8100083F
:10813000BB810008BB810008BB810008BB8100082F
:10814000BB810008BB810008BB810008BB8100081F
:10815000BB810008BB810008BB810008BB8100080F
:10816000BB810008BB810008BB810008BB810008FF
:10817000BB810008BB810008BB8100080000000033
:10818000BB810008BB810008DFF810D000F08EF83A
:108190000048004755BF0008AFF30080B8450020F5
:1081A0000648804706480047FEE7FEE7FEE7FEE791
:1081B000FEE7FEE7FEE7FEE7FEE7FEE705B00008A4
:1081C000898100082DE9F05F0546002092469B4614
:1081D00088460646814640241BE0284641464746DD
:1081E000224600F053F853465A46C01A914110D324
:1081F00011461846224600F03AF82D1A67EB01089E
:108200004F4622460120002100F031F817EB00090B
:108210004E41201EA4F10104DFDC484631462A46C7
:108220004346BDE8F09F40EA01039B0703D009E005
:1082300008C9121F08C0042AFAD203E011F8013B52
:1082400000F8013B521EF9D27047D2B201E000F8AB
:10825000012B491EFBD270470022F6E710B51346EA
:108260000A4604461946FFF7F0FF204610BD202AB3
:1082700004DB203A00FA02F1002070479140C2F17D
:10828000200320FA03F3194390407047202A04DBAF
:10829000203A21FA02F00021704721FA02F3D0407F
:1082A000C2F120029140084319467047064C074D21
:1082B00006E0E06840F0010394E8070098471034B6
:1082C000AC42F6D3FFF764FF9CBF0008BCBF0008B8
:1082D00010B500F063F803A003F0DAF900200649B6
:1082E000087010BD43414E20546F6F6C2053746171
:1082F00072740D0A000000001D00002010B5174820
:108300000078052826D2DFE800F00306090C0F00EC
:1083100003F01CFD1FE003F09DFC1CE003F020FCBB
:1083200019E003F047FD16E04FF47A7000F0B8FC56
:1083300000BFBFF34F8F0A48006800F4E0600949AE
:108340000843001D06490860BFF34F8F00BF00BF00
:1083500000BFFDE700BF00BF10BD00001D000020F2
:108360000CED00E00000FA052DE9F04104460D4651
:108370002646E81C870807480068806840F001002E
:108380000449096888603A463146024800F0D9FB42
:10839000BDE8F0810000002000BFFEE700B58BB013
:1083A0000E200690002007900120089000200190E8
:1083B0000290039004900590012009900E200A90ED
:1083C00001A9074800F0F6F808B100F04AF804489F
:1083D00000F088FB08B100F044F80BB000BD0000CD
:1083E000280000202DE9F04107460C4600210E48E8
:1083F00000F070F92070002510E005EBC50007EBD8
:10840000800624213046FFF727FF06F11C03324681
:108410000021054800F072F9681CC5B22078A84216
:10842000EBDCBDE8F08100002800002070B588B0CA
:1084300004460D46164600BF084800F029FA0028F9
:10844000FAD00294002005900490069601AB2A46CB
:1084500002A9024800F008F808B070BD280000200A
:10846000704772B600BFFEE7F0B504460D461E46E3
:1084700094F8207020688368A86800B900E000BF05
:10848000012F01D0022F7DD103F0806030B903F0BD
:10849000006018B903F0805000287ED0C3F301615A
:1084A000012088403060A86860B9B5F800C0E8686D
:1084B00040EA4C5C206800F5C07000EB0110C0F889
:1084C00000C00FE0D5E901C040EACC00D5F80CC0EF
:1084D00040EA0C00D4F800C00CF5C07C0CEB011C89
:1084E000CCF80000D5F810C0206800F5C07000EB93
:1084F0000110C0F804C0287D01280ED1206800F5C5
:10850000C07000EB0110406840F4807C206800F5EA
:10851000C07000EB0110C0F804C0D079000692F8DA
:1085200006C040EA0C4092F805C040EA0C2092F8E0
:1085300004C040EA0C00D4F800C00CF5C07C0CEB81
:10854000011CCCF80C00D078000692F802C040EA7A
:108550000C4092F801C040EA0C2092F800C040EABA
:108560000C00D4F800C00CF5C07C0CEB011CCCF85E
:108570000800206800F5C07000EB0110006840F0B2
:10858000010C01E00FE008E0206800F5C07000EB8E
:108590000110C0F800C00020F0BD606A40F4001077
:1085A00060620120F8E7606A40F480206062012088
:1085B000F2E70000F0B504460A4694F82050012D79
:1085C00001D0022D7ED1424901F50071086840F0CA
:1085D00001000860086820F47C5008600868566A4A
:1085E00040EA06200860107D00F01F06012000FA16
:1085F00006F3C8699843C861A1F50071D069C8B98C
:10860000D1F80C029843C1F80C02908880B2968988
:1086100040EA064601F51070576940F83760108847
:1086200080B2168940EA064601F51070576900EBE2
:10863000C7004660D069012819D1D1F80C0218434F
:10864000C1F80C02908880B2168840EA064601F50F
:108650001070576940F83760908980B2168940EAF7
:10866000064601F51070576900EBC7004660906937
:1086700028B9D1F804029843C1F8040204E0D1F803
:1086800004021843C1F80402106928B9D1F8140291
:108690009843C1F8140204E0D1F814021843C1F859
:1086A0001402106A012804D1D1F81C021843C1F841
:1086B0001C02D1F8000220F00100C1F800020020E5
:1086C000F0BDFFE7606A40F4802060620120F7E7B8
:1086D0000064004010B50246002092F82030012BC3
:1086E00001D0022B09D121B91468E46804F0030019
:1086F00003E01468246904F0030010BD70B504465B
:1087000094F82050012D01D0022D7DD151B920685F
:10871000C06800F0030080B9606A40F40010606235
:10872000012070BD2068006900F0030028B9606A6C
:1087300040F4001060620120F3E7206800F5D87073
:1087400000EB0110006800F004009060906840B9F0
:10875000206800F5D87000EB01100068400D106033
:1087600007E0206800F5D87000EB01100068C00831
:108770005060206800F5D87000EB0110006800F030
:108780000200D060206800F5D87000EB011040684E
:1087900000F00F00082802D30820106108E02068CC
:1087A00000F5D87000EB0110406800F00F00106178
:1087B000206800F5D87000EB0110406800F47F409D
:1087C000000A9061206800F5D87000EB0110406845
:1087D000000C5061206800F5D87000EB0110806833
:1087E0001870206800F5D87000EB0110806800F464
:1087F0007F40000A5870206800F5D87000EB011027
:10880000806800F47F0000E03CE0000C9870206875
:1088100000F5D87000EB01108068000ED870206859
:1088200000F5D87000EB0110C0681871206800F5E1
:10883000D87000EB0110C06800F47F40000A587146
:10884000206800F5D87000EB0110C06800F47F00CC
:10885000000C9871206800F5D87000EB0110C0681A
:10886000000ED87131B92068C06840F02000266839
:10887000F06005E02068006940F020002668306163
:1088800000204EE7606A40F480206062012048E7E3
:108890000146002091F82020012A01D0022A11D19E
:1088A0000B689B6803F0806303B1401C0B689B68F6
:1088B00003F0006303B1401C0B689B6803F0805316
:1088C00003B1401C704770B504460CB9012070BD5F
:1088D00094F8200010B9204600F0B0F82068006835
:1088E00040F001002168086000F0EEFA05460DE056
:1088F00000F0EAFA401B0A2808D9606A40F4003008
:108900006062052084F820000120E0E720684068CC
:1089100000F001000028EBD02068006820F0020081
:108920002168086000F0D0FA05460DE000F0CCFAAE
:10893000401B0A2808D9606A40F4003060620520B4
:1089400084F820000120C2E72068406800F002009F
:108950000028EBD1207E012806D12068006840F075
:1089600080002168086005E02068006820F0800031
:1089700021680860607E012806D12068006840F008
:1089800040002168086005E02068006820F0400091
:1089900021680860A07E012806D12068006840F0A8
:1089A00020002168086005E02068006820F02000B1
:1089B00021680860E07E012806D12068006820F068
:1089C00010002168086005E02068006840F0100091
:1089D00021680860207F012806D12068006840F0E7
:1089E00008002168086005E02068006820F00800A1
:1089F00021680860607F012806D12068006840F087
:108A000004002168086005E02068006820F0040088
:108A100021680860D4E902010843216908436169BB
:108A200008436168491E08432168C86100206062EC
:108A3000012084F82000002049E7000010B586B02E
:108A40000446142101A8FFF707FC23492068884247
:108A50003FD100BF002000902048006840F08060B7
:108A60001E4908600846006800F08060009000BF62
:108A700000BF00BF002000900846006840F0007072
:108A800008600846006800F00070009000BF00BF5A
:108A900000BF0020009011481038006840F002002C
:108AA0000E49103908600846006800F00200009086
:108AB00000BF00BF4FF44050019002200290002000
:108AC0000390032004900920059001A9044800F0B8
:108AD000FBF806B010BD00000068004040380240BE
:108AE0000004024070B5044694F82000012822D109
:108AF000022084F820002068006820F0010021682E
:108B0000086000F0E1F905460DE000F0DDF9401BDA
:108B10000A2808D9606A40F400306062052084F8B1
:108B20002000012070BD2068406800F0010000288E
:108B3000EBD16062F6E7606A40F4002060620120D9
:108B4000F0E770B503460C46002002255D711D68F4
:108B5000AD6845F001051E68B560002104E054F8D9
:108B600021501E683560491C9142F8D31D68286861
:108B700001255D7170BD10B504460CB9012010BD12
:108B8000607920B900202071204600F005F801200E
:108B900060710020F3E7000008B50A4A01689142BD
:108BA0000FD100BF002100910749096841F48051AD
:108BB000054A11601146096801F48051009100BF17
:108BC00000BF08BD003002403038024070B5044696
:108BD000A56D00F079F9064694F83500022808D012
:108BE0008020606500BF002084F8340000BF0120B1
:108BF00070BD2068006820F01600216808602068B9
:108C0000406920F0800021684861206C08B9A06CA0
:108C100028B12068006820F00800216808602068FA
:108C2000006820F001002168086010E000F04CF9B5
:108C3000801B05280BD920206065032084F83500AF
:108C400000BF002084F8340000BF0320D0E7206874
:108C5000006800F001000028E8D194F85C103F2083
:108C60008840A860012084F8350000BF002084F807
:108C7000340000BF00BFBBE7014691F83500022871
:108C800003D08020486501207047052081F8350019
:108C90000868006820F001000A6810600020F3E70F
:108CA00070B5044600F010F906462546681C10B160
:108CB00004480078054400BF00F006F9801BA84274
:108CC000FAD370BD10000020F8B502460B4600250F
:108CD000002400200021D6E0012606FA01F51E68D6
:108CE00006EA0504AC4274D11E7906F00306012E93
:108CF00004D01E7906F00306022E13D190684F00AF
:108D00000326BE40B0434F00DE68BE403043906053
:108D1000506801268E40B0431E79C6F300168E407F
:108D2000304350601E7906F00306032E09D0D06848
:108D30004F000326BE40B0434F009E68BE40304304
:108D4000D0601E7906F00306022E13D1CF0802F17F
:108D5000200656F827004E07F70E0F26BE40B043F8
:108D60004F07FF0E1E69BE403043CF0802F12006B8
:108D700046F8270010684F000326BE40B0431E7916
:108D800006F003064F00BE40304310605E6806F4F4
:108D90004036002E76D000BF002600963C4E366846
:108DA00046F480463A4F3E603E46366806F48046BA
:108DB000009600BF00BF374E8F0856F827008E0779
:108DC000370F0F26BE40B043334EB24202D10026C9
:108DD00024E057E0314EB24201D101261EE0304E70
:108DE000B24201D1022619E02E4EB24201D1032631
:108DF00014E02D4EB24201D104260FE02B4EB242B8
:108E000001D105260AE02A4EB24201D1062605E02C
:108E1000284EB24201D1072600E008268F073F0FF7
:108E2000BE4030431B4E8F0846F82700224E306864
:108E3000A0435E6806F4801606B120431E4E3060E3
:108E4000361D3068A0435E6806F4001606B1204364
:108E5000194E361D3060184E361F3068A0435E68CC
:108E600006F4003606B12043134E361F3060361F1D
:108E70003068A0435E6806F4803606B120430E4E8B
:108E8000083E3060491C1029FFF426AFF8BD0000F1
:108E9000443802400838014000000240000402400B
:108EA00000080240000C0240001002400014024082
:108EB00000180240001C0240083C01400AB18161D8
:108EC00001E00B04836170470148006870470000AF
:108ED0000800002070B504460CB9012070BD94F85C
:108EE0003D0028B9002084F83C00204600F08CF9B1
:108EF000242084F83D002068006820F001002168EB
:108F000008602068006840F400402168086020681C
:108F1000006820F400402168086000F05BFB054613
:108F20005C496068884206D85B48854201D20120CE
:108F300007E0002005E05948854201D2012000E009
:108F40000020012800D1C9E75548B5FBF0F620689C
:108F5000406820F03F003043216848604D49606818
:108F6000884201D8701C07E04FF4967070434FF4AC
:108F70007A71B0FBF1F0401C2168096A21F03F01D1
:108F800008432168086243496068884214D8681E13
:108F900061684900B0FBF1F0401CC0F30B000428ED
:108FA00001D204203DE0681E61684900B0FBF1F089
:108FB000401CC0F30B0034E0A06838B9681E61683B
:108FC00001EB4101B0FBF1F0401C0AE0681E616852
:108FD00001EBC10202EB0111B0FBF1F0401C40F4C7
:108FE0008040C0F30B0008B901201AE0A06848B91E
:108FF000681E616801EB4101B0FBF1F0401CC0F359
:109000000B000CE0681E616801EBC10202EB01116C
:10901000B0FBF1F0401CC0F30B0040F4804040F482
:1090200000402168C9694CF6FF72914308432168EA
:10903000C861D4E9070108432168096821F0C0012B
:10904000084321680860D4E903100843216889684F
:1090500048F2FF329143084321688860D4E9050152
:1090600008432168C96821F0FF0108432168C860EE
:109070002068006840F0010021680860002020643A
:10908000202084F83D000020206384F83E0000BFCB
:1090900024E70000A086010080841E0000093D0036
:1090A00040420F002DE9FC5F04460F46904699466A
:1090B000DDE90CAB0E9EFFF707FF054694F83D0077
:1090C00020287DD1192301224D492046009501F029
:1090D00000FC10B10220BDE8FC9F00BF94F83C00EA
:1090E000012801D10220F6E7012084F83C0000BFEE
:1090F0002068006800F0010028B92068006840F08E
:109100000100216808602068006820F40060216880
:109110000860212084F83D00402084F83E000020B3
:109120002064C4F824A0A4F82AB0608D20853548B6
:10913000E0624B46424639462046CDE9006501F0E3
:1091400025FB08B10120C6E731E02A46314620461A
:1091500001F09BFC50B1206C042805D12068006808
:1091600040F40070216808600120B4E7606A00786C
:1091700021680861606A401C6062208D401E208565
:10918000608D401E608520684069C0F3800070B12A
:10919000208D60B1606A007821680861606A401CB7
:1091A0006062208D401E2085608D401E6085208D70
:1091B0000028CAD12A463146204601F057FB00E07C
:1091C0001CE050B1206C042805D12068006840F4F0
:1091D00000702168086001207DE72068006840F485
:1091E000007021680860202084F83D00002084F889
:1091F0003E0000BF84F83C0000BF6CE702206AE735
:10920000020010000000FFFF10B586B004461421D4
:1092100001A8FFF721F81B49206888422FD100BF21
:10922000002000901848006840F0020016490860CD
:109230000846006800F00200009000BF00BFC02098
:10924000019012200290002003900320049004203B
:10925000059001A90D48FFF737FD00BF00200090E1
:1092600009481030006840F40010074910310860C8
:109270000846006800F40010009000BF00BF06B070
:1092800010BD00000054004030380240000402408D
:109290000348006803490978084401490860704799
:1092A000080000201000002010B50D48006840F4B0
:1092B00000700B4908600846006840F48060086050
:1092C0000846006840F480700860032000F0A6F8AB
:1092D0000F2000F007F800F02BF8002010BD000070
:1092E000003C024070B504460E4800784FF47A7195
:1092F000B1FBF0F00C490968B1FBF0F5284600F02D
:109300009BFF08B1012070BD102C07D2002221461E
:10931000501E00F045F80548046001E00120F2E726
:109320000020F0E710000020140000200C000020B6
:1093300008B500BF002000900E48006840F480404F
:109340000C4908600846006800F48040009000BFA7
:1093500000BF00BF00200090081F006840F0805050
:10936000091F08600846006800F08050009000BFA8
:1093700000BF08BD443802400146084600280DDB06
:1093800000BF00BF00F01F0301229A4043099B0069
:1093900003F1E023C3F8002100BF00BF00BF704706
:1093A0002DE9F05F80460D461646002702F080F951
:1093B000074639462A46334601F00700C0F1070A3E
:1093C000BAF1040F02D94FF0040A01E0C0F1070A14
:1093D000D14600F1040ABAF1070F02D24FF0000A99
:1093E00001E0A0F1030AD4464FF0010A0AFA09FA93
:1093F000AAF1010A0AEA020A0AFA0CFA4FF0010B72
:109400000BFA0CFBABF1010B0BEA030B4AEA0B0462
:109410002146404602F054F9BDE8F09F00BF00F03D
:109420000702064B19684FF6FF031940044B0B4324
:1094300043EA0221014B196000BF70470CED00E0C8
:109440000000FA0570B504460D460CB9012070BD48
:109450005848006800F00700A84209D255490D702D
:109460000846006800F00700A84201D00120EEE79E
:10947000207800F0020002281DD1207800F00400BE
:10948000042805D14C48006840F4E0504A4908607F
:10949000207800F00800082805D14748006840F40B
:1094A0006040454908604448006820F0F000A16829
:1094B000084341490860207800F00100A8B36068C3
:1094C000012807D13C4808380068C0F34040B8B9CB
:1094D0000120BCE76068022802D06068032807D139
:1094E000354808380068C0F3406048B90120AEE74D
:1094F000314808380068C0F3400008B90120A6E7E9
:109500002D48006820F00300616808432A4908607C
:10951000FFF7DAFC064609E0FFF7D6FC801B41F2B4
:109520008831884202D9032091E707E02248006889
:1095300000F00C006168B0EB810FEDD11D480068B0
:1095400000F00700A84209D91A490D7008460068C2
:1095500000F00700A84201D0012078E7207800F051
:109560000400042807D11448006820F4E050E168A2
:10957000084311490860207800F00800082808D145
:109580000D48006820F46040216940EAC1000A49A2
:10959000086000F03FF808490968C1F30311074A61
:1095A000515CC8400649086006480068FFF79AFE0B
:1095B00000204CE7003C02400838024082BF00080F
:1095C000140000200C0000200148006870470000D3
:1095D0001400002000B5FFF7F7FF04490968C1F344
:1095E0008221034A515CC84000BD00000838024097
:1095F00092BF000800B5FFF7E7FF04490968C1F30F
:109600004231034A515CC84000BD000008380240A6
:1096100092BF00082DE9F047002400250026A1464E
:109620002548006800F00C0020B1042805D0082867
:109630003AD105E0DFF8849039E0DFF8849036E035
:109640001D48001F006800F03F041B48001F006811
:1096500000F4800078B11A481749091F0968C1F35E
:109660008811A0FB01700146224600233846FEF710
:10967000A9FD05460EE011480F49091F0968C1F30D
:109680008811A0FB01700146224600233846FEF7F0
:1096900099FD05460848001F0068C0F30140401CC2
:1096A0004600B5FBF6F902E0DFF8109000BF00BFFE
:1096B0004846BDE8F0870000083802400024F40066
:1096C00040787D01F8B504460CB90120F8BD20783A
:1096D00000F00100002874D0F948006800F00C0088
:1096E00004280DD0F648006800F00C00082813D1BB
:1096F000F348001F006800F48000B0F5800F0BD124
:10970000EF4808380068C0F34040002859D060682E
:10971000002856D10120D9E700BF6068B0F5803F2E
:1097200008D1E7480838006840F48030E449083937
:1097300008601EE06068B0F5A02F0DD1E048083841
:10974000006840F48020DE49083908600846006857
:1097500040F4803008600CE0D9480838006820F4F4
:109760008030D749083908600846006820F4802016
:10977000086000BF606890B1FFF7A6FB054606E0F1
:10978000FFF7A2FB401B642801D903209EE7CC48C9
:1097900008380068C0F340400028F1D011E0FFF71E
:1097A00093FB054606E0FFF78FFB401B642801D9B9
:1097B00003208BE7C24808380068C0F34040002807
:1097C000F1D1207800F0020002285FD1BC48006887
:1097D00000F00C0058B1BA48006800F00C000828EE
:1097E0001CD1B748001F006800F48000B0B9B4482D
:1097F00008380068C0F3400020B1E068012801D0BB
:10980000012063E7AE480838006820F0F8002169BD
:1098100040EAC100AA490839086037E0E06800B3AF
:109820000120A8490860FFF74FFB054606E0FFF757
:109830004BFB401B022801D9032047E7A04808380A
:109840000068C0F340000028F1D09D480838006847
:1098500020F0F800216940EAC10099490839086000
:1098600014E0002097490860FFF72EFB054606E04C
:10987000FFF72AFB401B022801D9032026E7904866
:1098800008380068C0F340000028F1D1207800F0CB
:10989000080008282CD16069A8B101208A49086015
:1098A000FFF712FB054606E0FFF70EFB401B022800
:1098B00001D903200AE782486C300068C0F34000F9
:1098C0000028F1D014E000207F490860FFF7FCFA7F
:1098D000054606E0FFF7F8FA401B022801D90320ED
:1098E000F4E677486C300068C0F340000028F1D1FE
:1098F000207800F00400042870D100277048383028
:10990000006800F0805090B900BF002000906C48C3
:109910003830006840F080506949383108600846A6
:10992000006800F08050009000BF00BF012767482A
:10993000006800F48070B0B96448006840F480703A
:1099400062490860FFF7C0FA054606E0FFF7BCFA77
:10995000401B022801D90320B8E65C48006800F4E7
:1099600080700028F2D000BFA068012808D15448B8
:109970006830006840F001005149683108601DE01E
:10998000A06805280DD14E486830006840F00400FA
:109990004B49683108600846006840F001000860E3
:1099A0000CE047486830006820F001004449683105
:1099B00008600846006820F00400086000BFA06846
:1099C000A8B1FFF781FA054609E0FFF77DFA401BD1
:1099D00041F28831884202D9032077E626E03848F0
:1099E00068300068C0F340000028EED013E0FFF7B5
:1099F0006BFA054608E0FFF767FA401B41F2883131
:109A0000884201D9032061E62D4868300068C0F320
:109A100040000028EFD1012F07D1294838300068D5
:109A200020F0805026493831086000BFA069002826
:109A300045D02348006800F00C0008285DD0A069DC
:109A4000022845D100201F490866FFF73DFA054668
:109A500006E0FFF739FA401B022801D9032035E65A
:109A6000174808380068C0F340600028F1D1D4E9F5
:109A700007010843616A40EA81110122A06AC2EB32
:109A8000500041EA00412C20005D41EA00600C4991
:109A9000091F086001200B490866FFF715FA054603
:109AA00006E0FFF711FA401B022801D903200DE65A
:109AB000034808380068C0F340600028F1D049E04E
:109AC0000838024000004742800E474200700040C4
:109AD000002021490866FFF7F7F9054606E0FFF781
:109AE000F3F9401B022801D90320EFE51B48006869
:109AF000C0F340600028F2D12CE0A069012800D119
:109B0000E4E51648001D0668A069012820D006F487
:109B10008001E06981421BD106F03F01206A814249
:109B200016D147F6C0703040616AB0EB811F0FD18B
:109B300006F440310122A06AC2EB5000B1EB004FA5
:109B400006D106F070612C20005DB1EB006F01D0F2
:109B50000120BBE50020B9E5000047420038024083
:109B600010B504460CB9012010BD606A38B96068B0
:109B7000B0F5827F00D105E00021E16102E0002123
:109B8000216161610021A16294F8510028B900208F
:109B900084F85000204600F047F8022084F8510075
:109BA0002068006820F0400021680860A08800F468
:109BB0008270218901F404410843A18901F4006104
:109BC0000843217C01F002010843217D01F00101DD
:109BD0000843218B01F400710843217F01F0380113
:109BE00008432021095D01F080010843218D01F423
:109BF00000510843216808600421A06901EA10406F
:109C000094F8241001F0100108432168486020688E
:109C1000C06920F400602168C861002060650120EF
:109C200084F8510000209FE710B586B00446142147
:109C300001A8FEF711FB1B49206888422FD100BF05
:109C4000002000901848006840F4805016490860D1
:109C50000846006800F48050009000BF00BF00BFBD
:109C60000020009010481438006840F002000E49AF
:109C7000143908600846006800F00200009000BF38
:109C800000BF3820019002200290002003900320A2
:109C900004900520059001A90448FFF715F806B0C7
:109CA00010BD000000300140443802400004024072
:109CB0002DE9F8430446884616461D4694F851009F
:109CC000012802D00220BDE8F883B8F1000F00D0CF
:109CD0000EB90120F7E76068B0F5827F0CD1A0686B
:109CE00050B9042084F8510033464246414620468C
:109CF000009500F07DF9E6E7FFF7E6F8074600BFBC
:109D000094F85000012801D10220DCE7012084F8FA
:109D1000500000BF042084F8510000206065C4F8A2
:109D20003880A687E6872063A086E086206460648A
:109D3000A068B0F5004F0BD12068006820F040000B
:109D4000216808602068006820F48040216808606D
:109D50002068006800F04000402805D020680068B6
:109D600040F0400021680860E06830BB21E02068D6
:109D7000806800F0010050B12068007BA16B087082
:109D8000A06B401CA063E08F401EE08711E0FFF74E
:109D90009BF8C01BA84201D3681C00B94DB9012033
:109DA00084F8510000BF002084F8500000BF032059
:109DB00089E7E08F0028DAD125E021E0206880687B
:109DC00000F0010050B12068C068A16B0880A06B52
:109DD000801CA063E08F401EE08711E0FFF774F85D
:109DE000C01BA84201D3681C00B94DB9012084F8FA
:109DF000510000BF002084F8500000BF032062E73C
:109E0000E08F0028DAD13A462946204600F0A1FF2B
:109E100008B120206065012084F8510000BF0020B7
:109E200084F8500000BF606D08B101204BE70020AE
:109E300049E72DE9F84304460F4616461D46FFF74D
:109E400043F88046B14694F85100012802D0022020
:109E5000BDE8F88307B10EB90120F9E700BF94F817
:109E60005000012801D10220F2E7012084F85000BF
:109E700000BF032084F85100002060652763A68698
:109E8000E686A063A087E08760642064A068B0F5E0
:109E9000004F0BD12068006820F040002168086066
:109EA0002068006840F480402168086020680068ED
:109EB00000F04000402805D02068006840F04000D5
:109EC00021680860E068B0F5006F37D1606810B1B4
:109ED000B9F1010F09D1206B00882168C860206B9F
:109EE000801C2063E08E401EE08623E020688068AE
:109EF00000F0020002280AD1206B00882168C860A7
:109F0000206B801C2063E08E401EE08612E0FEF78E
:109F1000DBFFA0EB0800A84201D3681C00B94DB9D3
:109F2000012084F8510000BF002084F8500000BFD9
:109F300003208DE7E08E0028D8D136E0606810B1AC
:109F4000B9F1010F09D1206B007821680873206BEB
:109F5000401C2063E08E401EE08623E0206880687D
:109F600000F0020002280AD1206B007821680873F3
:109F7000206B401C2063E08E401EE08612E0FEF75E
:109F8000A3FFA0EB0800A84201D3681C00B94DB99B
:109F9000012084F8510000BF002084F8500000BF69
:109FA000032055E7E08E0028D8D1424629462046B6
:109FB00000F01AFF08B120206065A06850B900BF0A
:109FC000002000902068C0680090206880680090A1
:109FD00000BF00BF012084F8510000BF002084F8BA
:109FE000500000BF606D08B1012031E700202FE76D
:109FF0002DE9FE4F04460F4690461D460C9E01205B
:10A000000190FEF761FF814694F851B060680290BC
:10A01000AA46BBF1010F0BD00298B0F5827F04D1A4
:10A02000A06810B9BBF1040F02D00220BDE8FE8F7A
:10A030001FB1B8F1000F00D00DB90120F6E700BF45
:10A0400094F85000012801D10220EFE7012084F8A4
:10A05000500000BF94F85100042802D0052084F875
:10A06000510000206065C4F83880E587A587276324
:10A07000E586A586206460642068006800F04000E2
:10A08000402805D02068006840F040002168086042
:10A09000E068B0F5006F52D1606810B1BAF1010FFD
:10A0A00009D1206B00882168C860206B801C206368
:10A0B000E08E401EE0863BE02068806800F00200F1
:10A0C000022810D1E08E70B1019801280BD1206BCD
:10A0D00000882168C860206B801C2063E08E401ED1
:10A0E000E086002001902068806800F0010068B1DF
:10A0F000E08F58B12068C068A16B0880A06B801CFD
:10A10000A063E08F401EE08701200190FEF7DCFE97
:10A11000A0EB0900B0420BD3701C48B1012084F8B9
:10A12000510000BF002084F8500000BF03207DE7ED
:10A13000E08E0028C0D1E08F0028BDD152E06068D9
:10A1400010B1BAF1010F09D1206B007821680873B2
:10A15000206B401C2063E08E401EE0863CE02068BF
:10A16000806800F00200022810D1E08E70B10198E2
:10A1700001280BD1206B007821680873206B401CEC
:10A180002063E08E401EE0860020019020688068F9
:10A1900000F0010068B1E08F58B12068C068A16B81
:10A1A0000870A06B401CA063E08F401EE087012078
:10A1B0000190FEF789FEA0EB0900B04201D3701CAC
:10A1C00000B94EB9012084F8510000BF002084F886
:10A1D000500000BF032029E7E08E0028BFD1E08FA8
:10A1E0000028BCD14A463146204600F0FDFD40B172
:10A1F0002020606500BF002084F8500000BF0120CF
:10A2000014E7A06850B900BF002000902068C06823
:10A21000009020688068009000BF00BF012084F893
:10A22000510000BF002084F8500000BF606D08B1ED
:10A230000120FBE60020F9E670B504462546681EBD
:10A24000B0F1807F01D301200FE0681E4FF0E021C4
:10A2500048610F214FF0FF3001F032FA00204FF03B
:10A26000E021886107200861002070BD70477047B9
:10A270002DE9F84F0446206805682068C668206804
:10A2800047694FF00009CA4605F00F09B9F1000F00
:10A290000AD105F0200038B106F0200020B1204698
:10A2A00000F00FFFBDE8F88FB9F1000F7CD007F088
:10A2B000010018B906F49070002875D005F001006F
:10A2C00030B106F4807018B1606C40F00100606439
:10A2D00005F0040030B107F0010018B1606C40F0E7
:10A2E0000200606405F0020030B107F0010018B10F
:10A2F000606C40F00400606405F0080048B106F0AE
:10A30000200010B907F0010018B1606C40F008009F
:10A310006064606C002846D005F0200028B106F08B
:10A32000200010B1204600F0CCFE20684069C0F348
:10A33000801A606C00F0080010B9BAF1000F2DD03F
:10A34000204600F078FE2068406900F04000402878
:10A3500020D100BF00BF2168143151E8001F21F057
:10A3600040002168143141E80002002AF3D100BF07
:10A37000E06B50B17F48E16B0865E06BFEF77CFC59
:10A3800088B1E06B016D88470DE02046FFF76FFF55
:10A3900009E009E02046FFF76AFF04E02046FFF7E6
:10A3A00066FF002060647DE7206B012878D105F00E
:10A3B0001000002874D006F010000028FAD000BF6A
:10A3C000002000902068006800902068406800909D
:10A3D00000BF00BF2068406900F04000402870D1F5
:10A3E000E06B006840681FFA80F8B8F1000F58D0A1
:10A3F000A08D404555DDA4F82E80E06BC069B0F516
:10A40000807F43D000BF00BF21680C3151E8001F9E
:10A4100021F4807021680C3141E80002002AF3D158
:10A4200000BF00BF00BF2168143151E8001F21F0B8
:10A4300001002168143141E80002002AF3D100BF75
:10A4400000BF00BF2168143151E8001F21F0400017
:10A450002168143141E80002002AF3D100BF202016
:10A4600084F842000020206300BF00BF21680C3147
:10A4700051E8001F21F0100021680C3141E8000272
:10A48000002AF3D100BFE06BFEF7A0FB022060635F
:10A49000A08DE28D801A81B22046FFF7E7FE0EE024
:10A4A00052E0A08D40450AD1E06BC069B0F5807FD5
:10A4B00005D102206063A18D2046FFF7D7FEF1E6AB
:10A4C000FFE7A08DE18D401A1FFA80F8E08DD0B330
:10A4D000B8F1000F37D000BF00BF21680C3151E840
:10A4E000001F21F4907021680C3141E80002002A1D
:10A4F000F3D100BF00BF00BF2168143151E8001F35
:10A5000021F001002168143141E80002002AF3D152
:10A5100000BF202084F842000020206300BF00BF5D
:10A5200021680C3151E8001F21F0100021680C3126
:10A5300041E80002002AF3D100BF022060634146D7
:10A540002046FFF793FEADE605F0800030B106F03F
:10A55000800018B1204600F049FFA3E605F0400056
:10A5600030B106F0400018B1204600F09AFD99E69F
:10A5700000BF97E625B0000810B504460CB90120CD
:10A5800010BDA06900B100E000BF94F8410028B9F7
:10A59000002084F84000204600F02AF8242084F8A7
:10A5A00041002068C06820F400502168C86020463F
:10A5B00000F006FE2068006920F4904021680861E0
:10A5C0002068406920F02A00216848612068C0683E
:10A5D00040F400502168C86000206064202084F8A6
:10A5E000410084F842000020606300BFC8E700001B
:10A5F00010B586B00446142101A8FDF72DFE1F49B1
:10A600002068884238D100BF002000901C480068B4
:10A6100040F010001A4908600846006800F0100079
:10A62000009000BF00BF00BF002000901448143805
:10A63000006840F0010012491439086008460068BB
:10A6400000F00100009000BF00BF4FF4C060019017
:10A650000220029000200390032004900720059020
:10A6600001A90848FEF730FB002205212520FEF74E
:10A6700097FE2520FEF780FE06B010BD00100140B9
:10A68000443802400000024070472DE9F84F04466C
:10A690000E46174699464FF0000A94F841002028CC
:10A6A00050D106B117B90120BDE8F88F00206064D1
:10A6B000212084F84100FEF707FC8246A784E78446
:10A6C000A068B0F5805F04D1206910B90025B046BC
:10A6D00002E035464FF000081EE05346002280217C
:10A6E0002046CDF8009000F0B1FE20B1202084F883
:10A6F00041000320D8E745B9B8F80000C0F30800CE
:10A700002168486008F1020803E028782168486061
:10A710006D1CE08C401EE084E08C0028DDD15346A7
:10A72000002240212046CDF8009000F08FFE20B19D
:10A73000202084F841000320B6E7202084F841005F
:10A740000020B1E70220AFE7704700BFFEE70146F7
:10A7500008684069C0F38020B0B16FF480600A6877
:10A76000506100200863202081F83D00002081F81E
:10A770003E00086C40F00400086400BF002081F82F
:10A780003C0000BF012070470020FCE72DE9F843A2
:10A790000446884615469946DDE908672068006842
:10A7A00040F4807021680860334600224FF00111A8
:10A7B0002046009700F08DF860B12068006800F432
:10A7C0008070B0F5807F02D14FF4007020640320C8
:10A7D000BDE8F88308F0FE00216808613B46324678
:10A7E0002149204600F0D4F808B10120F0E700BF6D
:10A7F00000200090206840690090206880690090E7
:10A8000000BF00BF3A463146204600F03EF950B145
:10A81000206C042805D12068006840F4007021688D
:10A8200008600120D4E7B9F1010F03D1E8B2216833
:10A83000086117E0C5F30720216808613A463146F0
:10A84000204600F022F950B1206C042805D1206880
:10A85000006840F40070216808600120B8E7E8B2A1
:10A86000216808610020B3E70200010070B50446CA
:10A870000D46164625E02046FFF769FF08B1012086
:10A8800070BD681CE8B1FEF71FFB801BA84200D812
:10A89000BDB920684069C0F3800090B900202063F2
:10A8A000202084F83D00002084F83E00206C40F019
:10A8B0002000206400BF002084F83C0000BF01207D
:10A8C000DEE720684069C0F380000028D3D0002074
:10A8D000D6E72DE9F04104460D4617461E46DDF841
:10A8E000188038E0701CA8B3FEF7EEFAA0EB080061
:10A8F000B04200D876BBC5F3074001280AD12068D2
:10A900004069A9B20840A9B2884201D101200BE0F8
:10A91000002009E020688069A9B20840A9B28842F5
:10A9200001D1012000E00020B84214D100202063B2
:10A93000202084F83D00002084F83E00206C40F088
:10A940002000206400BF002084F83C0000BF0120EC
:10A95000BDE8F081FFE7C5F3074001280AD1206870
:10A960004069A9B20840A9B2884201D101200BE098
:10A97000002009E020688069A9B20840A9B2884295
:10A9800001D1012000E00020B842ABD00020DFE779
:10A990002DE9F04104460D4616461F4658E0206852
:10A9A0004069C0F38020E8B12068006840F400707E
:10A9B000216808606FF4806021684861002020638E
:10A9C000202084F83D00002084F83E00206C40F0F8
:10A9D0000400206400BF002084F83C0000BF012078
:10A9E000BDE8F081701C90B3FEF76EFAC01BB04258
:10A9F00000D866BBC5F3074001280AD1206840692A
:10AA0000A9B20840A9B2884201D101200BE0002080
:10AA100009E020688069A9B20840A9B2884201D142
:10AA2000012000E0002090B900202063202084F85D
:10AA30003D00002084F83E00206C40F0200020649F
:10AA400000BF002084F83C0000BF0120C8E7FFE7FA
:10AA5000C5F3074001280AD120684069A9B208401F
:10AA6000A9B2884201D101200BE0002009E0206852
:10AA70008069A9B20840A9B2884201D1012000E052
:10AA8000002000288BD00020AAE770B504460D46B0
:10AA9000164625E02046FFF75AFE08B1012070BD9A
:10AAA000681CE8B1FEF710FA801BA84200D8BDB9B7
:10AAB00020684069C0F3C01090B9002020632020B6
:10AAC00084F83D00002084F83E00206C40F0200017
:10AAD000206400BF002084F83C0000BF0120DEE7B6
:10AAE00020684069C0F3C0100028D3D00020D6E70A
:10AAF00010B50E480E4908602420486000210C481B
:10AB00008160C1604FF48031016109014161002120
:10AB100001760121417681760021C1760177417766
:10AB2000FDF7D1FE08B1FDF79CFC10BD00680040A8
:10AB30002800002010B50548054908600846FEF7C2
:10AB40001AF808B1FDF78DFC10BD0000003002407E
:10AB50000000002000B587B0142102A8FDF77CFB9F
:10AB600000BF002001904648006840F004004449BE
:10AB700008600846006800F00400019000BF00BFB4
:10AB800000BF002001900846006840F020000860E7
:10AB90000846006800F02000019000BF00BF00BF21
:10ABA000002001900846006840F0800008600846D8
:10ABB000006800F08000019000BF00BF00BF0020CF
:10ABC00001900846006840F00200086008460068EE
:10ABD00000F00200019000BF00BF00BF0020019004
:10ABE0000846006840F0400008600846006800F031
:10ABF0004000019000BF00BF00BF00200190084648
:10AC0000006840F0010008600846006800F001009C
:10AC1000019000BF00BF01224FF4E0711948FEF718
:10AC20004DF9012208211848FEF748F90122402178
:10AC30001648FEF743F94FF4E070029001200390AC
:10AC400000200490059002A90E48FEF73DF8082068
:10AC500002900120039000200490059002A90A4868
:10AC6000FEF732F84020029001200390002004906B
:10AC70000220059002A90548FEF726F807B000BD9E
:10AC80003038024000140240000802400018024020
:10AC900010B50B480B4908600B4848600021094873
:10ACA0008160C1604FF48041016100214161816197
:10ACB000C1610162FEF70EF908B1FDF7D2FB10BDCC
:10ACC0000054004050000020A086010010B50E483E
:10ACD0000E4908604FF48270486000210B48816083
:10ACE000C160016141614FF4007181610821C1615E
:10ACF00000210162416281620A21C162FEF730FFD8
:10AD000008B1FDF7AEFB10BD00300140A4000020EB
:10AD100010B50B480B4908604FF4E1304860002142
:10AD200008488160C16001610C214161002181619D
:10AD3000C161FFF721FC08B1FDF793FB10BD0000D6
:10AD400000100140FC00002000BFFEE700BFFEE74E
:10AD50007047F8B504460E4615466068B0F5827F28
:10AD60000DD1A068B0F5004F03D0A068B0F5806F9A
:10AD700005D12068006820F0400021680860606804
:10AD8000B0F5827F1FD1A068B0F5806F0DD033463B
:10AD9000002280212046009500F06AF808B3606D1B
:10ADA00040F0200060650320F8BD334600220121F9
:10ADB0002046009500F05CF898B1606D40F02000EE
:10ADC00060650320F0E7334600220121204600950C
:10ADD00000F04EF828B1606D40F02000606503205F
:10ADE000E2E70020E0E700007CB504460E46154689
:10ADF0003346012202212046009500F039F828B19F
:10AE0000606D40F02000606503207CBD164800683E
:10AE10001821B0FBF1F01549B0FBF1F04FF47A7155
:10AE2000484301906068B0F5827F0DD1334600221F
:10AE300080212046009500F01BF898B1606D40F02D
:10AE4000200060650320E0E700BF019800B908E03A
:10AE50000198401E019020688068C0F3C01000284F
:10AE6000F3D100BF0020D0E71400002040420F00C3
:10AE70002DE9F84F04460D4690461E46DDF8289011
:10AE8000FEF722F8A0EB0900371AFEF71DF88246FC
:10AE90002C480068C0F3CB307843009046E0701C2B
:10AEA000002843D0FEF710F8A0EB0A00B84200D209
:10AEB000A7BB2068406820F0E00021684860606817
:10AEC000B0F5827F0DD1A068B0F5004F03D0A06827
:10AED000B0F5806F05D12068006820F0400021683F
:10AEE0000860A06AB0F5005F0DD100BF206800685F
:10AEF00020F40050216808602068006840F4005089
:10AF00002168086000BF012084F8510000BF0020C4
:10AF100084F8500000BF0320BDE8F88FFFE70098D9
:10AF200008B9002702E00098401E00902068806861
:10AF30002840A84201D1012000E000204045AED1C8
:10AF40000020E9E714000020704710B5FEF7A0F9D3
:10AF500010BD000000B593B0302107A8FDF77CF9C3
:10AF6000142102A8FDF778F900BF002001902348C2
:10AF7000006840F08050214908600846006800F0F1
:10AF80008050019000BF00BF00BF002001901C480E
:10AF9000006840F480401A4908600846006800F4E0
:10AFA0008040019000BF00BF01200790000408907E
:10AFB00002200D9041050E9119210F9190211091C1
:10AFC000022111910421129107A8FEF77BFB08B121
:10AFD000FDF747FA0F200290022003900020049012
:10AFE0004FF48050059000200690022102A8FEF741
:10AFF00029FA08B1FDF735FA13B000BD4038024018
:10B00000007000400548006840F470000349086083
:10B0100003480249803908607047000088ED00E06D
:10B020000080000870B50446A56B0020E88528461E
:10B03000FFF71DF970BD00BF00BF02680C3252E877
:10B04000002F22F4907102680C3242E80013002BAA
:10B05000F3D100BF00BF00BF0268143252E8002FD6
:10B0600022F001010268143242E80013002BF3D1F0
:10B0700000BF016B01290ED100BF00BF02680C3276
:10B0800052E8002F22F0100102680C3242E800134F
:10B09000002BF3D100BF202180F842100021016372
:10B0A000704710B504462068C06820F04000216851
:10B0B000C860202084F841002046FFF745FB0020AF
:10B0C00010BDF8B504460025002694F84200222859
:10B0D00073D1A068B0F5805F0BD1206948B9A66A2A
:10B0E00020684068C0F308003080A06A801CA0621D
:10B0F00014E0A56AA068B0F5805F03D0A06828B905
:10B10000206918B920684068287004E02068406809
:10B1100000F07F002870A06A401CA062E08D401EF5
:10B1200080B2E085002846D12068C06820F0200069
:10B130002168C8602068C06820F480702168C860F9
:10B140002068406920F0010021684861202084F8CF
:10B15000420000206063206B012826D1002020637C
:10B1600000BF00BF21680C3151E8001F21F0100022
:10B1700021680C3141E80002002AF3D100BF2068A9
:10B18000006800F0100010280AD100BF00200090D5
:10B1900020680068009020684068009000BF00BFF1
:10B1A000A18D2046FFF762F802E02046FFF76CFA17
:10B1B0000020F8BD01E00020FBE70220F9E70000D5
:10B1C0002DE9F84F04462068006920F44050E168FA
:10B1D0000843216808612169A06808436169084340
:10B1E000E169084300902068C06849F20C61884317
:10B1F000009908432168C8602068406920F44070C5
:10B20000A16908432168486176492068884203D0D3
:10B2100075492068884203D1FEF7ECF9814602E0C7
:10B22000FEF7D8F98146E069B0F5004F6CD10220F5
:10B230006168A0FB015003461920A9FB007001467C
:10B240002A463846FCF7BEFF6421B0FBF1F04FEA16
:10B25000001A02206168A0FB01510B461920A9FBCE
:10B2600000712A463846FCF7ADFF8346022061682C
:10B27000A0FB015003461920A9FB00712A4638465D
:10B28000FCF7A0FF6421B0FBF1F000EBC00101EB83
:10B290000010ABEB8000322101EBC0006421B0FB59
:10B2A000F1F000F0F8000AEB400A02206168A0FB10
:10B2B000015003461920A9FB007001462A46384672
:10B2C000FCF780FF834602206168A0FB0150034623
:10B2D0001920A9FB00712A463846FCF773FF642148
:10B2E000B0FBF1F000EBC00101EB0010ABEB800014
:10B2F000322101EBC0006421B0FBF1F000F0070047
:10B300005044216888606AE004206168A0FB015015
:10B3100003461920A9FB007001462A463846FCF76F
:10B3200051FF824604206168A0FB015003461920AA
:10B33000A9FB007001462A463846FCF743FF64210A
:10B34000B0FBF1F000EBC00101EB0010AAEB8000B4
:10B35000322101EB00106421B0FBF1F000F0F00AA3
:10B3600004206168A0FB017003461920A9FB00516D
:10B370003A462846FCF726FF6421B0FBF1F00AEBC1
:10B38000001A04206168A0FB01510B461920A9FB9B
:10B3900000712A463846FCF715FF83460420616891
:10B3A000A0FB015003461920A9FB007001462A4664
:10B3B0003846FCF707FF6421B0FBF1F000EBC00159
:10B3C00001EB0010ABEB8000322101EB0010642197
:10B3D000B0FBF1F000F00F00504421688860BDE838
:10B3E000F88F00000010014000140140014691F860
:10B3F0004100212828D18868B0F5805F0BD1086909
:10B4000048B90A6A1088C0F308000B685860086AD7
:10B41000801C086205E00B6A581C086218780B68EB
:10B420005860C88C401E80B2C88458B90868C0688B
:10B4300020F080000B68D8600868C06840F04000C9
:10B440000B68D860002070470220FCE72DE9F84324
:10B4500004460D4617469846089E31E0701C70B3AE
:10B46000FDF732FDA0EB0800B04200D816B903206A
:10B47000BDE8F8832068C06800F00400F8B1802DB2
:10B480001ED0402D1CD020680068C0F3C000B0B1B1
:10B4900000BF00200090206800680090206840688D
:10B4A000009000BF00BF2046FFF7C5FD0820606484
:10B4B00000BF002084F8400000BF0120D8E7FFE76C
:10B4C000206800682840A84201D1012000E0002047
:10B4D000B842C3D00020CBE710B50248FEF7C8FE43
:10B4E00010BD0000FC00002000BFFEE72DE9FE4378
:10B4F000064688461546002424E03019C11700EBA3
:10B500005171C910A0EBC101C1F108011FFA81F905
:10B51000281B484501DA281B00E0484687B2642111
:10B5200008EB0400CDE901710090301982B20123CB
:10B53000A0210648FDF7B6FDE01984B20520FDF70D
:10B54000AFFB00BFAC42D8DBBDE8FE83500000205B
:10B5500070B505460E4600F041F800F02BF80620C5
:10B5600000F04EF800F030F800F038F800F022F863
:10B57000202000F045F82807000B06F00F0140EAF4
:10B580000134200C00F03CF8C4F3072000F038F838
:10B59000E0B200F035F800F017F870BD08B564238C
:10B5A000012269460248FEF783FB9DF8000008BDB2
:10B5B000A400002010B5002240210248FDF77EFCC7
:10B5C00010BD00000018024010B5012240210248C1
:10B5D000FDF774FC10BD00000018024010B5FFF725
:10B5E000E9FF052000F00CF800BFFFF7D7FF044685
:10B5F00004F001000028F8D1FFF7E6FF10BD0000BD
:10B6000001B56423012269460148FEF712FC08BD1A
:10B61000A40000202DE9F05F06460F4690469946AB
:10B62000DDE90AABFFF7DAFFFFF7C4FF0620FFF7FB
:10B63000E7FFFFF7C9FFFFF7D1FFFFF7BBFF0220CE
:10B64000FFF7DEFF3007000B07F00F0140EA013083
:10B6500008F00F0140EA012009F0FF0140EA01046F
:10B66000200CFFF7CDFFC4F30720FFF7C9FFE0B2BE
:10B67000FFF7C6FF002505E01AF80500FFF7C0FF39
:10B68000681C85B25D45F7DBFFF79EFFBDE8F09FC4
:10B690000FB4054B10B503A9044A029800F034F822
:10B6A00010BC5DF814FB000039BF00082400002026
:10B6B00002480068C0F30220704700000CED00E073
:10B6C00010B5002804DB0A07130E054A135406E0E0
:10B6D0000A07140E034A00F00F031B1FD45410BDB9
:10B6E00000E400E018ED00E002E008C8121F08C105
:10B6F000002AFAD170477047002001E001C1121FF3
:10B70000002AFBD1704700002DE9FF4F8DB00F4696
:10B710000546002606E025280BD0DDE90F129047EC
:10B720006D1C761C28780028F5D111B03046BDE894
:10B73000F08F0024A246A1460122E94900E004431B
:10B7400015F8013F203B02FA03F00842F7D12878B0
:10B750002A2810D06FF02F022878A0F13001092993
:10B7600014D80AEB8A0102EB410144F0020400EB19
:10B77000010A6D1CF0E701CF5FEA000A03D544F42B
:10B780000054CAF1000A44F002046D1C28782E28E7
:10B7900017D115F8010F44F004042A280ED06FF0D9
:10B7A0002F022878A0F1300109290AD809EB890174
:10B7B00002EB410100EB01096D1CF2E757F8049B15
:10B7C0006D1C28786C280FD006DC4C2817D0682810
:10B7D0000DD06A2814D104E0742810D07A280FD133
:10B7E0000DE044F400140AE044F4801401E044F451
:10B7F00040146978814202D104F580146D1C6D1CDF
:10B8000028786E281ED00CDC632830D004DC002899
:10B810008BD0582811D19FE0642867D069280CD1BB
:10B8200064E073282DD004DC6F2872D0702804D116
:10B8300094E075286ED078286DD0DDE90F1290471E
:10B84000761C4BE1C4F30250022806D0032809D02D
:10B85000042801CF09D0066040E101CFF117C0E90B
:10B8600000613BE101CF068038E1067036E117F850
:10B87000040B8DF8000000208DF80100EB4601203C
:10B8800003E057F804BB4FF0FF3061074FF00001B1
:10B8900002D40DE008F10101884649450FDA8045E0
:10B8A000F8DB1BF808100029F4D108E008F10101C9
:10B8B00088468142FADB1BF808100029F6D1DDE941
:10B8C0000F23AAEB08008146214600F031F93044ED
:10B8D00000EB080604E0DDE90F121BF8010B9047AE
:10B8E000B8F10108F7D221464846F2E00A21C4F334
:10B8F00002524FF0000B0891022A04D001CFC11769
:10B90000032A09D00AE0FF1D27F00707F7E8020124
:10B9100008E02CE01EE01FE000B2C117042A01D1AC
:10B9200040B2C117021E71F1000206DA0023D0EB0B
:10B93000030063EB01012D2202E0220504D52B2236
:10B940008DF82420012203E0E20701D02022F7E74E
:10B95000904653E00A210BE0102109E010214FF03E
:10B96000000B44F004044FF00809089103E008219B
:10B970004FF0000B0891C4F30252022A04D001CF09
:10B980000021032A06D006E0FF1D27F00707F7E88D
:10B99000020103E080B2042A00D1C0B24FF00008D7
:10B9A00022072BD52A78702A07D0DDF820C08CF02A
:10B9B000100C5CEA0B0C05D00EE040228DF8242020
:10B9C000012208E050EA010306D030238DF824302C
:10B9D0008DF8252002229046089B83F0080353EA45
:10B9E0000B030BD150EA010201D1620706D53022C8
:10B9F0008DF824204FF00108A9F101092A78582A6E
:10BA000004D038A20B9208AA0A920BE03AA2F9E7F6
:10BA10005B46089AFCF7D6FB0B9B9B5C0A9A521E6E
:10BA20000A92137050EA0102F2D10A98ADEB0000BD
:10BA300000F1200B600702D524F4803401E04FF0C0
:10BA40000109D94502DDA9EB0B0000E0002000EB65
:10BA50000B0141440890AAEB010AE00306D4DDE99A
:10BA60000F232146504600F063F806444FF00009CA
:10BA700008E009A911F80900DDE90F12904709F162
:10BA80000109761CC145F4DBE0030CD5DDE90F2389
:10BA90002146504600F04CF8064404E0DDE90F1260
:10BAA00030209047761C0899481E08900029F5DC44
:10BAB00008E00A980A990078491C0A91DDE90F12FA
:10BAC0009047761CBBF10001ABF1010BF1DC214684
:10BAD0005046DDE90F2300F019F806446D1C21E6FD
:10BAE0000928010030313233343536373839616254
:10BAF0006364656600000000303132333435363718
:10BB00003839414243444546000000002DE9F041E8
:10BB1000044600251E461746880404D405E039462D
:10BB20002020B0476D1C641EF9D52846BDE8F08181
:10BB30002DE9F041044600251E469046C80301D574
:10BB4000302700E02027880404D505E04146384628
:10BB5000B0476D1C641EF9D52846BDE8F081000091
:10BB600070B51D480068042808D81B4801681BA050
:10BB7000FFF78EFD04202149087070BD164800684B
:10BB8000041F1F48015D0246601C105C41EA002151
:10BB9000A01C105C41EA0041E01C105C41EA006618
:10BBA00021461046FCF7E0FB0546B5420AD1224685
:10BBB000294614A0FFF76CFD0748046003200F49D5
:10BBC000087007E03246294618A0FFF761FD0420FF
:10BBD0000A49087000BFD0E7180000204552524FB4
:10BBE000523A20746F6F2073686F72742028256436
:10BBF000206279746573290D0A0000001D00002081
:10BC000044010020435243204F4B202830782530F8
:10BC10003858292C206669726D776172653D2564FC
:10BC20002062797465730D0A0000000043524320BE
:10BC30006572726F72212063616C633D30782530CC
:10BC4000385820726563763D3078253038580D0AB3
:10BC50000000000070B529492948FCF7C3FB002407
:10BC60002FE004EBC400264901EB8000057C254849
:10BC70000068284444F20401884209D922A0FFF751
:10BC800007FD04202649087000201C49087070BD7B
:10BC900004EBC4021A4B03EB820202F11C01214A9D
:10BCA000184B1B68D0182A46FCF7BDFA15480068E7
:10BCB000284414490860FDF707F91B490860601C17
:10BCC000C4B20E4800788442CBDB00200B490870D8
:10BCD0001548006880B1FDF7F7F813490968401A64
:10BCE00040F6B831884207D9064801680FA0FFF72F
:10BCF000CFFC02200A49087000BFC8E71C000020E2
:10BD000048410020180000204552524F523A20640A
:10BD1000617461206F766572666C6F77210D0A0021
:10BD20001D000020440100202000002052656365B2
:10BD300069766520646F6E652C20746F74616C3A4F
:10BD40002025642062797465730D0A0010B544F2F1
:10BD500004010948FCF780FA0020084908600849F6
:10BD60000860032207A1FCF761FB07A0FFF790FC26
:10BD700001200F49087010BD440100201800002068
:10BD80002000002073737300526571756573742011
:10BD900073656E742C2077616974696E6720666FB5
:10BDA00072206669726D776172652E2E2E0D0A0003
:10BDB0001D0000202DE9F04F85B045A0FFF768FC7D
:10BDC00000210846FFF7C4FB4748006800F6FF70F3
:10BDD000C0F30F3A00250DE04FF4805000EB05361C
:10BDE000C6F30347C6F3033841463846FFF7B0FBB6
:10BDF000681CC5B25545EFDB00208DF80C008DF8AE
:10BE00000D0010208DF80E0000208DF80F00364830
:10BE10000068000E8DF8100033480068000C8DF8A3
:10BE2000110031480088000A8DF812002E48007871
:10BE30008DF81300082003A900231A46CDE900104D
:10BE400019461846FFF7E6FB28A0FFF721FC00245F
:10BE500022E025480068001BB0F5807F02D94FF42E
:10BE6000807002E020480068001B86B204F580550F
:10BE7000C5F30347C5F30338C5F3032905F0FF0BEA
:10BE8000234820445B464A464146CDE900063846F1
:10BE9000FFF7C0FB344400BF134800688442D8D386
:10BEA000A5208DF808003C208DF809004D208DF864
:10BEB0000A00032202A91020FFF718FB15A0FFF7C4
:10BEC000E7FB04201B49087005B0BDE8F08F0000B7
:10BED00045726173696E6720573235513132382EA1
:10BEE0002E2E0D0A00000000180000205772697401
:10BEF000696E67206669726D7761726520746F2064
:10BF0000573235513132382E2E2E0D0A00000000E6
:10BF10004401002055706461746520726561647924
:10BF20002C207265626F6F74696E672E2E2E0D0A5B
:10BF3000000000001D00002013B50C464FF0FF3339
:10BF4000012269460248FEF7A0FB00981CBD0000D4
:10BF5000FC00002062B6FDF7A7F9FEF7FBFFFEF735
:10BF6000F9FDFEF7C5FDFEF7D3FEFEF7E3FDFEF794
:10BF70008FFEFEF7ABFEFCF7ABF901E0FCF7BEF974
:10BF8000FCE70000000000000000010203040607B7
:10BF9000080900000000010203040000BCBF000803
:10BFA0000000002028000000E8B60008E4BF0008F8
:10BFB0002800002090450000F8B6000800000000AE
:10BFC0000000000000000000100000000100000060
:10BFD0000024F40000000000000000000000000049
:04BFE000000000005D
:0400000508008189E5
:00000001FF
