:020000040800F2
:10000000383300205D020008E94D0008434C000829
:10001000E54D0008CF2F00088D5A000800000000B1
:10002000000000000000000000000000C501000802
:10003000553000080000000009020008AD54000817
:1000400077020008770200087702000877020008AC
:10005000770200087702000877020008770200089C
:10006000573000087702000877020008770200087E
:1000700077020008770200081930000877020008AC
:10008000770200087702000877020008770200086C
:10009000770200087702000877020008770200085C
:1000A000770200087702000877020008770200084C
:1000B0007702000829550008770200087702000837
:1000C000770200087702000877020008770200082C
:1000D000770200087D5A00087702000877020008BE
:1000E00077020008770200087702000800F002F8A3
:1000F00000F059F80AA090E8000C82448344AAF169
:100100000107DA4501D100F04EF8AFF2090EBAE866
:100110000F0013F0010F18BFFB1A43F0010318473B
:10012000FC8400001C850000103A24BF78C878C108
:10013000FAD8520724BF30C830C144BF04680C60ED
:10014000704700000023002400250026103A28BF35
:1001500078C1FBD8520728BF30C148BF0B60704739
:10016000662908F09C80642900F01881752900F048
:100170001581782900F04E81732900F06E860020E9
:1001800070471FB500F0C0FE04000020002107F0FA
:10019000AFFC401C60600020002107F0BFFCE06065
:1001A0001FBD10B510BD00F0B9FF1146FFF7E9FF04
:1001B00005F0BAFD00F0D7FF03B4FFF7F2FF03BC70
:1001C00000F0DAFF224B19680868B0E8F00F80F3FE
:1001D0000988BFF36F8F4FF0000080F311884EF055
:1001E0000D0E70470000000006480068006880F3AC
:1001F000088862B661B6BFF34F8FBFF36F8F00DF21
:1002000000BF00BF08ED00E0EFF30980BFF36F8F80
:100210000F4B1A6820E9F00F106008B54FF050003E
:1002200080F31188BFF34F8FBFF36F8F06F016FD79
:100230004FF0000080F31188BDE808401968086895
:10024000B0E8F00F80F30988BFF36F8F704700BFED
:1002500014000020EFF30580704700000948804734
:1002600009480047FEE7FEE7FEE7FEE7FEE7FEE798
:10027000FEE7FEE7FEE7FEE704480549054A064BB0
:100280007047000027550008ED000008382D0020B9
:1002900038330020382F0020382F0020B2F12003FF
:1002A0000AD5C2F1200320FA02F001FA03F321FA81
:1002B00002F140EA0300704721FA03F04FF0000119
:1002C000704700000FB47CB50C0009AA009001D063
:1002D0002044401E084B7B4469460190089800F07A
:1002E0008AFD05461CB10020694600F097FD2846AE
:1002F0007CBC5DF814FB00004D0B000070B504469B
:1003000085690068C10601D5302600E02026C007B7
:1003100007D070BDD4E9012130469047206A401CC7
:1003200020626D1EF6D570BD70B5044685690078F3
:10033000C00707D170BDD4E9012120209047206A71
:10034000401C20626D1EF6D570BD70B50C4605468A
:10035000012A05D02878800600D5EA69002302E04A
:10036000012305E05B1C934202D2E05C0028F9D136
:10037000A869E618C01AA861286A184428622846A5
:10038000FFF7BCFF04E0D5E9012114F8010B904709
:10039000B442F8D32846FFF7C7FF70BD2DE9F041FE
:1003A0000646002410687529314616A510D0AFF313
:1003B0000080002802DA404213A507E031688A076E
:1003C00001D512A502E0490704D511A5012401E0D9
:1003D000AFF3008000210A2206F1240709E0B0FBF8
:1003E000F2FCB0FBF2F302FB1C00303078541846EC
:1003F000491C0028F3D123462A463046BDE8F04187
:1004000000F08BBA000000002D0000002B0000005F
:100410002000000070B504460D4621461068AFF379
:1004200000802188090502D50F4A7A4402E00E4A6D
:100430007A440E32002104F1240305E000F00F0697
:100440000009965D5E54491C0028F7D120780023EE
:10045000000704D5702D02D009B1022311322046C5
:10046000BDE8704000F059BADE8000002DE9F05F71
:10047000894604464FF0000ADFF824B1FB44C0F877
:1004800020A02046E168884700287DD0252806D096
:10049000D4E901219047206A401C2062F1E7002541
:1004A0005F462046E16888472028064607DB312E54
:1004B00005D2B81910F8200C08B10543F1E7A807D8
:1004C00001D525F00405C4F81CA00027C4F818A025
:1004D0002A2E09D0304605F017FB38B304EB870805
:1004E000303EC8F8186019E059F8041B204604EBA8
:1004F00087029161E1688847012F064618D1E069BB
:10050000002820DA25F020051DE0D8F8180000EBBF
:10051000800006EB40003038C8F818002046E1683B
:100520008847064605F0F0FA0028EED1012F0AD0E0
:100530002E2E08D12046E16888477F1C0646022FF0
:1005400045F02005C4DBA069002803DA404245F0ED
:100550000105A061E80701D025F01005A6B1A6F1BC
:100560004100192802D8203645F400654A46314634
:10057000204625604D46FFF7F3FD60B1012807D006
:10058000ED1D25F0070000E007E000F1080978E71D
:1005900005F1040975E730467AE7206ABDE8F09F67
:1005A000B480000070B5064600F0A8F9046805465E
:1005B00030460A22002100F002F82C6070BD2DE9BF
:1005C000F04791460F4680460446002614F8015B2A
:1005D0002DB100F08BF90068405DC007F6D12B2DDE
:1005E00002D02D2D18D0641E4A463946204600F010
:1005F00038FC27B13968A14201D1C7F800804FF01B
:10060000020471050BD54042002803DD00F076F9A5
:100610000460A007BDE8F08746F48066E4E70028A0
:10062000F8DA00F06BF904606FF00040F2E710B503
:10063000431E13F8014F002CFBD105E011F8014BCC
:10064000002C03F8014B03D0521EF7D20021197081
:1006500010BD10B5431C02E010F8011B71B18107F9
:10066000FAD14FF0013202C88C1A8C4314EAC2113D
:10067000F9D0C01A0A0603D0C01E10BDC01A10BDA2
:100680000A0401D0801E10BD0902FCD0401E10BD1E
:1006900040EA010370B59B072ED14FF00136042AC2
:1006A0002AD308C810C99D1B9D43121F15EAC61501
:1006B00017D0D8B2E1B2401A50EA056110D198B211
:1006C000A1B2401A50EA05410AD123F07F4024F03C
:1006D0007F41401A50EA052102D1180EA0EB1460A8
:1006E00070BDA342DBD018BA21BA884201D90120DB
:1006F00070BD4FF0FF3070BD0AB9002070BD10F81A
:10070000013B11F8014B63B1A3420AD1521E08D03C
:1007100010F8013B11F8014B1BB1A34201D1521E4D
:10072000EDD1181B70BD032A40F2308010F0030C8D
:1007300000F0158011F8013BBCF1020F624498BF34
:1007400011F801CB00F8013B38BF11F8013BA2F1D1
:10075000040298BF00F801CB38BF00F8013B11F04C
:10076000030300F02580083AC0F0088051F8043BEC
:10077000083A51F804CBA0E80810F5E7121D5CBF59
:1007800051F8043B40F8043BAFF30080D20724BF8C
:1007900011F8013B11F801CB48BF11F8012B24BF20
:1007A00000F8013B00F801CB48BF00F8012B70476F
:1007B00010B5203AC0F00B80B1E81850203AA0E8FC
:1007C0001850B1E81850A0E81850BFF4F5AF5FEA30
:1007D000027C24BFB1E81850A0E8185044BF18C9E3
:1007E00018C0BDE810405FEA827C24BF51F8043B8A
:1007F00040F8043B08BF7047D20728BF31F8023BDE
:1008000048BF11F8012B28BF20F8023B48BF00F871
:10081000012B70474FF0000200B5134694469646F0
:10082000203922BFA0E80C50A0E80C50B1F1200103
:10083000BFF4F7AF090728BFA0E80C5048BF0CC0B1
:100840005DF804EB890028BF40F8042B08BF70470F
:1008500048BF20F8022B11F0804F18BF00F8012B81
:10086000704700004FF0013C50F8042B51F8043B56
:100870009A4221D1A2EB0C03934313EACC1317D174
:1008800050F8042B51F8043B9A4215D1A2EB0C030B
:10089000934313EACC130BD150F8042B51F8043BCB
:1008A0009A4209D1A2EB0C03934313EACC13DBD099
:1008B0004FF00000704700BFD01A01BAB1FA81F1C1
:1008C00001F0180122FA01F0CB40C1F12001DBB2A6
:1008D000C0B2C01A2CFA01F3D11A914311EAC31124
:1008E000E6D17047704770477047000010B500F0C0
:1008F0000BFB001D10BD00BFF971000000487047E0
:10090000D82C002010B5FFF7F9FF006810BD10B516
:100910000446FFF7F3FF046010BD2DE9F0470D46D4
:1009200099469246044600F124080168880604D5D9
:10093000E06921F01001216000E00120A84201DD02
:10094000471B00E00027A1697A1902EB0900081A89
:10095000A0612078C00602D42046FFF7CFFC002615
:1009600008E0D4E901211AF806009047206A401CEB
:10097000761C20624E45F4DB2078C0060AD520465E
:10098000FFF7BCFC06E0D4E9012130209047206A43
:10099000401C2062381EA7F10107F4DC07E0D4E90F
:1009A000012118F805009047206A401C2062281E8B
:1009B000A5F10105F3DC2046FFF7B6FC2078000620
:1009C00002D50220BDE8F0870120FBE770472DE942
:1009D000FF4F0C461E464FF0FF378BB0D2E90001A7
:1009E000DDF860800A908A46C1F30A5505B93D4694
:1009F000002108464FF00000BAF1000F00F440005B
:100A000005DA00EB80004FF4400101EA50004FEAA4
:100A10009059B9F1010F00DDB9460A9850EA4A0031
:100A20000ED044F61050A5F2FF3545432F14B8F10F
:100A3000000F1ED07542291E1EDDC9F100021CE008
:100A4000B8F1010F4FF0000001D0302103E0F24374
:100A500005E02154401CB042FBDB3046002200215F
:100A600021540B99C1F80880C1E900200FB0BDE8FE
:100A7000F08FBD1B6D1CDEE74A4600DA694206A80E
:100A800000F0DAFA06AB93E8070003AB83E807004F
:100A900050460A9900F077FB8DE80700A0F500505A
:100AA0001F3800900398002D0ADD42F21F014A46CC
:100AB0000844002303A90390684600F0E0FD09E024
:100AC000A0F500504A461F38002303A9039068464A
:100AD00000F0EAFD8DE807000004000C03D04FF0A1
:100AE000FF30410800E01046B8F1000F03D00022AB
:100AF000009215461EE0751E05D400F009FA30324A
:100B000062556D1EF9D5B3460122084302D000227A
:100B10007F1C04E02078302801D100227F1E002AAB
:100B2000099784D01DE0112D07DA00F0F1F9303279
:100B300062556D1C50EA0102F5D1084302D00098BD
:100B4000C8B10EE00021681E05E0235C625C6354BE
:100B50002254401E491C8142F7DBAB46A81B401EB5
:100B60000990002004F80B000B98099AC0F808803F
:100B7000C0E9002B7AE711264FF0000857E72DE96E
:100B8000F04F88460446D21D22F0070191B0D1E90A
:100B90000001CDE90A0104F07BFF02460B98C00F6B
:100BA00001D02D2007E02068810701D52B2002E02D
:100BB000202101EAC000032A099001D0072A05DBA1
:100BC00003464146204600F0E9F90BE12078800613
:100BD00001D5E06900E00620B8F1650F814606D036
:100BE000B8F1660F18D0B8F1670F70D131E000206E
:100BF000B9F1110F009001DB112301E009F10103AC
:100C00000AAA01A90CA8FFF7E2FEDDE90C70002694
:100C100009F10105834647E001204B4600904FF063
:100C200000470AAA01A90CA8FFF7D1FEDDE90DB023
:100C30000C995D46002610B909F101000D18B9EBB9
:100C4000050003D4C0F1FF3609F10105A5EB090049
:100C50002BE0B9F1010F01DA4FF001090020B9F1E1
:100C6000110F0090484601DD112300E003460AAA57
:100C700001A90CA8FFF7ABFEDDE90C704D4600267C
:100C80008346207800070AD4AB4500DA5D4601A808
:100C9000012D04DD411911F8011C302907D04F4501
:100CA00002DA17F1040F04DA012082460FE06D1E0C
:100CB000EEE7002F02DCED1B3E4403E0781CA84267
:100CC00000DD7D1CB81B00F1010A4FF000472078C1
:100CD000000703D4AA4501DB4FF0FF3A0021B7F12A
:100CE000004F0DF143088DF8431024D002202B2330
:100CF000002F01DA7F422D230A21021EA0F10100FC
:100D000000DC5FB197FBF1FC97FBF1F201FB1C7C6F
:100D100017460CF1300C08F801CDEEE7A8F1010000
:100D200003702188090501D5452100E06521A0F166
:100D3000010800F8011C09980FA9A1EB0807FF1D85
:100D400000B10120411901EBEA70A1693844081A89
:100D5000401EA0612078C00602D42046FFF7CEFADC
:100D6000099828B1D4E901219047206A401C2062EB
:100D70002078C00622D52046FFF7C0FA1EE0002EDC
:100D800004DBB34502DD01A8805D00E03020D4E93A
:100D900001219047206A401C2062761CAAF10100C4
:100DA0005FEA000A0AD100F0AFF8C0680168405C51
:100DB000D4E901219047206A401C2062281EA5F139
:100DC0000105DCDC07E0D4E9012118F8010B9047AC
:100DD000206A401C2062381EA7F10107F3DC204680
:100DE000FFF7A2FA032011B041E6000001694A1C96
:100DF00002610878704700B58FB0CDE9013100215C
:100E0000059105497944CDE9031011466846FFF77D
:100E10002DFB0FB000BD0000E5FFFFFF0A6802F8E0
:100E2000010B0A607047D1E900239A4202D2531C99
:100E30000B601070704710B5436913B1AFF30080B9
:100E400001E0FFF782FA012010BD127800F12401C1
:100E50000A7000224A700122EDE711684FF0FF325C
:100E6000E9E72DE9F05F824615468B4600270AF137
:100E70000104B9460078302801D09DB113E014F880
:100E8000010B0127782803D0582801D045B10AE08A
:100E90000DB1102D07D1002714F8010B102502E029
:100EA000082500E00A250026B0460EE005FB0800F4
:100EB00005FB06F101271FFA80F801EB1046B6F595
:100EC000803F00D3B94614F8010B294600F0A6F87C
:100ED0000028EBDABBF1000F05D00FB1641E00E073
:100EE0005446CBF80040B9F1000F06D0FFF706FDDD
:100EF00002210160C81EBDE8F09F48EA0640FAE7FB
:100F000000487047D82C002000487047F82C00207B
:100F100030B5B0F10A024FEA900E71F100034EEACB
:100F2000817EB0EB0E0061EB91014FEA101E4EEA9C
:100F3000017E10EB0E0041EB11114FEA102E4EEA2C
:100F4000016E10EB0E0041EB11214FEA104E4EEAFC
:100F5000014E10EB0E0041EB1141401841F1000130
:100F60004FEAD00040EA41704FEAD10110EB800512
:100F70004FEA810444EA907444EB01046D1944EB98
:100F80000404521BA3414FF0000348BF0A3200D5AE
:100F900030BD401C41F1000130BD00002DE9F041A1
:100FA0001F46044603260168072A01F4006004DB9B
:100FB00008B116A505E016A503E008B115A500E0E7
:100FC00015A521F010002060A069C01EA0610FB11E
:100FD000401EA0612046FFF791F94FB1D4E90121ED
:100FE00038469047206A401C2062C01C206206E000
:100FF000206AFAE7D4E9012115F8010B9047761E23
:10100000F8D22046FFF790F9BDE8F0814E414E003E
:101010006E616E00494E4600696E66003A2800D245
:10102000303820F02002412A01D3A2F13700884253
:1010300001D34FF0FF3070472DE9F0478146164647
:101040008AB0354878440DC88DE80D0032487844A0
:10105000801C03AC0DC884E80D0041F69B300844A9
:10106000372190FBF1F290FBF1F5A5F1800501FB32
:1010700012041B3C02D56442012000E00020DFF88E
:1010800098A080460027FA44AAF1BE0A0EE0E007C5
:101090000AD03246684607EB470101230AEB81017B
:1010A00000F002FB8DE8070064107F1C002CEED1DD
:1010B000194F7F44AE3F19E0E80715D007EB041045
:1010C0000DF1180A90E80E008AE80E00C068F042A0
:1010D00001D1981908903246012306A903A800F00F
:1010E000E3FA03AB83E807006D10641C002DE3D125
:1010F0004FF0010332466946B8F1000F03A802D051
:1011000000F0BDFA01E000F0CFFAC9E90001C9F82A
:1011100008200AB0BDE8F087BC7500007546FFF7EF
:10112000EFFEAE4605006946534620F007008546AF
:1011300018B020B5FFF7A0F8BDE820404FF000063A
:101140004FF000074FF000084FF0000B21F00701AF
:10115000AC46ACE8C009ACE8C009ACE8C009ACE8F2
:10116000C0098D46704710B50446AFF30080204695
:10117000BDE81040FFF720B801491820ABBEFEE7DC
:101180002600020070475FEA400C08BF91F0000F94
:101190004FEA8C234FEAC12243EA51514FEA1C50D7
:1011A00018BF00F5F0404FEA300018BF41F0004191
:1011B0005FEA6C5C00F02980BCF1FF3F08BF40F0A3
:1011C00080407047130C06BF12044FF0100C4FF014
:1011D000000C130E04BF12020CF1080C130F04BF15
:1011E00012010CF1040C930F04BF92000CF1020CDD
:1011F000D30F04BF52000CF1010C11464FF0000256
:10120000A0F11F00A0EB0C00704711F0004F08BFC9
:10121000704731F000413FF4D5AF0B0C06BF090415
:101220004FF0100C4FF0000C0B0E04BF09020CF134
:10123000080C0B0F04BF09010CF1040C8B0F04BF49
:1012400089000CF1020CCB0F04BF49000CF1010C1A
:10125000CCF12003A0EB0C0022FA03F302FA0CF20B
:1012600041EA030100F10100704720F07F4C80EA61
:10127000030023F07F47ACEB070303F57C5300F03A
:10128000004003F1FF032DE980494FEA154B09B4F3
:101290004FEA144325EA0B4E24EA03480FF20426D2
:1012A00006EB132749083E785FEA320203FB066724
:1012B000C7F5000707FB06F64FEA54374FEAD64654
:1012C00006F1020607FB066CCCF1005C4FEA1C47F6
:1012D0002CEA074C07FB06F40CFB06F504EB15465D
:1012E0004FEA961634BF00204FF000404FEAD13746
:1012F00006FB07FC4FEA1C4C0CFB0BF7D21B03FB55
:101300000CF761EB07010CFB0EF7B0EB074072EB3B
:1013100017420CFB08F734BFA2EB0742B2EB0742BF
:1013200061EB17414FEA0C444FEA910706FB07FCBB
:101330004FEA1C4C0CFB0BF7B0EBC74072EB57327B
:1013400003FB0CF734BFA2EBC742B2EBC74261EB21
:1013500057310CFB0EF7B0EBC70072EB57720CFB6A
:1013600008F734BFA2EBC702B2EBC70261EB5771BB
:10137000039F4FEA816141EA921104EBCC044FEAEA
:10138000D1374FEA826206FB07FC42EA90124FEA2D
:1013900080604FEA1C4C0CFB0BF7D21B03FB0CF7D5
:1013A00061EB07010CFB0EF7B0EB074072EB174245
:1013B0000CFB08F734BFA2EB0742B2EB074261EB2C
:1013C00017414FEA8C554FEA910704EB9C2406FB2A
:1013D00007FC4FEA1C4C0CFB0BF7B0EBC74072EB61
:1013E000573203FB0CF734BFA2EBC742B2EBC74244
:1013F00061EB57310CFB0EF7B0EBC70072EB577285
:101400000CFB08F734BFA2EBC702B2EBC70261EBDB
:10141000577115EB4C254FEA816141EA92114FEA71
:1014200082624FEAD13742EA901206FB07FC44F190
:1014300000044FEA80604FEA1C4C0CFB0BF7D21BF8
:1014400003FB0CF761EB07010CFB0EF7B0EB074059
:1014500072EB17420CFB08F734BFA2EB0742B2EB6A
:10146000074261EB174115EB1C154FEA813141EA48
:1014700092414FEA823242EA90424FEA80304FEA8C
:101480000C7644F1000448EA03434EEA0B484FF05F
:10149000000EB2EB080C71EB030724BF624639461D
:1014A0004EEB0E0E4FF0000B0018524149414BEB32
:1014B0000B0BB2EB080C71EB03077BF1000B24BFA5
:1014C000624639464EEB0E0E4FF0000B00185241AB
:1014D00049414BEB0B0BB2EB080C71EB03077BF1B3
:1014E000000B24BF624639464EEB0E0E51EA02074E
:1014F00018BF46F0010616EB0E7655F1000254F1C6
:10150000000103D5BDE88901BDE80088BDE8890177
:10151000BDE80048B619524141EB0101A3F10103B6
:10152000704780807F7E7D7C7B7A79787776767550
:101530007473727171706F6E6E6D6C6C6B6A6A69C8
:101540006868676666656464636362616160605F62
:101550005F5E5E5D5D5C5C5B5B5A5A5959585857DB
:101560005756565555555454535352525251515043
:1015700050504F4F4F4E4E4D4D4D4C4C4C4B4B4B96
:101580004A4A4A49494948484847474747464646DC
:101590004545454444444443434343424242424117
:1015A0004141002B9C4630D477002BD01CB54FEA2C
:1015B000370703B44FF010004FF01001BAF1000FDD
:1015C00006D0BCF1000FDCBF40F0080040F008017D
:1015D0004FF000000FBCBDE810400BF1010BBBF158
:1015E000010F08BF5FEA170722BF12F1010211F1D4
:1015F00001014FF0004143F1000300F0004043EAD5
:1016000000007047F9D35708D0E746EA064613F1C1
:10161000400F4FEA16461FDD13F1200FDFBF1643C0
:101620000A46002120335B42BED0C3F1200746EAC0
:10163000064602FA07F74FEA164646EA0706C3F1DE
:10164000200722FA03F201FA07F721FA03F14FF01B
:10165000000342EA0702A7E746EA020646EA064610
:101660004FEA164646EA0106BCBF46EA0646360C75
:101670004FF000034FF000024FF0000194E72DE916
:10168000804C9A46934670B491E8380007C831EA16
:10169000400C48BF34EA430C03D5FFF7E6FDFFF7E3
:1016A00080FFF0BCBDE8008C2DE9804C9A46934643
:1016B00070B491E8380007C810F0804F08BF13F0ED
:1016C000804F03D100F005F8FFF76BFFF0BCBDE8D9
:1016D000008C20F07F4780EA030023F07F4C07EB6B
:1016E0000C03A3F57C5300F00040A3F1FE0392F03D
:1016F000000F00F0B38095F0000F00F077802DE927
:1017000001494FEA11404FEA144621EA004800FB24
:1017100006FC24EA064708FB06F607FB08F800FB70
:1017200007F718EB06484CEB164C4FEA124B18EB38
:1017300007484FEA15464CEB174022EA0B4E0BFBCD
:1017400006FC25EA06470EFB06F607FB0EFE0BFB22
:1017500007F71EEB064E4CEB164C4FF000061EEB47
:10176000074E4CEB174B18EB0B0840F1000018EB41
:101770000E0B58EB000840F100008F1A4FF00001EB
:101780003CBFC943661B14BFB5EB040C00213CBF32
:10179000C943F61B4FEA17444EEA8E0E27EA04456A
:1017A0004FEA1C4704FB07622CEA074C05FB07F7CE
:1017B0000CFB05F604FB0CFC16EB074642EB17424C
:1017C00016EB0C4642EB1C421BEB060658EB0202E2
:1017D000414146EA9E0601D5BDE80189B61952414C
:1017E00041EB0101A3F10103BDE801894FEA144572
:1017F0004FEA114724EA054621EA074C05FB07F4A6
:1018000006FB07F70CFB06F105FB0CFC11EB07418F
:1018100044EB17444FEA124711EB0C4144EB1C44D4
:1018200022EA074C05FB07F206FB07F70CFB06F65E
:1018300005FB0CFC16EB074642EB174216EB0C4679
:1018400042EB1C456A1854F1000148BF7047B619B5
:10185000524141EB0101A3F10103704795F0000FE4
:1018600037D04FEA11424FEA144721EA024624EAF0
:10187000074C02FB07F106FB07F70CFB06F402FB23
:101880000CFC14EB074441EB17414FEA154714EBEE
:101890000C4441EB1C4125EA074C02FB07F506FB13
:1018A00007F70CFB06F602FB0CFC16EB074645EBB4
:1018B000174516EB0C4645EB1C42121951F100017D
:1018C00048BF7047B619524141EB0101A3F1010332
:1018D00070474FEA14454FEA114724EA054621EACA
:1018E000074C05FB07F106FB07F70CFB06F24FF070
:1018F000000605FB0CFC12EB074241EB174112EB13
:101900000C4251EB1C4148BF7047921841EB01015A
:10191000A3F1010370470000F0B591B00546042221
:101920006DA12846FEF7B4FE00286DD12E1D6CA1D6
:101930003046FEF797FF38B900F024FA69A240213B
:1019400001A8FEF7BFFC5EE06BA13046FEF78AFF00
:1019500048B945F2555000F0D5FF68A2402101A8D2
:10196000FEF7B0FC4FE06CA13046FEF77BFF48B9B4
:1019700042F6AA2000F0C6FF69A2402101A8FEF7A6
:10198000A1FC40E06DA13046FEF76CFF48B900F0C5
:1019900085FA07463B466BA2402101A8FEF792FC60
:1019A00031E005226FA13046FEF772FE78B90022C1
:1019B0001146701DFEF703FE84B2204600F0A2FF20
:1019C00023466AA2402101A8FEF77CFC1BE03046BA
:1019D000FEF7E8FD0446012C0EDB0F2C0CDC611E2B
:1019E00001228A4090B200F08DFF234667A2402179
:1019F00001A8FEF767FC05E033466BA2402101A871
:101A0000FEF760FC00BF5DE06EA12846FEF72AFFEE
:101A100038B900F029FB6DA2402101A8FEF752FC65
:101A200050E06FA12846FEF71DFF38B900F0B6F967
:101A30006DA2402101A8FEF745FC43E06FA12846B6
:101A4000FEF710FF38B900F027FB6EA2402101A875
:101A5000FEF738FC36E070A12846FEF703FF38B9E0
:101A600000F0B0F96EA2402101A8FEF72BFC29E09E
:101A700070A12846FEF7F6FE38B900F0EBFA6FA227
:101A8000402101A8FEF71EFC1CE073A12846FEF7CA
:101A9000E9FE38B900F07BF971A2402101A8FEF7F8
:101AA00011FC0FE025A12846FEF7DCFE20B97348A3
:101AB00000F00AFB11B0F0BD2B4671A2402101A835
:101AC000FEF700FC01A8FEF7C4FD84B2214601A880
:101AD00003F0F6FD00BFEDE762616C20000000003E
:101AE0006F6666005B434D445D2042616C616E63CE
:101AF00065204F46460D0A006F6464005B434D4409
:101B00005D2042616C616E6365204F4444206365D3
:101B10006C6C730D0A0000006576656E00000000B5
:101B20005B434D445D2042616C616E6365204556A8
:101B3000454E2063656C6C730D0A0000737461740C
:101B4000757300005B434D445D2042616C616E63C0
:101B500065206D61736B203D203078253034580D41
:101B60000A0000006D61736B200000005B434D4470
:101B70005D2042616C616E6365206D61736B2073E3
:101B80006574203078253034580D0A005B434D448D
:101B90005D2042616C616E63652063656C6C20251D
:101BA00064204F4E0D0A00005B4552525D20556E79
:101BB0006B6E6F776E2062616C206172673A2025D0
:101BC000730D0A00636867206F6E00005B434D442D
:101BD0005D20434847204D4F53204F4E0D0A0000D3
:101BE000636867206F6666005B434D445D20434831
:101BF00047204D4F53204F46460D0A00647367201F
:101C00006F6E00005B434D445D20445347204D4FB1
:101C100053204F4E0D0A0000647367206F66660004
:101C20005B434D445D20445347204D4F53204F4666
:101C3000460D0A006D6F73206F6E00005B434D44CC
:101C40005D204348472B445347204D4F5320414C80
:101C50004C204F4E0D0A00006D6F73206F666600BA
:101C60005B434D445D204348472B445347204D4F31
:101C70005320414C4C204F46460D0A00EC000020FA
:101C80005B4552525D20556E6B6E6F776E20636DB3
:101C9000643A2025730D0A0008B505F00BFC0546D3
:101CA00000BF4FF4FA720121002004F063FC4FF0F2
:101CB000FF311F48006805F0A7FA1E48007830B1D0
:101CC00000201C49087000F08DFC00F081FC00F041
:101CD0008DF820B300F034FE00F07AFC00F082FCB6
:101CE0001548D0F8B000092190FBF1F605F0E2FBB1
:101CF0000446671B2546104A009792F8C530D2F873
:101D0000B010D2F8BC00324603F03EF903F082F87E
:101D1000804698F80800084981F8B40000BF002305
:101D20001A4619460248006805F012F9B9E70000A2
:101D3000080000208C000020A82A002008B50120FF
:101D40000D4908700D480068A0B1002000906A4657
:101D500000210A48006804F0B1FD00BF009838B1C6
:101D60004FF0805006490860BFF34F8FBFF36F8F6D
:101D700000BF00BF08BD00008C00002090000020C4
:101D800004ED00E010B5002000F0BCFD10BD10B562
:101D90004021052001F0D8F810BD000010B501F079
:101DA0001FF8074890F8C60020B14221052001F035
:101DB000CBF803E04021052001F0C6F810BD00007B
:101DC000A82A002010B501F00BF8074890F8C500CC
:101DD00020B14121052001F0B7F803E040210520A2
:101DE00001F0B2F810BD0000A82A002010B50F487D
:101DF0000088052801DA012010BD01F055FE0446D7
:101E00000B480068201A40F6B831884201D2002001
:101E1000F2E70748046007480088401C054908802D
:101E200000F00AF800F058F80020E5E798000020DC
:101E30009C000020A0000020002004490860044904
:101E400008800120034908707047000094000020BA
:101E5000980000209A00002030B101210C4A117036
:101E600000210C4A118012E00021094A11700A4930
:101E70000968491C084A1160064909884FF6FF7233
:101E8000914204D203490988491C024A11807047D3
:101E90009A00002098000020940000202DE9F041D5
:101EA000012000F0AFFF00F01F05022000F0AAFFA4
:101EB00000F01F06032000F0A5FF00F01F0745EA11
:101EC000461040EA87240348A0F8C8402046BDE8F1
:101ED000F0810000A82A00202DE9F04387B0FFF729
:101EE000ABFF01221102514801F0D8FD642000F03F
:101EF000ABFE00224FF480714C4801F0CFFDC820AA
:101F000000F0A2FE4AA207CA04AB07C34BA207CA4D
:101F100001AB07C3002409E00A2000F095FE01AAE6
:101F2000115D04AA105D01F00FF8641C0C2CF3DBAA
:101F300000F036FF444D454991F9C41041F230128A
:101F4000501A05F0D9FF8146294605F0A3FE8046C8
:101F50004FF07C5105F02AFE044605F0ADFFC0F3BA
:101F600007163A4991F9C410C1F5166005F0C4FF8F
:101F70008146294605F08EFE80464FF07C5105F0E3
:101F800015FE044605F098FFC0F3071731460920F7
:101F900000F0DAFF39460A2000F0D6FFFF210620C4
:101FA00000F0D2FFFF21072000F0CEFFFF2100202C
:101FB00000F0CAFF002011E0002224493C3141F822
:101FC000202001223C310A540022103121F8102037
:101FD0004FF461611D4A42F82010401C0F28EBDBD2
:101FE00000201A49C1F8A800012081F8AC000020A7
:101FF000A1F8AE001648C1F8B800002406E0134A64
:1020000052F82410E0B200F0E9FC641C0F2CF6DB5F
:102010000E49D1F8B80000F02DFF00200B4981F8DF
:10202000B400FFF7AFFE07B0BDE8F0830008014041
:10203000000102030405060708090A0BFF0000005F
:1020400018430000000000192506C13EA82A002000
:102050000000C84110B5FF21002000F075FF4321AA
:10206000052000F071FF10BD10B5FF21002000F029
:102070006BFF00F0B5FE074890F8C60020B1432181
:10208000052000F061FF03E04121052000F05CFF26
:1020900010BD0000A82A002010B5FF21002000F08C
:1020A00053FF00F09DFE074890F8C50020B1432182
:1020B000052000F049FF03E04221052000F044FF25
:1020C00010BD0000A82A00202DE9F0479EB08146EF
:1020D000C7A240210EA8FEF7F5F80446A1B20EA84B
:1020E00003F0EEFA00251DE0C84830F81500C74996
:1020F0001039495DC54A4C3A52F82520C34B883BFC
:1021000053F82530CDE90032CDE902106B1CC0A296
:1021100040210EA8FEF7D6F80446A1B20EA803F09F
:10212000CFFA6D1C0F2DDFDBB8488838C3A24021E1
:10213000D0F8B0300EA8FEF7C5F80446A1B20EA83C
:1021400003F0BEFAB148883890F8B430BFA24021FD
:102150000EA8FEF7B7F80446A1B20EA803F0B0FA35
:1021600002F058FE82469AF80930BCA240210EA81F
:10217000FEF7A8F80446A1B20EA803F0A1FADAF817
:10218000040005F0E7FC05460E46DAF8000005F00D
:10219000E1FCB6A28DE8630040210EA8FEF792F89C
:1021A0000446A1B20EA803F08BFABAF80A000A217D
:1021B00090FBF1F201FB120590FBF1F63346B1A260
:1021C00040210EA80095FEF77DF80446A1B20EA8A6
:1021D00003F076FA8D488838B0F8C830ADA24021B7
:1021E0000EA8FEF76FF80446A1B20EA803F068FA35
:1021F00086488838B0F8C80030B9AAA240210EA895
:10220000FEF760F8044641E03022A94902A8FEF733
:10221000CFFA0126002525E07C488838B0F8C800B0
:102220000121A9400840E0B14EB902A8FEF711FA19
:10223000C0F12F073A469FA102A8FEF7F8F96B1CE0
:102240009DA206216846FEF73DF802A8FEF701FAB6
:10225000C0F12F073A46694602A8FEF7E8F90026C2
:1022600000BF6D1C0F2DD7DB02A8FEF7F2F9C0F1FD
:102270002F052A4691A102A8FEF7D9F902AB90A238
:1022800040210EA8FEF71EF8044600BFA1B20EA81A
:1022900003F016FA5D498839D1F8A80005F05AFC18
:1022A00005460E4659498839D1F8B80005F052FC68
:1022B0000746884655488838B0F8AE0053498839F3
:1022C00091F8AC107FA2CDE90078CDE90256CDE9B6
:1022D000041040210EA8FDF7F5FF0446A1B20EA898
:1022E00003F0EEF94948883881A24021D0F8BC308B
:1022F0000EA8FDF7E7FF0446A1B20EA803F0E0F92F
:102300004248883890F8C60008B17DA000E07DA062
:1023100000903E48883890F8C50008B178A000E0E9
:1023200078A0034678A240210EA8FDF7CBFF044613
:10233000A1B20EA803F0C4F97848C078774989782B
:10234000764A5278CDE9002102907448037874A24D
:1023500040210EA8FDF7B6FF0446A1B20EA803F077
:10236000AFF96E48C0796D4989796C4A5279CDE9E7
:10237000002102906948037971A240210EA8FDF75F
:10238000A1FF0446A1B20EA803F09AF91F488838AD
:1023900090F9C40000901D48883872A24021D0F8FE
:1023A000C0300EA8FDF78EFF0446A1B20EA803F0C0
:1023B00087F94FF080417348CDE902100A200423C9
:1023C00071A2402100900EA8FDF77CFF0446A1B247
:1023D0000EA803F075F977A240210EA8FDF772FF51
:1023E0000446A1B20EA803F06BF91EB0BDE8F08759
:1023F0000D0A3D3D3D3D3D20424D532044617461F9
:10240000203D3D3D3D3D0D0A00000000302B0020E9
:1024100043656C6C253032643A202564206D56206B
:10242000287261773D25642C206F6B3D25642C203C
:102430006261643D2575290D0A0000005061636BDF
:102440003A2020202564206D560D0A00534F433A50
:102450002020202025752025250D0A00534F483ABD
:102460002020202025752025250D0A004361703A83
:1024700020202020252E30662F252E3066206D410D
:10248000680D0A004379636C653A202025752E2576
:10249000750D0A0042616C3A2020202030782530EA
:1024A0003458000020286E6F6E65290D0A00000068
:1024B000448400082C00000025640000290D0A0057
:1024C0002573000054656D703A202020252E31665A
:1024D000204320287261773D252E31662C206F6BBA
:1024E0003D25642C206261643D2575290D0A00009C
:1024F000437572723A2020202564206D410D0A0038
:102500004F4E00004F4646004348473A202573206F
:10251000204453473A2025730D0A0000A2000020F2
:1025200050726F743A204F563D25642055563D2514
:1025300064204F433D2564204F543D25640D0A001F
:1025400048573A2020204F563D25642055563D25BA
:1025500064205343443D2564204F43443D25640D8E
:102560000A0000004741494E3A202020256420758A
:10257000562C204F66667365743A202564206D568C
:102580000D0A00003333D33F46696C7465723A20FC
:1025900077696E3D25642063656C6C5F64623D25E0
:1025A000646D562074656D705F64623D252E3166E2
:1025B000430D0A003D3D3D3D3D3D3D3D3D3D3D3DE5
:1025C0003D3D3D3D3D3D3D3D3D3D3D3D0D0A000018
:1025D00010B500F0C3FA00F0FDFA00F05FFA00F069
:1025E0008BFA10BD10B5002000F00CFC0446C4F3BB
:1025F000C00006494871C4F380000871C4F340006C
:10260000887104F00100C87110BD0000A200002014
:102610002DE9FE4F2348D0F8C0000290214890F9E0
:10262000C40001904FF000081E48B0F8C85025B112
:10263000FFF7A8FB052000F007FB002427E00C2093
:1026400000EB440000F0FF0909F1010000F0FF0A6F
:10265000484600F0D7FB0646504600F0D3FB07463D
:1026600047EA062000B200900299009848434FF4D0
:102670007A7190FBF1F1019801EB000BE0B2594641
:1026800000F0F8FA074850F824008044641C0F2C2E
:10269000D5DB0448C0F8B08015B1284600F032F907
:1026A000BDE8FE8FA82A00202DE9F84F002000F099
:1026B000A9FB82460AF0800008B9BDE8F88F8021A6
:1026C000002000F041FC322000F09CFB81463320CA
:1026D00000F098FB064646EA0924B4F5FA4F0BDCF5
:1026E000204605F021FC2D49009005F065FC83464D
:1026F00005F0C6FB05460CE04FF6FF71081B05F020
:10270000FBFB2649009005F057FC834605F0B8FB1B
:10271000454223482349097840F821502149097846
:10272000481CC11700EB91718910A0EB81011D4A73
:1027300011701D48007828B91046007810B90120A2
:102740001949087000271848007808B1042001E0F2
:10275000144800788046B8F1000F01D14FF001080D
:10276000002004E00E4951F820100F44401C404561
:10277000F8DB97FBF8F00D49C1F8BC000846D0F82B
:10278000BC0010F1030F07DB0846D0F8BC0003289B
:1027900002DC0020C1F8BC0000BF8EE73D0A074004
:1027A000A42C0020AC000020AD000020A82A0020AE
:1027B0002DE9F04F89B02C2000F024FB08902D204B
:1027C00000F020FB0790DDE9070140EA01200690B8
:1027D0004FF4BF71069848434FF47A7190FBF1F5BE
:1027E00040F6E440854200DB451E40F6E441481BCC
:1027F00005F082FB0590284605F07EFB37490490E2
:1028000005F0DAFB8346059905F044FA0646344F95
:10281000DFF8D080DFF8C490DFF8CCA0002130468C
:1028200005F096FC25D24946304605F033FA009073
:1028300003F0B2F98346414605F02CFA394602907E
:102840004FF07E5005F026FA0190029905F0AEF99E
:10285000014603904FF07E5005F01CFA514604905B
:1028600005F0A8FC4FF07C51059005F09FF9044657
:1028700000E01E4C1E48C0F8A840204600F07AFA3E
:1028800058B1204600F00CFB83461948C0F8B8B098
:102890000120174981F8AC001CE00020144981F8A0
:1028A000AC000846B0F8AE004FF6FF71884206D281
:1028B0000F48B0F8AE00401C0D49A1F8AE000C491D
:1028C000D1F8B800002105F0A7FA03D1094808495A
:1028D000C1F8B80009B0BDE8F08F000000401C4608
:1028E00033139543004053453393884300C079C464
:1028F000A82A00200000C841014908607047000074
:10290000900000202DE9F041044604F01F05C4F3B7
:102910004416C4F384272946012000F015FB3146F4
:10292000022000F011FB3946032000F00DFBC4F338
:102930000E000249A1F8C800BDE8F081A82A0020D5
:10294000F8B5FFF765FEFFF733FFFFF7ADFE002593
:10295000002400200BE0164951F82010B1F57A7FD1
:1029600004DD134951F820100D44641C401C0F284D
:10297000F1DB002C02DD95FBF4F001E04FF4616027
:1029800006464FF4FA700A4A009092F8C530D2F821
:10299000B010D2F8BC00324602F0F6FA02F03AFA71
:1029A000007A034981F8B40000F01AFAF8BD00007B
:1029B000A82A002010B504460021204605F0C8FAD8
:1029C00002D284F0004010BD2046FCE701460029F9
:1029D00001DA484270470846FCE700000A46042135
:1029E000074B19540021074B195400BF05E0064B53
:1029F00003EB001343F82120491C0429F7DB70473F
:102A0000642C0020732C0020742B00202DE9F04151
:102A100004460E4600271D4800EB04101C49095DC2
:102A200040F821601A48005D401C194908550846C5
:102A3000005D042801DB002008551648005D0428CD
:102A400004DA1448005D401C12490855002006E0D5
:102A50000E4901EB041151F820100F44401C0D49A0
:102A6000095D8142F4DC0B48005D97FBF0F50A49F3
:102A700051F82410681AFFF7A9FF0A2804DC064859
:102A800050F82400BDE8F0812846FBE7742B0020B5
:102A9000732C0020642C0020A82A002010B51448B4
:102AA000D0F8BC40002C00DA64421248807870B93B
:102AB00041F2883084420ADDFFF769F9FFF762F9D5
:102AC000FF21002000F040FA01200A4988700948DF
:102AD000807860B141F28830844208DAFFF7BAFAB0
:102AE000FF21002000F030FA00200249887010BD5C
:102AF000A82A0020A200002010B51448C07888B988
:102B00001349D1F8B800134905F022FB0AD2FFF7A8
:102B10003EF9FFF737F9FF21002000F015FA0120F8
:102B20000A49C8700948C07878B10949D1F8B80095
:102B3000094905F00DFA08D2FFF78CFAFF210020B1
:102B400000F002FA00200149C87010BDA200002068
:102B5000A82A00200000704200005C4210B51B480B
:102B60000078B8B9002413E0194850F8240041F265
:102B7000680188420BDDFFF711F9FFF703F9FF2128
:102B8000002000F0E1F901201049087010BD641C1C
:102B90000F2CE9DB0D480078A8B1002008E00C49B3
:102BA00051F8201041F20402914200DBEEE7401C94
:102BB0000F28F4DBFFF758FAFF21002000F0C4F9DA
:102BC00000200249087000BFE0E70000A2000020DA
:102BD000A82A002010B51A484078B0B9002412E0A5
:102BE000184850F82400B0F52F6F0BDAFFF7EAF819
:102BF000FFF7C8F8FF21002000F0A6F901201049D6
:102C0000487010BD641C0F2CEADB0D484078A0B161
:102C1000002007E00B4951F82010B1F52F6F00DCC0
:102C2000EFE7401C0F28F5DBFFF736FAFF21002005
:102C300000F08AF900200249487000BFE1E7000077
:102C4000A2000020A82A002070B5044604F022FC4F
:102C500001280AD04FF47A7060434FF47A71B0FBC8
:102C6000F1F5284603F0FCFD02E0204600F082FC6E
:102C700070BD00002DE9F04104460D46344840F88F
:102C80002450284600F068F800283ED030483C30F8
:102C9000005D68B32E483C3850F82400002827DD3A
:102CA0002B483C3850F82400B0F5616F20D02849FB
:102CB0003C3951F82410681AFFF788FE07461E2F8A
:102CC00012DD2448005D401C224908550846005D7D
:102CD000032801DABDE8F08129462046FFF77EFE91
:102CE00000201C49085502E000201A49085500BF81
:102CF00029462046FFF78AFE064615483C3840F82C
:102D00002460012178300155E4E7002110483C306F
:102D10000155103030F814004FF6FF71884209D287
:102D20000B484C3030F81400401C81B208484C303D
:102D300020F8141006483C3850F8240028B94FF405
:102D4000616003493C3941F8240000BFC2E700003C
:102D5000E42A0020942C00200146B1F5FA6F01DA34
:102D60000020704741F29410814201DD0020F8E715
:102D70000120F6E710B504460749204605F0E8F8BB
:102D800001D2002010BD0549204605F0E1F901D22D
:102D90000020F7E70120F5E7000020C20000F04224
:102DA0002DE9F041502000F02DF80446592000F0A4
:102DB00029F80546512000F025F8064604F00C00DD
:102DC000400000EB551707F26D100449C1F8C00030
:102DD00070B281F8C400BDE8F0810000A82A00208C
:102DE00010B5052000F00EF80446C4F34000044975
:102DF00081F8C60004F0010081F8C50010BD000094
:102E0000A82A002070B50446002502F0CBFA20B9AC
:102E10000020FFF721F8002070BD102002F08EFA8C
:102E200002F014FB00B91DE0204602F087FA02F020
:102E30000DFB00B916E002F0B5FA00B912E011205E
:102E400002F07CFA02F002FB00B90BE002F044FA57
:102E5000054602F01FFA02F0D7FA0120FEF7FCFF48
:102E60002846D9E702F0D0FA0020FEF7F5FF00204F
:102E7000D2E7000001460420064A10700020064AEE
:102E8000107000BF03E0054A42F82010401C0428DF
:102E9000F9DB7047AA000020AB000020842C002042
:102EA0002DE9F0410546002722482349097840F8DA
:102EB000215021480078401C1F49087008460078BE
:102EC000042801DB002008701C480078042804DA7C
:102ED0001A480078401C19490870002407E015487A
:102EE00050F82410384604F061FE0746641C13486D
:102EF00000788442F3DB1148007805F015F80446A9
:102F00002146384604F0C6FE06460D48D0F8B810F3
:102F1000304605F04FF98046FFF74CFD044609495D
:102F200005F016F804D80648D0F8B800BDE8F081DE
:102F30003046FBE7842C0020AB000020AA000020D4
:102F4000A82A00209A99993EF8B505460C4610200B
:102F50008DF800008DF801508DF802400722032102
:102F6000684600F036F8064602F01CFA18B9002050
:102F7000FEF772FFF8BD102002F0E0F902F066FAE9
:102F800000B91DE0284602F0D9F902F05FFA00B955
:102F900016E0204602F0D2F902F058FA00B90FE02C
:102FA000304602F0CBF902F051FA00B908E002F025
:102FB0002BFA0120FEF750FF0A20FFF745FED9E764
:102FC00002F022FA0020FEF747FF00BFD2E700BF61
:102FD000FEE770B503460C46002016E0802111E0A4
:102FE00000F080051DB14506280E504001E0450661
:102FF000280E1D780D4005B150400D4601EBD576E9
:10300000C6F347010029EBD15B1C251EA4F1010684
:10301000F4B2E3D170BD000010B5024800F05AF9D7
:1030200010BD00003401002030B590F8405001245C
:10303000AC40C56B6C60046863604468102C04D1BC
:103040000468A2600468E16003E00468A1600468A9
:10305000E26030BD704710B5042000F079FB10BD70
:1030600072B600BFFEE700000021074AD1610749A0
:10307000096941F00401054A11611146096941F0ED
:103080004001116170470000882A002000200240A2
:103090000021074AD1610749096941F00201054A47
:1030A000116111464861096941F0400111617047A1
:1030B000882A0020002002400022054BDA61054AE0
:1030C000126942F00102034B1A610180704700004F
:1030D000882A00200020024000201E49C96801F013
:1030E000100139B11C49C96941F002011A4AD16184
:1030F00040F010001749C96801F0040139B11649C0
:10310000C96941F00101144AD16140F0040011493C
:10311000C96901F0010169B10F49C96941F00401B0
:103120000D4AD16100BF0B49C96921F00101094A6B
:10313000D16100BF00BF40F20111884206D10549AC
:10314000C96921F00101034AD16101E00149C86068
:1031500000BF704700200240882A002070B5044656
:1031600000F0A2FC054609E0601C38B124B100F073
:103170009BFC401BA04201D9032070BD1248C068CF
:1031800000F001000028EFD10F48C06800F02000D7
:1031900020B100BF20200C49C86000BF0A48C068A9
:1031A00000F0100048B90848C06900F0010020B9DB
:1031B0000548C06800F0040018B1FFF78DFF01203A
:1031C000DBE70020D9E70000002002400146002292
:1031D00091F82100022808D00420886300BF002055
:1031E00081F8200000BF012070470868006820F0C7
:1031F0000E000B6818600868006820F001000B687A
:10320000186091F8403001209840CB6B5860012045
:1032100081F8210000BF002081F8200000BF104687
:10322000E2E7000070B50446002594F8210002286A
:1032300003D00420A063012548E02068006820F046
:103240000E00216808602068006820F001002168F5
:1032500008601F492068884201D1012026E01C49EE
:1032600014312068884201D110201FE0184928310C
:103270002068884201D1801518E015493C3120684A
:10328000884201D1801411E01149503120688842F0
:1032900002D14FF4803009E00D4964312068884242
:1032A00002D14FF4801001E04FF0807008490839D6
:1032B0004860012084F8210000BF002084F820002D
:1032C00000BF606B10B12046616B8847284670BD17
:1032D0000800024070B50446E06B05682068066887
:1032E00094F84010042088402840002846D006F07A
:1032F0000400002842D02068006800F0200028B9AF
:103300002068006820F004002168086057492068A0
:10331000884201D1042027E05449143120688842B2
:1033200001D1402020E0514928312068884201D154
:10333000001519E04D493C312068884202D14FF414
:10334000804011E0494950312068884202D14FF451
:10335000802009E0454964312068884202D14FF459
:10336000800001E04FF08060404908394860E06A21
:1033700000287AD02046E16A884776E094F8401029
:10338000022088402840A0B306F0020088B32068DD
:10339000006800F0200040B92068006820F00A00B2
:1033A00021680860012084F82100304920688842A3
:1033B00001D1022028E02D4914312068884201D132
:1033C000202021E0294928312068884201D1401578
:1033D0001AE026493C312068884202D14FF400505F
:1033E00012E0224950312068884203D14FF4003066
:1033F0000AE017E01D4964312068884202D14FF489
:10340000001001E04FF0007018490839486000BF13
:10341000002084F8200000BFA06A30B32046A16AD3
:10342000884722E094F84010082088402840E0B106
:1034300006F00800C8B12068006820F00E0021687E
:10344000086094F8401001208840E16B486001203A
:10345000A06384F8210000BF002084F8200000BF92
:10346000206B10B12046216B884770BD08000240D8
:103470000146002209B901207047164B0868C01A9E
:103480001423B0FBF3F08000086412480838C863C6
:10349000022081F821000868026843F6F070824338
:1034A000D1E901031843CB6818430B6918434B69F2
:1034B00018438B691843CB691843024308680260BC
:1034C00000208863012081F82100002081F820007D
:1034D00000BFD1E7080002402DE9F04104460D4647
:1034E00016461F464FF0000800BF94F82000012840
:1034F00002D10220BDE8F081012084F8200000BF45
:1035000094F8210001282CD1022084F82100002009
:10351000A0632068006820F00100216808603B4635
:10352000324629462046FFF77FFDE06A30B1206829
:10353000006840F00E00216808600BE02068006819
:1035400020F00400216808602068006840F00A004C
:10355000216808602068006840F001002168086068
:1035600006E000BF002084F8200000BF4FF00208F2
:103570004046BFE770B5044600F096FA0646254679
:10358000681C10B104480078054400BF00F08CFAB4
:10359000801BA842FAD370BD840000202DE9F041C1
:1035A00004460E460127002500BF2648007E01285C
:1035B00002D10220BDE8F08101202249087600BF37
:1035C0002068022813D14CF25030FFF7C7FD90BBA2
:1035D0000120FFF749FD4CF25030FFF7BFFD0746D1
:1035E0001948006920F004001749086123E04CF2F3
:1035F0005030FFF7B3FDF0B94FF0FF303060A568F1
:1036000012E02846FFF744FD4CF25030FFF7A6FDCC
:1036100007460D48006920F002000B4908610FB110
:10362000356007E005F58065D4E9021001EB8020E4
:10363000A842E6D800BF00BF00200249087600BFBC
:103640003846B7E7882A0020002002400348006976
:1036500040F08000014908610020704700200240CE
:103660002DE9FE4F05468B46174698460126002455
:103670000020029000BF2448007E012802D10220D1
:10368000BDE8FE8F01202049087600BF4CF2503083
:10369000FFF764FD064686BB012D02D10120029092
:1036A00006E0022D02D10220029001E004200290E7
:1036B00000241EE02201B946C24648465146FCF7A6
:1036C000EDFD80B20190022000FB04B00090019952
:1036D000FFF7F2FC4CF25030FFF740FD06460B4876
:1036E000006920F001000949086106B104E0601C8E
:1036F000C4B202988442DDDB00BF00BF0020024953
:10370000087600BF3046BBE7882A00200020024030
:1037100000200849096901F0800151B10649054AB4
:103720005160064951601146096901F0800101B1FB
:10373000012070470020024023016745AB89EFCD8F
:1037400010B50446042C01D1FEF7F8FA10BD0000B4
:1037500010B5044604480068204020B102480460C7
:103760002046FFF7EDFF10BD140401402DE9F84796
:103770000346002294466EE14FF0010808FA02F475
:10378000D1F8008008EA0400A0427DD1DFF8DCA275
:10379000D1F80480A8EB0A09D0453AD014DCB8F17E
:1037A000030F50D009DCB8F1000F31D0B8F1010F90
:1037B0001CD0B8F1020F49D120E0B8F1110F18D098
:1037C000B8F1120F42D11EE0B9F5881F25D006DCF2
:1037D000B9F5803F20D0B9F5801F37D11AE0B9F58F
:1037E000001F18D0B9F5041F30D117E0D1F80CC074
:1037F0002DE0D1F80C8008F1040C28E0D1F80C8001
:1038000008F1080C23E0D1F80C8008F10C0C1EE044
:1038100000BF00BF00BF00BF00BF00BFD1F80880DD
:10382000B8F1000F02D14FF0040C0BE0D1F8088082
:10383000B8F1010F03D14FF0080C1C6102E04FF00A
:10384000080C5C6103E04FF0000C00E000BF00BF1B
:10385000FF2801D8984601E003F104084646FF28F6
:1038600002D84FEA820803E0A2F108084FEA88086C
:103870004746D6F800804FF00F0909FA07F928EA01
:1038800009080CFA07F900E088E048EA0908C6F8D8
:103890000080D1F8048008F08058B8F1805F7DD1B5
:1038A00000BFDFF8CC81D8F8188048F00108DFF8B5
:1038B000C091C9F81880C846D8F8188008F00108E7
:1038C000CDF8008000BF00BF4FEAB9384FEA920937
:1038D00058F829504FEA82784FEA18794FF00F08CC
:1038E00008FA09F825EA0805DFF88881434502D17E
:1038F0004FF0000816E0DFF88081434502D14FF019
:1039000001080FE0DFF87481434502D14FF002084F
:1039100008E0DFF86C81434502D14FF0030801E075
:103920004FF004084FEA82794FEA197908FA09F84A
:1039300048EA0505DFF84C814FEA920948F829501A
:10394000D1F8048008F48018B8F5801F0AD1DFF898
:103950003881D8F8008048EA0008DFF82C91C9F8CF
:10396000008009E0DFF82081D8F8008028EA00080C
:10397000DFF81491C9F80080D1F8048008F4001829
:10398000B8F5001F10D1DFF8008108F10408D8F85D
:10399000008048EA0008DFF8F09000E05AE009F102
:1039A0000409C9F800800DE0DFF8DC8008F10408A4
:1039B000D8F8008028EA0008DFF8CC9009F1040963
:1039C000C9F80080D1F8048008F40038B8F5003F49
:1039D0000ED1DFF8B480A8F10408D8F8008048EAD6
:1039E0000008DFF8A490A9F10409C9F800800DE0EF
:1039F000DFF89480A8F10408D8F8008028EA0008CD
:103A0000DFF88490A9F10409C9F80080D1F8048096
:103A100008F48038B8F5803F0ED1DFF86C80A8F14B
:103A20000808D8F8008048EA0008DFF85C90A9F19F
:103A30000809C9F800800DE0DFF84C80A8F10808FB
:103A4000D8F8008028EA0008DFF83C90A9F10809BE
:103A5000C9F80080521CD1F8008028FA02F8B8F1A9
:103A6000000F7FF489AEBDE8F88700000000111058
:103A70000010024000080140000C0140001001400D
:103A80000014014008000140080401400246936808
:103A90000B400BB1012000E0002070470AB101612A
:103AA00001E00B04036170470148006870470000A3
:103AB0007C00002070B504460CB9012070BD4CF6A6
:103AC000CC402168086045F2555021680860D4E96F
:103AD000001048602168A0688860FFF7E5FF054690
:103AE0000DE0FFF7E1FF401B41F23C31884206D96F
:103AF0002068C06800F0030008B10320DEE72068FA
:103B0000C06800F003000028EBD14AF6AA20216823
:103B100008600020D2E701464AF6AA200A68106031
:103B200000207047034800680349097808440149A8
:103B3000086070477C0000208400002010B5084811
:103B4000006840F0100006490860032000F0DCF82F
:103B5000012000F007F800F05FF8002010BD000021
:103B6000002002402DE9F04188B004460027B84605
:103B7000002600BF2348C06940F002002149C86107
:103B80000846C06900F00200019000BF00BF02A912
:103B900003A800F093F9069F1FB900F0B7F9054696
:103BA00002E000F0B3F945001748B5FBF0F0A0F1D2
:103BB000010816481649086040F2E7311448C16010
:103BC000C0F80480002101618160816100F02AFC5D
:103BD000064696B90E4800F059FC06466EB91D20FF
:103BE00000F044F8102C07D2002221461D2000F0DE
:103BF0004DF80848046000E00126304608B0BDE8F2
:103C0000F08100000010024040420F00000400401C
:103C1000780100208000002008B500BF11488069AD
:103C200040F001000F4988610846806900F00100FA
:103C3000009000BF00BF00BF0846C06940F0805040
:103C4000C8610846C06900F08050009000BF00BF06
:103C500000BF0549486820F0E06040F0007048600F
:103C600000BF08BD001002400000014001460846A8
:103C7000002809DB00F01F0301229A4043099B0042
:103C800003F1E023C3F8002100BF70472DE9F05F86
:103C900080460D461646002701F00EFF07463946BE
:103CA0002A46334601F00700C0F1070ABAF1040FB3
:103CB00002D94FF0040A01E0C0F1070AD14600F131
:103CC000040ABAF1070F02D24FF0000A01E0A0F196
:103CD000030AD4464FF0010A0AFA09FAAAF1010AC6
:103CE0000AEA020A0AFA0CFA4FF0010B0BFA0CFB73
:103CF000ABF1010B0BEA030B4AEA0B0421464046E9
:103D000001F0E2FEBDE8F09F00BF00F00702064BA5
:103D100019684FF6FF031940044B0B4343EA022195
:103D2000014B196000BF70470CED00E00000FA0580
:103D300070B504460D460CB9012070BD5A480068A4
:103D400000F00700A8420ED25748006820F0070094
:103D50002843554908600846006800F00700A8425B
:103D600001D00120E9E7207800F0020002281DD1EF
:103D7000207800F00400042805D14C48406840F445
:103D8000E0604A494860207800F00800082805D122
:103D90004648406840F460504449486043484068A1
:103DA00020F0F000A168084340494860207800F006
:103DB000010078B36068012806D13C48006800F42F
:103DC000003090B90120B8E76068022806D1374872
:103DD000006800F0007040B90120AEE73348006889
:103DE00000F0020008B90120A7E73048406820F041
:103DF0000300616808432D494860FFF755FE0646F9
:103E000009E0FFF751FE801B41F28831884202D958
:103E1000032092E707E02548406800F00C00616845
:103E2000B0EB810FEDD12048006800F00700A842F8
:103E30000ED91D48006820F0070028431A49086081
:103E40000846006800F00700A84201D0012074E78E
:103E5000207800F00400042807D11448406820F4BA
:103E6000E060E168084311494860207800F00800EC
:103E7000082808D10D48406820F46050216940EAC4
:103E8000C1000A49486000F061F808494968C1F377
:103E90000311074A515CC84006490860064800689B
:103EA000FFF760FE002048E70020024000100240BB
:103EB0009483000888000020800000200F22026008
:103EC0000D4A526802F0030242600B4A526802F047
:103ED000F0028260084A526802F4E062C260064A58
:103EE000526802F46052D2080261044A126802F079
:103EF00007020A60704700000010024000200240E4
:103F000001480068704700008800002000B5FFF7F6
:103F1000F7FF04494968C1F30221034A515CC840D4
:103F200000BD000000100240A483000800B5FFF7A8
:103F3000E7FF04494968C1F3C221034A515CC84004
:103F400000BD000000100240A483000870B50021ED
:103F50000022002400230020134D696801F00C05A5
:103F6000F5B1042D02D0082D19D101E00F4819E058
:103F70000F4DC1F38346AB5D01F4803555B10A4D59
:103F80006D68C5F340450B4E725D084D5D43B5FB52
:103F9000F2F402E0084D03FB05F4204602E000BF06
:103FA000024800BF00BF70BD0010024000127A003E
:103FB000828300089283000800093D00F8B504469A
:103FC0000CB90120F8BD207800F00100002878D05D
:103FD000F848406800F00C0004280CD0F548406810
:103FE00000F00C00082811D1F248406800F480303D
:103FF000B0F5803F0AD1EF48006800F40030002897
:104000005FD0606800285CD10120DBE700BF6068FA
:10401000B0F5803F06D1E748006840F48030E549BC
:10402000086028E0606858B9E248006820F48030F1
:10403000E04908600846006820F4802008601AE023
:104040006068B0F5A02F0BD1DA48006840F48020FA
:10405000D84908600846006840F4803008600AE0EB
:10406000D448006820F48030D249086008460068CF
:1040700020F48020086000BF606888B1FFF714FD5D
:10408000054606E0FFF710FD401B642801D9032018
:1040900098E7C848006800F400300028F2D010E02B
:1040A000FFF702FD054606E0FFF7FEFC401B642813
:1040B00001D9032086E7BF48006800F400300028DB
:1040C000F2D1207800F00200022857D1B9484068A8
:1040D00000F00C0050B1B748406800F00C00082810
:1040E00018D1B448406800F4803098B9B1480068ED
:1040F00000F0020020B12069012801D0012061E711
:10410000AC48006820F0F800616940EAC100A949A4
:10411000086033E02069E8B10120A7490860FFF793
:10412000C3FC054606E0FFF7BFFC401B022801D98F
:10413000032047E79F48006800F002000028F2D003
:104140009C48006820F0F800616940EAC100994984
:10415000086013E0002098490860FFF7A5FC0546B9
:1041600006E0FFF7A1FC401B022801D9032029E744
:104170009048006800F002000028F2D1207800F09A
:10418000080008282DD1A069B8B101208B4908602A
:10419000FFF78AFC054606E0FFF786FC401B022875
:1041A00001D903200EE78348406A00F0020000288E
:1041B000F2D0012000F01AFE13E000207F490860D1
:1041C000FFF772FC054606E0FFF76EFC401B022875
:1041D00001D90320F6E67748406A00F00200002883
:1041E000F2D1207800F00400042873D10027714830
:1041F000C06900F0805070B900BF6E48C06940F0DF
:1042000080506C49C8610846C06900F08050009039
:1042100000BF00BF01276A48006800F48070B0B991
:104220006748006840F4807065490860FFF73CFC0F
:10423000054606E0FFF738FC401B642801D903203F
:10424000C0E65F48006800F480700028F2D000BF2C
:10425000E068012806D15748006A40F0010055493E
:10426000086227E0E06858B95248006A20F001006F
:10427000504908620846006A20F00400086219E00C
:10428000E06805280BD14B48006A40F0040049491A
:1042900008620846006A40F0010008620AE04548EA
:1042A000006A20F00100434908620846006A20F0D5
:1042B0000400086200BFE068A0B1FFF7F5FB054607
:1042C00009E0FFF7F1FB401B41F28831884202D937
:1042D000032077E622E03748006A00F00200002859
:1042E000EFD012E0FFF7E0FB054608E0FFF7DCFB4C
:1042F000401B41F28831884201D9032062E62D48F3
:10430000006A00F002000028F0D1012F05D12948F1
:10431000C06920F080502749C86100BFE069C8B378
:104320002448406800F00C00082860D0E0690228AA
:1043300048D1002020490866FFF7B6FB054606E095
:10434000FFF7B2FB401B022801D903203AE61948C7
:10435000006800F000700028F2D1206AB0F5803FBC
:1043600007D11448406820F40030A168084311497F
:104370004860D4E9080108430E49496821F47411E2
:1043800008430C49486001200B490866FFF78CFB85
:10439000054607E03DE0FFF787FB401B022801D9F7
:1043A00003200FE60348006800F000700028F2D0F8
:1043B0002FE0000000100240000042428004424210
:1043C00000700040002014490866FFF76DFB0546A9
:1043D00006E0FFF769FB401B022801D90320F1E545
:1043E0000E48006800F000700028F2D111E0E0698A
:1043F000012800D1E6E50948466806F48031206AC4
:10440000814204D106F47011606A814201D001201A
:10441000D8E50020D6E5000000004242001002402E
:104420007047704710B504460CB9012010BD94F8D0
:104430003D0028B9002084F83C00204600F025F813
:10444000022084F83D00211D206801F075F801204C
:1044500084F8460000BF84F83E0001213F2001554A
:10446000402001554120015500BF00BF012084F8C4
:10447000420043200155442001554520015500BF0D
:10448000012084F83D000020D0E77047014691F8F4
:104490003D00012801D001207047022081F83D0035
:1044A0000868C06840F001000B68D860124B0868CB
:1044B00098420BD00868B0F1804F07D00F4B0868C6
:1044C000984203D00E4B086898420CD10868806867
:1044D00000F00702062A0CD00868006840F00100CE
:1044E0000B68186005E00868006840F001000B6880
:1044F00018600020D0E70000002C014000040040BC
:1045000000080040704770B504462068C568206800
:10451000066906F00200022819D105F002000228FF
:1045200015D1401F2168086101202077206880692B
:1045300000F0030018B12046FFF7E4FF05E0204635
:1045400000F097F8204600F095F80020207706F05C
:104550000400042819D105F00400042815D1C04333
:1045600021680861022020772068806900F440708B
:1045700018B12046FFF7C6FF05E0204600F079F8A5
:10458000204600F077F80020207706F00800082881
:1045900019D105F00800082815D1C0432168086129
:1045A000042020772068C06900F0030018B120467D
:1045B000FFF7A8FF05E0204600F05BF8204600F07A
:1045C00059F80020207706F01000102819D105F0C6
:1045D0001000102815D1C0432168086108202077F9
:1045E0002068C06900F4407018B12046FFF78AFFC8
:1045F00005E0204600F03DF8204600F03BF80020A2
:10460000207706F0010048B105F0010030B16FF0ED
:10461000010021680861204600F02EF806F08000B5
:10462000802809D105F08000802805D1C043216889
:1046300008612046FFF7F4FE06F04000402809D14B
:1046400005F04000402805D1C0432168086120469C
:1046500000F01EF806F02000202809D105F0200007
:10466000202805D1C043216808612046FFF7D9FE04
:1046700070BD70477047000010B5044603492068BC
:10468000884201D1FFF74EFA10BD0000000400403F
:1046900070477047704700002DE9F84F04462068C6
:1046A00005682068C668206847694FF00009CA4657
:1046B00005F00F09B9F1000F0AD105F0200038B15B
:1046C00006F0200020B1204601F069F8BDE8F88F1F
:1046D000B9F1000F7BD007F0010018B906F4907013
:1046E000002874D005F0010030B106F4807018B1D4
:1046F000606C40F00100606405F0040030B107F028
:10470000010018B1606C40F00200606405F0020026
:1047100030B107F0010018B1606C40F00400606433
:1047200005F0080048B106F0200010B907F00100BC
:1047300018B1606C40F008006064606C002845D0DF
:1047400005F0200028B106F0200010B1204601F04D
:1047500026F820684069C0F3801A606C00F00800F9
:1047600010B9BAF1000F2CD0204600F0BFFF20682E
:10477000406900F0400000B300BF00BF2168143161
:1047800051E8001F21F040002168143141E8000287
:10479000002AF3D100BFE06B50B17748E16B48636A
:1047A000E06BFEF73FFD88B1E06B416B88470DE0A1
:1047B0002046FFF76FFF09E009E02046FFF76AFF98
:1047C00004E02046FFF766FF002060647EE7206B70
:1047D000012877D105F01000002873D006F01000F2
:1047E0000028FAD000BF00200090206800680090E8
:1047F00020684068009000BF00BF2068406900F05A
:10480000400000285FD0E06B006840681FFA80F825
:10481000B8F1000F55D0A08D404552DDA4F82E8090
:10482000E06B8069202843D000BF00BF21680C31B5
:1048300051E8001F21F4807021680C3141E800022A
:10484000002AF3D100BF00BF00BF2168143151E836
:10485000001F21F001002168143141E80002002A04
:10486000F3D100BF00BF00BF2168143151E8001F21
:1048700021F040002168143141E80002002AF3D100
:1048800000BF202084F842000020206300BF00BF4A
:1048900021680C3151E8001F21F0100021680C3113
:1048A00041E80002002AF3D100BFE06BFEF78EFC66
:1048B00002206063A08DE28D801A81B22046FFF74E
:1048C000E8FE03E742E0A08DE18D401A1FFA80F870
:1048D000E08DD0B3B8F1000F37D000BF00BF216822
:1048E0000C3151E8001F21F4907021680C3141E82F
:1048F0000002002AF3D100BF00BF00BF21681431BD
:1049000051E8001F21F001002168143141E8000244
:10491000002AF3D100BF202084F842000020206349
:1049200000BF00BF21680C3151E8001F21F01000CA
:1049300021680C3141E80002002AF3D100BF0220B7
:10494000606341462046FFF7A4FEBFE605F0800005
:1049500030B106F0800018B1204601F05FF8B5E6EE
:1049600005F0400030B106F0400018B1204600F0DC
:10497000F3FEABE600BFA9E6DD55000810B504461E
:104980000CB9012010BDA06900B100E000BF94F88F
:10499000410028B9002084F84000204600F02AF8A1
:1049A000242084F841002068C06820F40050216869
:1049B000C860204600F072FF2068006920F4904033
:1049C000216808612068406920F02A002168486158
:1049D0002068C06840F400502168C860002060640E
:1049E000202084F8410084F842000020606300BF6A
:1049F000C8E7000010B586B004460020029003907E
:104A0000049005902A49206888424FD100BF294868
:104A1000806940F48040274988610846806900F435
:104A20008040019000BF00BF00BF0846806940F091
:104A3000040088610846806900F00400019000BF0E
:104A400000BF48150290022003900320059002A9A0
:104A50001948FEF78BFE4FF480600290002003900F
:104A6000049002A91448FEF781FE14481449086016
:104A7000102048600021124881608021C16000211F
:104A8000016141618161C161FEF7F2FC08B1FEF78D
:104A9000E7FA00BF0A48A063446200BF0022062173
:104AA0002520FFF7F3F82520FFF7E0F806B010BD4A
:104AB000003801400010024000080140440002405C
:104AC0003401002070B504460D46164694F84200A5
:104AD00020280BD105B10EB9012070BD0020206344
:104AE00032462946204600F063FFF6E70220F4E74D
:104AF00010B5044618492068884200D010BD1748F8
:104B000000780D2803D0154800780A280FD11448E2
:104B10000078002819DD00211248114A12788154CA
:104B200001201149087000200D4908700DE00C4863
:104B300000782F2809DA09480178094802780078B6
:104B4000401C074B1870074881540122034907484D
:104B5000FFF7B8FF00BFD1E7003801400C0000208C
:104B60000D000020BC0000200E000020EC00002002
:104B7000F7B50446154694F84100202836D101982F
:104B800000B10DB90120FEBD01982062A584E58425
:104B900000206064212084F841001548A16B8862E0
:104BA0001448A16BC8621448A16B08630020A16B74
:104BB000486301AE23681A1D31682B46A06BFEF7CF
:104BC0008BFC6FF040002168086000BF00BF2168C7
:104BD000143151E8001F41F080002168143141E890
:104BE0000002002AF3D100BF0020CCE70220CAE770
:104BF0004156000899560008F155000838B504469A
:104C00000C492068884213D10020009069460A4868
:104C1000006802F071FA00BF009838B14FF0805080
:104C200006490860BFF34F8FBFF36F8F00BF00BF0F
:104C300038BD0000003801401000002004ED00E005
:104C4000704700BFFEE7322001E0411EC8B20028D5
:104C5000FBD1704708B500BF0A48406940F0010029
:104C6000084948610846406900F00100009000BF13
:104C700000BF002206210E20FFF708F80E20FEF7E5
:104C8000F5FF08BD0010024000B585B0002001907E
:104C900002900390049000BF3648806940F01000F5
:104CA000344988610846806900F01000009000BF18
:104CB00000BF00BF0846806940F0200088610846B8
:104CC000806900F02000009000BF00BF00BF0846D0
:104CD000806940F0080088610846806900F008009B
:104CE000009000BF00BF00BF0846806940F004008C
:104CF00088610846806900F00400009000BF00BF92
:104D0000002289151C48FEF7C9FE00224FF44071AD
:104D10001A48FEF7C3FE04200190194802900020B3
:104D2000039001A91548FEF721FD4FF48070019012
:104D300001200290002003900320049001A90E4856
:104D4000FEF714FD4FF440700190112002900020F6
:104D500003900320049001A90848FEF707FD0022F4
:104D600011460820FEF792FF0820FEF77FFF05B0EE
:104D700000BD00000010024000080140000C01408E
:104D80000000211010B5074807490860042048605A
:104D900040F6FF7104488160FEF78CFE08B1FEF713
:104DA0005FF910BD00300040B000002010B50B4886
:104DB0000B4908604FF4E1304860002108488160E9
:104DC000C16001610C21416100218161C161FFF776
:104DD000D5FD08B1FEF744F910BD000000380140D0
:104DE000EC00002000BFFEE700BFFEE708B5084961
:104DF0000968C9084FF47A72B1FBF2F1414300919E
:104E000000BF00BF00994A1E00920029F9D108BDD9
:104E10008800002000487047B42C002070B5242181
:104E20002A48FBF7F7FC2A482849486029480860C7
:104E300000F082FE25490868002103F089F802D2BB
:104E4000002022490860214A5168106803F080F967
:104E500003D21E4840681D4908601C4908681E4965
:104E600003F0AAF8064619484168304602F012FFDE
:104E700005464FF07C5102F099FE044603F01CF801
:104E8000124908720846007A642801DD642008721D
:104E90000E494868104903F08FF806460C4902F0A5
:104EA000F9FE05464FF07C5102F080FE044603F007
:104EB00003F8064948720846407A642801DD6420F8
:104EC0004872024800680149086270BDB42C002095
:104ED00000409C4600401C460000C842024600219B
:104EE0000AE0074850F83100904204DC044800EB27
:104EF000C10000797047491C1329F2D30020F9E75B
:104F000074840008F0B58BB01C4806901C480068FB
:104F100007901B484068089019484089ADF8240064
:104F20000020ADF8260006A800F0F5FD0A90FEF777
:104F3000EFFB002002901348049001200590002010
:104F4000019001A902A8FEF729FB06AF0D4D002430
:104F500009E037F814603246002329460120FEF7A5
:104F60007FFBAD1C641C0A2CF3D3FEF76FFB0448D7
:104F70000068034908620BB0F0BD000021434F53A5
:104F8000B42C002000FC00082DE9F84F044615461B
:104F900098460A9E304602F0C7FF8346204602F03C
:104FA000ABFF80F0004A5946504603F005F807462B
:104FB000924902F06FFE814691490868494602F025
:104FC000F5FD8F490860002C29DA304602F0ACFF6D
:104FD0008346604202F090FF5946009002F0ECFFD9
:104FE0008246864902F056FE07468549C86839461A
:104FF00002F0DCFD8249C8600AE08149C868814945
:1050000003F0D8F87E49C860084640890A304881D4
:105010007B49C8687B4903F09BF8EED900BF14F1C7
:10502000320F33DD322C31DA75480069304474496F
:1050300008610846006947F23051884229D3284662
:10504000FFF74CFF0090009802F06EFF83466C481B
:105050004168584602F0B0FF82466B4902F01AFEE2
:10506000074667480168384603F0A4F88346674955
:1050700002F0A2FF824662480168504602F096FDA7
:105080005F49086047F23050086102E000205C4947
:105090000861B8F1000F4CD0002C4ADA6042C828F1
:1050A00047DA41F23600854243DB5548007D00284F
:1050B0003BD0534A9169106803F07CF80090544942
:1050C000009803F045F82CD25249009802F040FFB6
:1050D00027D25149009802F06FFF074648494868B7
:1050E0004E4902F069FF8246394602F05FFD4449AD
:1050F00048604868444902F05FFF8346414902F036
:10510000C9FD82464FF07C5102F050FD074602F087
:10511000D3FE3B4948720846407A642801DD64208A
:10512000487200203649087500BF35484068344948
:105130000860B5F52F6F08DC002D06DD0020304932
:10514000086001200875002088612D490868002149
:1051500002F0FEFE02D2002029490860284A516868
:10516000106802F0F5FF03D2254840682449086022
:1051700023490868244902F01FFF834620484168FC
:10518000584602F087FD82464FF07C5102F00EFD3A
:10519000074602F091FE1A4908720846007A642810
:1051A00001DD642008721648C06930441449C861A2
:1051B0000846C0694EF6602188421CD30020104981
:1051C000C8610A46116A106802F0F4FF0746002120
:1051D000384602F0BDFE01D287F000470849486812
:1051E0000F4902F0E9FE8246394602F0B1FE01D8CD
:1051F000FFF788FE00BFBDE8F88F000000BA5B4AE9
:10520000B42C002000409C460000C842CDCCCC3DD0
:1052100000401C460060EA46CDCC4C3ECDCC4C3F15
:105220000AD7233C00B585B000200190029003907E
:10523000049000BF1548806940F008001349886158
:105240000846806900F00800009000BF00BF881584
:10525000019011200290002003900320049001A9E6
:105260000B48FEF783FA4FF40070019001A908483B
:10527000FEF77CFA012211020548FEF70FFC01221D
:1052800051020348FEF70AFC05B000BD00100240C1
:10529000000C014010B500224FF480710D48FEF75C
:1052A000FDFBFFF7D0FC012251020A48FEF7F6FB96
:1052B000FFF7C9FC012211020648FEF7EFFBFFF7DA
:1052C000C2FC00224FF480710248FEF7E7FBFFF7B3
:1052D000BAFC10BD000C014070B508250024012265
:1052E00051021548FEF7DAFB18E06006040E0022B2
:1052F0004FF480711048FEF7D1FBFFF7A4FC0122A8
:1053000011020D48FEF7CAFBFFF79DFC4FF4007138
:105310000948FEF7BBFB08B144F00104281EA5F1C3
:105320000101CDB2E1D100224FF480710248FEF7B5
:10533000B5FB204670BD0000000C014070B504466E
:10534000082521E000224FF480711548FEF7A6FBE6
:10535000FFF779FC04F0800028B1012251021048C7
:10536000FEF79CFB05E000224FF400710C48FEF7AD
:1053700095FB6006040EFFF766FC01221102084847
:10538000FEF78CFBFFF75FFC281EA5F10101CDB2F3
:10539000D8D100224FF480710148FEF77FFB70BD29
:1053A000000C014010B5012251021648FEF776FBB1
:1053B000012211021348FEF771FBFFF744FC4FF482
:1053C00000711048FEF762FB08B9002010BD0022F2
:1053D0004FF400710B48FEF761FBFFF734FC4FF40C
:1053E00000710848FEF752FB08B10020EEE70022EA
:1053F0004FF400710348FEF751FBFFF724FC012036
:10540000E4E70000000C014010B500224FF4807169
:105410000D48FEF743FBFFF716FC00224FF4007126
:105420000948FEF73BFBFFF70EFC0122110206487C
:10543000FEF734FBFFF707FC012251020248FEF79A
:105440002DFBFFF700FC10BD000C014010B5002241
:105450004FF480711448FEF721FBFFF7F4FB0122A3
:1054600051021148FEF71AFBFFF7EDFB0122110272
:105470000D48FEF713FBFFF7E6FB4FF400710A48F7
:10548000FEF704FB38B100224FF480710648FEF7A6
:1054900005FB002010BD00224FF480710248FEF78A
:1054A000FDFA0120F6E70000000C014010B501F004
:1054B000F1FF012801D001F07FFC10BD00B58FB0D5
:1054C000282105A8FBF7A6F914216846FBF7A2F9E5
:1054D000092005904FF480300690002007900120AD
:1054E00009900B9002200C90C1030D914FF4E01134
:1054F0000E9105A8FEF762FD08B1FDF7B1FD0F2082
:10550000009002200190002002904FF480600390F0
:105510000020049002216846FEF70AFC08B1FDF75E
:105520009FFD0FB000BD704710B50248FEF7EBFFBE
:1055300010BD00007801002010B502681C4B984295
:1055400008D0B0F1804F05D01A4B984202D01A4BC8
:10555000984203D122F070024B681A43144B9842D0
:1055600008D0B0F1804F05D0124B984202D0124BB8
:10557000984203D122F44072CB681A4322F0800390
:105580004C6943EA040202608B68C3620B68836261
:10559000074B984201D10B690363012343610369FF
:1055A00003F001031BB1036923F00103036110BD84
:1055B000002C0140000400400008004010B50548E0
:1055C000007828B10020034908700348FCF7A4F9CB
:1055D00010BD00000E000020BC00002070B5054684
:1055E0006C6A0020E085E0842046FFF753F870BD28
:1055F00070B506460025746A20684069C0F3C0157E
:1056000094F84100212805D125B10020E0842046EE
:1056100000F0B2F820684069C0F3801594F84200A9
:10562000222805D125B10020E085204600F05EF853
:10563000606C40F0100060642046FFF72BF870BDEE
:1056400070B505466C6A2868006800F02000F8B95B
:105650000020E08400BF00BF2168143151E8001F22
:1056600021F080002168143141E80002002AF3D1C2
:1056700000BF00BF00BF21680C3151E8001F41F09E
:10568000400021680C3141E80002002AF3D102E019
:105690002046FFF7B3FA70BD70B50446656A284628
:1056A000FFF7CEFA70BD000010B5032200210120E3
:1056B00001F0ADFB0149086010BD000010000020A2
:1056C00070B504460D4605B104B970BD2A462146A1
:1056D0000448FFF74DFAC8210348006801F094FD23
:1056E00000BFF2E7EC0000201000002000BF00BF68
:1056F00002680C3252E8002F22F4907102680C32DA
:1057000042E80013002BF3D100BF00BF00BF0268C6
:10571000143252E8002F22F001010268143242E8EC
:105720000013002BF3D100BF016B01290ED100BF84
:1057300000BF02680C3252E8002F22F0100102680C
:105740000C3242E80013002BF3D100BF202180F877
:10575000421000210163704710B504462068C068FC
:1057600020F040002168C860202084F841002046D5
:10577000FFF744FA002010BD00BF00BF02680C32E2
:1057800052E8002F22F0C00102680C3242E80013F8
:10579000002BF3D100BF202180F841107047F8B5ED
:1057A000044694F84200222875D1A068B0F5805FC5
:1057B0000CD1206950B90025A66A20684068C0F362
:1057C00008003080A06A801CA06215E0A56A00264F
:1057D000A068B0F5805F03D0A06828B9206918B927
:1057E00020684068287004E02068406800F07F006E
:1057F0002870A06A401CA062E08D401E80B2E08547
:10580000002846D12068C06820F020002168C860C8
:105810002068C06820F480702168C86020684069F2
:1058200020F0010021684861202084F84200002017
:105830006063206B012826D10020206300BF00BFD9
:1058400021680C3151E8001F21F0100021680C3153
:1058500041E80002002AF3D100BF2068006800F090
:10586000100010280AD100BF0020009020680068B6
:10587000009020684068009000BF00BFA18D2046C6
:10588000FEF707FF02E02046FFF732F90020F8BDDF
:1058900001E00020FBE70220F9E7000070B50446B4
:1058A0002168096921F44051E268114322681161BD
:1058B0002269A1681143626941EA02052168C96849
:1058C00041F20C62914329432268D1602168496901
:1058D00021F44071A2691143226851612D4A216867
:1058E000914202D1FEF722FB01E0FEF70FFB00EB35
:1058F000C00101EB001162689200B1FBF2F100EB14
:10590000C00202EB001263689B00B2FBF3F2642357
:10591000B2FBF3F202EBC20303EB0212A1EB820132
:10592000322202EB01116422B1FBF2F101F0F0012D
:1059300000EBC00202EB001263689B00B2FBF3F2C3
:105940006423B2FBF3F201EB021200EBC00101EBA6
:10595000001163689B00B1FBF3F100EBC00303EBA4
:1059600000136668B600B3FBF6F36426B3FBF6F3E8
:1059700003EBC30606EB0313A1EB8301322303EB16
:1059800001116423B1FBF3F101F00F01114422680E
:10599000916070BD0038014010B5012202490348F2
:1059A000FFF790F810BD00000C000020EC00002074
:1059B00010B5034699629A85DA8500205864222042
:1059C00083F84200186928B11868C06840F48070F4
:1059D0001C68E0601868406940F001001C68606164
:1059E0001868C06840F020001C68E060002010BD0E
:1059F00000BF4FF0FF310848006801F005FCFFF7D9
:105A0000DDFD00231A4619460348006801F0A0FA9C
:105A1000322000F025FFECE708000020014691F855
:105A20004100212828D18868B0F5805F0BD1086932
:105A300048B90A6A1088C0F308000B685860086A01
:105A4000801C086205E00B6A581C086218780B6815
:105A50005860C88C401E80B2C88458B90868C068B5
:105A600020F080000B68D8600868C06840F04000F3
:105A70000B68D860002070470220FCE710B5024890
:105A8000FEF70AFE10BD0000EC00002000BFFEE79C
:105A9000490050EAC12018BF04204A0D18BF40F049
:105AA000010040F2FF72B2EB515F08BF40F002000C
:105AB000012808BF0520704702480068C0F3022093
:105AC000704700000CED00E010B5002804DB0A0769
:105AD000130E054A135406E00A07140E034A00F099
