:020000040800F2
:1000000040060020A1010008713200089F29000865
:100010006D3200083D060008013A000800000000AB
:100020000000000000000000000000006D34000827
:100030004106000800000000753200086F34000817
:10004000BB010008BB010008BB010008BB010008A0
:10005000BB010008BB01000843060008BB01000803
:10006000BB010008BB010008BB010008BB01000880
:10007000BB010008BB010008BB010008BB01000870
:10008000BB010008BB010008BB010008BB01000860
:10009000BB010008BB010008BB010008BB01000850
:1000A000BB010008BB010008BB010008BB01000840
:1000B000BB010008BB010008BB010008BB01000830
:1000C000BB010008BB010008BB010008BB01000820
:1000D000BB010008F1390008BB010008BB010008A2
:1000E0004D060008BB010008BB010008BB01000869
:1000F000BB010008BB010008BB010008BB010008F0
:10010000BB010008BB010008BB010008BB010008DF
:10011000BB010008BB010008BB010008BB010008CF
:10012000BB010008BB010008BB010008BB010008BF
:10013000BB010008BB010008BB010008BB010008AF
:10014000BB010008BB010008BB010008BB0100089F
:10015000BB010008BB010008BB010008BB0100088F
:10016000BB010008BB010008BB010008BB0100087F
:10017000BB010008BB010008BB0100080000000033
:10018000BB010008BB010008DFF810D000F07CF8CC
:1001900000480047613C0008AFF3008040060020A3
:1001A0000648804706480047FEE7FEE7FEE7FEE711
:1001B000FEE7FEE7FEE7FEE7FEE7FEE7293500087B
:1001C000890100082DE9F05F0546002092469B4614
:1001D00088460646814640241BE02846414647465D
:1001E000224600F041F853465A46C01A914110D3B6
:1001F00011461846224600F028F82D1A67EB010830
:100200004F4622460120002100F01FF817EB00099D
:100210004E41201EA4F10104DFDC484631462A4647
:100220004346BDE8F09FD2B201E000F8012B491E21
:10023000FBD270470022F6E710B513460A46044683
:100240001946FFF7F0FF204610BD202A04DB203AB4
:1002500000FA02F1002070479140C2F1200320FA19
:1002600003F3194390407047202A04DB203A21FA17
:1002700002F00021704721FA02F3D040C2F12002BF
:100280009140084319467047064C074D06E0E06868
:1002900040F0010394E8070098471034AC42F6D3CD
:1002A000FFF776FFA43C0008C43C000810B50848DE
:1002B0000078FF2802D102F0AFFE08E00448007881
:1002C000CC2802D102F06EFE01E002F031FE10BD3A
:1002D000300000201CB512A003F05EFC032201A92F
:1002E000102003F08FFB9DF806009DF8051040EAF2
:1002F000012443F64D4084420BD00CA000680090CE
:1003000003226946102003F0A3FB052000F08CFBBC
:1003100000BF9DF80400A52801D1054908701CBD47
:10032000424C2053746172740D0A00005A3C4D0017
:100330003000002008B51B480078A5280CD15A21B0
:10034000102003F071FB052000F06EFB16A003F0F7
:1003500023FC00F0CFF824E012480078FF2813D1E6
:1003600015A003F019FC00F0A5F817A00068009094
:1003700003226946102003F06BFB052000F054FBBC
:1003800012A003F009FC0CE006480078CC2803D149
:1003900013A003F001FC04E016A003F0FDFBFFF73F
:1003A00085FF08BD300000205570646174696E6778
:1003B0002E2E2E0D0A000000466163746F727920A4
:1003C00072657365740D0A005A3C4D004661637492
:1003D0006F7279207265736574204F4B0D0A0000AF
:1003E00043414E20757064617465206D6F64650DC6
:1003F0000A0000004A756D70204150500D0A00003F
:1004000010B541F2883000F00FFB10BD7CB508201C
:100410001F4900231A46CDE900101946184603F07B
:1004200055FB1B48007800061949497840EA01400D
:100430001749897840EA01201549C97840EA010442
:100440001348007900061249497940EA01401049F1
:10045000897940EA01200E49C97940EA0105B4F5DD
:10046000805F02D3B4F1807F04D30AA003F094FB31
:1004700001207CBDB5F5FA7F02D3B5F5804F04D9D4
:1004800008A003F089FB0120F3E70020F1E700005A
:100490002C010020496E76616C696420616464728D
:1004A0000D0A0000496E76616C6964206C656E0D02
:1004B0000A00000000B587B000F072FB0020019038
:1004C000029003200490012005900220069001A9CB
:1004D00002A800F0BDFA10B103A003F05DFB00F02C
:1004E0000DFB07B000BD00004572617365206572A9
:1004F000720D0A002DE9F04F87B0FFF787FF28B192
:1005000041A003F049FB07B0BDE8F08F42480078F6
:1005100000064149497840EA01403F49897840EA6C
:1005200001203D49C978084306903B480079000600
:100530003949497940EA01403749897940EA01203F
:100540003549C97940EA0107FFF7B4FF00F028FBFD
:100550000024DFF8C8804EE04FF48079381BFF2874
:1005600002D8381B1FFA80F906980619C6F3074A05
:10057000C6F303300590C6F303200490F0B2039055
:10058000FF22511C2648FFF74EFE2548CDE9000901
:100590005046DDE90332059903F098FA09F10300AA
:1005A00020F0030080B2029000251FE01C48415D4E
:1005B0000246681C105C41EA0021A81C105C41EA5C
:1005C0000041E81C105C41EA006B5A46002341469A
:1005D000022000F09DFA28B112A003F0DDFA00F02D
:1005E0008DFA90E708F10408281D85B2029885422B
:1005F000DCDB4C4400BFBC42AED300F07FFA0CA061
:1006000003F0CAFA00BF7EE7436865636B2066614A
:10061000696C0D0A000000002C01002000C00008D9
:100620003C0100205772697465206572720D0A00E2
:10063000557064617465204F4B0D0A0000BFFEE7E2
:10064000704710B5012000F0D5FA10BD10B54FF479
:10065000005000F0CFFA10BD72B600BFFEE70000F8
:1006600010B5002201B909E0012901D10A0205E013
:10067000022901D10A0201E04FF440720E4B1B68BF
:1006800023F440730C4C236023461B681343236000
:1006900023461B6823F07803236023461B6802244B
:1006A00044EAC0042343044C236023461B6843F4FC
:1006B0008033236010BD0000103C02401C480068DD
:1006C00000F40070B0B11A48006820F400701849B6
:1006D000086000BF0846006840F4006008600846F3
:1006E000006820F40060086000BF0846006840F41D
:1006F000007008600E48006800F48060B0B10C48DB
:10070000006820F480600A49086000BF084600685D
:1007100040F4805008600846006820F4805008606B
:1007200000BF0846006840F4806008607047000021
:10073000003C02400A4A126822F44072084B1A60D8
:100740001A46126842F004021A601A4612684FF400
:10075000803343EA00231A43014B1A6070470000BC
:10076000103C0240074A126822F44072054B1A609E
:100770001A4612681A601A46126842F001021A609C
:1007800001707047103C024010B50A49096821F415
:100790004071084C21602146096841F44071216094
:1007A0002146096841F0010121600260BFF36F8FAB
:1007B000436010BD103C0240084A126822F44072A7
:1007C000064B1A601A46126842F480721A601A4682
:1007D000126842F001021A6001807047103C02402A
:1007E000084A126822F44072064B1A601A461268D0
:1007F00042F400721A601A46126842F001021A604E
:1008000001607047103C02402348006800F010006F
:1008100040B12248C06940F010002049C861102052
:100820001D4908601C48006800F0200040B11B48CA
:10083000C06940F008001949C861202016490860C5
:100840001548006800F0400040B11448C06940F00D
:1008500004001249C86140200F4908600E48006832
:1008600000F0800040B10D48C06940F002000B4923
:10087000C8618020084908600748006800F002004D
:1008800040B10648C06940F020000449C861022018
:1008900001490860704700000C3C02400000002045
:1008A00070B50446002500201449C86100F0B0FA74
:1008B000054609E0601C38B124B100F0A9FA401BDC
:1008C000A04201D9032070BD0D48006800F48030BB
:1008D0000028EFD10A48006800F0010010B10120A3
:1008E000074908600648006800F0F20018B1FFF7F9
:1008F0008BFF0120E7E70020E5E700000000002073
:100900000C3C024070B50446A56D00F081FA064625
:1009100094F83500022808D08020606500BF0020D0
:1009200084F8340000BF012070BD2068006820F00A
:100930001600216808602068406920F08000216866
:100940004861206C08B9A06C28B12068006820F0CC
:100950000800216808602068006820F00100216814
:10096000086010E000F054FA801B05280BD9202005
:100970006065032084F8350000BF002084F834004F
:1009800000BF0320D0E72068006800F001000028C5
:10099000E8D194F85C103F208840A860012084F8DA
:1009A000350000BF002084F8340000BF00BFBBE763
:1009B000014691F83500022803D0802048650120C7
:1009C0007047052081F835000868006820F00100B4
:1009D0000A6810600020F3E710B50F480F4908605F
:1009E000002008600E48091D0860002008600D48BE
:1009F0000A491039086000200860C120091D0860FC
:100A0000002008600120091D08600020086000F037
:100A1000B7FD002010BD0000FFC9FEF620380240DF
:100A200033797704FF11602270B5044600F0F0F9C5
:100A300006462546681C10B104480078054400BFEE
:100A400000F0E6F9801BA842FAD370BD2800002010
:100A50002DE9F04104460F46002600BF2548007EE0
:100A6000012802D10220BDE8F08101202149087649
:100A700000BF4CF25030FFF713FF0546002D31D177
:100A8000401E3860206801280FD1207C6168FFF784
:100A900051FE4CF25030FFF703FF05461648006840
:100AA00020F00400144908601AE0A66812E0217CD6
:100AB0003046FFF7D5FD4CF25030FFF7F1FE05460A
:100AC0000D48006820F07A000B4908600DB13E60C7
:100AD00005E0761CD4E902100844B042E7D800BF14
:100AE000FFF7ECFD00BF00200249087600BF284652
:100AF000B9E7000000000020103C024003480068F5
:100B000040F000400149086000207047103C02405E
:100B10002DE9F0410646884614461D4600BF1E4892
:100B2000007E012802D10220BDE8F08101201A498F
:100B3000087600BF4CF25030FFF7B2FE07461FBBED
:100B400026B9E1B24046FFF70DFE12E0012E04D1B6
:100B5000A1B24046FFF730FE0BE0022E04D1214641
:100B60004046FFF73DFE04E022462B464046FFF795
:100B70000BFE4CF25030FFF793FE07460748006823
:100B800020F001000549086000BF002002490876F6
:100B900000BF3846C8E7000000000020103C0240BB
:100BA00000200949096801F0004159B10749064A86
:100BB0000C3A1160064911600349096801F00041CF
:100BC00001B1012070470000103C0240230167453D
:100BD000AB89EFCDB0F5005F03D1FF21044A11705E
:100BE00004E0012802D1CC21014A117070470000B5
:100BF0003000002010B5044604480068204020B1B1
:100C0000024804602046FFF7E5FF10BD143C014098
:100C1000F8B502460B460025002400200021D6E04E
:100C2000012606FA01F51E6806EA0504AC4274D1F5
:100C30001E7906F00306012E04D01E7906F0030685
:100C4000022E13D190684F000326BE40B0434F00E0
:100C5000DE68BE4030439060506801268E40B0434D
:100C60001E79C6F300168E40304350601E7906F0A0
:100C70000306032E09D0D0684F000326BE40B043C0
:100C80004F009E68BE403043D0601E7906F00306D8
:100C9000022E13D1CF0802F1200656F827004E0786
:100CA000F70E0F26BE40B0434F07FF0E1E69BE4031
:100CB0003043CF0802F1200646F8270010684F00A5
:100CC0000326BE40B0431E7906F003064F00BE4027
:100CD000304310605E6806F44036002E76D000BFC8
:100CE000002600963C4E366846F480463A4F3E60F9
:100CF0003E46366806F48046009600BF00BF374E79
:100D00008F0856F827008E07370F0F26BE40B043D6
:100D1000334EB24202D1002624E057E0314EB242B7
:100D200001D101261EE0304EB24201D1022619E067
:100D30002E4EB24201D1032614E02D4EB24201D113
:100D400004260FE02B4EB24201D105260AE02A4EBE
:100D5000B24201D1062605E0284EB24201D1072653
:100D600000E008268F073F0FBE4030431B4E8F0820
:100D700046F82700224E3068A0435E6806F48016CD
:100D800006B120431E4E3060361D3068A0435E68B9
:100D900006F4001606B12043194E361D3060184E79
:100DA000361F3068A0435E6806F4003606B1204363
:100DB000134E361F3060361F3068A0435E6806F45D
:100DC000803606B120430E4E083E3060491C102983
:100DD000FFF426AFF8BD0000443802400838014057
:100DE000000002400004024000080240000C0240E3
:100DF000001002400014024000180240001C024093
:100E0000083C01400AB1816101E00B048361704735
:100E100001480068704700002000002070B50446BB
:100E20000CB9012070BD94F83D0028B9002084F869
:100E30003C00204600F010FB242084F83D00206890
:100E4000006820F00100216808602068006840F414
:100E50000040216808602068006820F40040216894
:100E6000086000F0E1FC05465C496068884206D8ED
:100E70005B48854201D2012007E0002005E0594887
:100E8000854201D2012000E00020012800D1C9E7FD
:100E90005548B5FBF0F62068406820F03F0030432D
:100EA000216848604D496068884201D8701C07E09D
:100EB0004FF4967070434FF47A71B0FBF1F0401C20
:100EC0002168096A21F03F0108432168086243490B
:100ED0006068884214D8681E61684900B0FBF1F070
:100EE000401CC0F30B00042801D204203DE0681E22
:100EF00061684900B0FBF1F0401CC0F30B0034E026
:100F0000A06838B9681E616801EB4101B0FBF1F0DF
:100F1000401C0AE0681E616801EBC10202EB01118E
:100F2000B0FBF1F0401C40F48040C0F30B0008B966
:100F300001201AE0A06848B9681E616801EB410110
:100F4000B0FBF1F0401CC0F30B000CE0681E6168C0
:100F500001EBC10202EB0111B0FBF1F0401CC0F348
:100F60000B0040F4804040F400402168C9694CF611
:100F7000FF72914308432168C861D4E9070108431F
:100F80002168096821F0C001084321680860D4E99C
:100F9000031008432168896848F2FF3291430843EF
:100FA00021688860D4E9050108432168C96821F0F7
:100FB000FF0108432168C8602068006840F0010014
:100FC0002168086000202064202084F83D00002073
:100FD000206384F83E0000BF24E70000A0860100E3
:100FE00080841E0000093D0040420F002DE9FC5F97
:100FF00004460F4690469946DDE90CAB0E9EFFF77E
:1010000007FF054694F83D00202870D119230122DE
:10101000B5492046009501F036FE10B10220BDE82A
:10102000FC9F00BF94F83C00012801D10220F6E7A4
:10103000012084F83C0000BF2068006800F0010037
:1010400028B92068006840F0010021680860206825
:10105000006820F4006021680860222084F83D00C8
:10106000402084F83E0000202064C4F824A0A4F8A6
:101070002AB0608D20859D48E0624B464246394645
:101080002046CDE9006501F0ABFC08B10120C6E7C0
:10109000208D88B900BF0020019020684069019030
:1010A00020688069019000BF00BF2068006840F49C
:1010B00000702168086040E0208D012818D1206868
:1010C000006820F480602168086000BF0020019063
:1010D00020684069019020688069019000BF00BFCE
:1010E0002068006840F400702168086025E0F8E09E
:1010F000208D022816D12068006820F480602168C5
:1011000008602068006840F400602168086000BF43
:10111000002001902068406901902068806901905A
:1011200000BF0AE000BF00200190206840690190E4
:1011300020688069019000BF00BFC3E0208D0328B4
:101140007ED8208D012815D12A463146204601F04F
:1011500076FE08B1012062E720680069616A0870C4
:10116000606A401C6062208D401E2085608D401E9C
:101170006085A7E0208D02282AD1334600225C49F1
:101180002046009501F07FFD08B1012047E7206867
:10119000006840F400702168086020680069616A96
:1011A0000870606A401C6062208D401E2085608D42
:1011B000401E608520680069616A0870606A401C92
:1011C0006062208D401E2085608D401E608579E024
:1011D0003346002246492046009501F054FD08B1EF
:1011E00001201CE72068006820F480602168086006
:1011F00020680069616A0870606A401C6062208D26
:10120000401E2085608D401E60853346002238498F
:101210002046009501F037FD08B10120FFE6206867
:10122000006840F400702168086020680069616A05
:101230000870606A401C6062208D401E208500E0BE
:1012400010E0608D401E608520680069616A08704A
:10125000606A401C6062208D401E2085608D401EAB
:1012600060852FE02A463146204601F0E8FD08B1AE
:101270000120D4E620680069616A0870606A401C39
:101280006062208D401E2085608D401E6085206834
:101290004069C0F38000A8B1208D032805D12068E3
:1012A000006820F480602168086020680069616A35
:1012B0000870606A401C6062208D401E2085608D31
:1012C000401E6085208D00287FF438AF202084F8F0
:1012D0003D00002084F83E0000BF84F83C0000BFC1
:1012E0009DE602209BE60000020010000000FFFFC8
:1012F000040001002DE9FC5F04460F469046994624
:10130000DDE90CAB0E9EFFF783FD054694F83D002A
:1013100020287DD1192301224D492046009501F056
:10132000B2FC10B10220BDE8FC9F00BF94F83C0065
:10133000012801D10220F6E7012084F83C0000BF1B
:101340002068006800F0010028B92068006840F0BB
:101350000100216808602068006820F400602168AE
:101360000860212084F83D00402084F83E000020E1
:101370002064C4F824A0A4F82AB0608D20853548E4
:10138000E0624B46424639462046CDE9006501F011
:10139000D7FB08B10120C6E731E02A463146204696
:1013A00001F092FD50B1206C042805D1206800683E
:1013B00040F40070216808600120B4E7606A00789A
:1013C00021680861606A401C6062208D401E208593
:1013D000608D401E608520684069C0F3800070B158
:1013E000208D60B1606A007821680861606A401CE5
:1013F0006062208D401E2085608D401E6085208D9E
:101400000028CAD12A463146204601F009FC00E0F6
:101410001CE050B1206C042805D12068006840F41D
:1014200000702168086001207DE72068006840F4B2
:10143000007021680860202084F83D00002084F8B6
:101440003E0000BF84F83C0000BF6CE702206AE762
:10145000020010000000FFFF10B586B00446142102
:1014600001A8FEF7E7FE1B492068884230D100BF83
:10147000002000901848006840F0020016490860FB
:101480000846006800F00200009000BF00BF4FF463
:1014900040700190122002900020039003200490DD
:1014A0000420059001A90D48FFF7B2FB00BF002002
:1014B000009009481030006840F4001006491031CF
:1014C00008600846006800F40010009000BF00BFEC
:1014D00006B010BD00540040303802400004024005
:1014E00003480068034909780844014908607047C7
:1014F000200000202800002010B50D48006840F4AE
:1015000000700B4908600846006840F4806008607D
:101510000846006840F480700860032000F0A8F8D6
:101520000F2000F007F800F02DF8002010BD00009B
:10153000003C024070B504460E4800784FF47A71C2
:10154000B1FBF0F00C490968B1FBF0F5284600F05A
:101550009DFF08B1012070BD102C07D2002221464A
:10156000501E00F047F80548046001E00120F2E752
:101570000020F0E7280000202C000020240000209C
:101580007047000008B500BF002000900E480068BA
:1015900040F480400C4908600846006800F4804030
:1015A000009000BF00BF00BF00200090081F00682F
:1015B00040F08050091F08600846006800F0805025
:1015C000009000BF00BF08BD4438024001460846F5
:1015D00000280DDB00BF00BF00F01F0301229A406E
:1015E00043099B0003F1E023C3F8002100BF00BFC3
:1015F00000BF70472DE9F05F80460D461646002774
:1016000002F0E4FA074639462A46334601F007005D
:10161000C0F1070ABAF1040F02D94FF0040A01E041
:10162000C0F1070AD14600F1040ABAF1070F02D24D
:101630004FF0000A01E0A0F1030AD4464FF0010A7E
:101640000AFA09FAAAF1010A0AEA020A0AFA0CFAE3
:101650004FF0010B0BFA0CFBABF1010B0BEA030B88
:101660004AEA0B042146404602F0B8FABDE8F09F72
:1016700000BF00F00702064B19684FF6FF03194040
:10168000044B0B4343EA0221014B196000BF704732
:101690000CED00E00000FA0570B504460D460CB9EB
:1016A000012070BD5848006800F00700A84209D228
:1016B00055490D700846006800F00700A84201D0A7
:1016C0000120EEE7207800F0020002281DD12078EA
:1016D00000F00400042805D14C48006840F4E050B4
:1016E0004A490860207800F00800082805D14748DA
:1016F000006840F46040454908604448006820F0B4
:10170000F000A168084341490860207800F001001A
:10171000A8B36068012807D13C4808380068C0F3C6
:101720004040B8B90120BCE76068022802D0606878
:10173000032807D1354808380068C0F3406048B92D
:101740000120AEE7314808380068C0F3400008B90E
:101750000120A6E72D48006820F0030061680843D7
:101760002A490860FFF754FB064609E0FFF750FBE3
:10177000801B41F28831884202D9032091E707E0BB
:101780002248006800F00C006168B0EB810FEDD1D9
:101790001D48006800F00700A84209D91A490D70D9
:1017A0000846006800F00700A84201D0012078E751
:1017B000207800F00400042807D11448006820F4C1
:1017C000E050E168084311490860207800F0080003
:1017D000082808D10D48006820F46040216940EADB
:1017E000C1000A49086000F03FF808490968C1F3E0
:1017F0000311074A515CC840064908600648006862
:10180000FFF798FE00204CE7003C024008380240F9
:101810008C3C00082C0000202400002001480068B7
:10182000704700002C00002000B5FFF7F7FF0449C7
:101830000968C1F38221034A515CC84000BD000021
:10184000083802409C3C000800B5FFF7E7FF044958
:101850000968C1F34231034A515CC84000BD000031
:10186000083802409C3C00082DE9F0470024002580
:101870000026A1462548006800F00C0020B104288D
:1018800005D008283AD105E0DFF8849039E0DFF888
:10189000849036E01D48001F006800F03F041B489C
:1018A000001F006800F4800078B11A481749091F2A
:1018B0000968C1F38811A0FB01700146224600238C
:1018C0003846FEF77FFC05460EE011480F49091F18
:1018D0000968C1F38811A0FB01700146224600236C
:1018E0003846FEF76FFC05460848001F0068C0F345
:1018F0000140401C4600B5FBF6F902E0DFF810900D
:1019000000BF00BF4846BDE8F0870000083802402D
:101910000024F40040787D01F8B504460CB901209C
:10192000F8BD207800F00100002874D0F948006864
:1019300000F00C0004280DD0F648006800F00C0000
:10194000082813D1F348001F006800F48000B0F5A8
:10195000800F0BD1EF4808380068C0F340400028E2
:1019600059D06068002856D10120D9E700BF6068CF
:10197000B0F5803F08D1E7480838006840F480306F
:10198000E449083908601EE06068B0F5A02F0DD169
:10199000E0480838006840F48020DE4908390860D3
:1019A0000846006840F4803008600CE0D9480838E8
:1019B000006820F48030D74908390860084600687C
:1019C00020F48020086000BF606890B1FFF720FA23
:1019D000054606E0FFF71CFA401B642801D90320E6
:1019E0009EE7CC4808380068C0F340400028F1D09A
:1019F00011E0FFF70DFA054606E0FFF709FA401B74
:101A0000642801D903208BE7C24808380068C0F376
:101A100040400028F1D1207800F0020002285FD178
:101A2000BC48006800F00C0058B1BA48006800F0EB
:101A30000C0008281CD1B748001F006800F4800083
:101A4000B0B9B44808380068C0F3400020B1E0687D
:101A5000012801D0012063E7AE480838006820F073
:101A6000F800216940EAC100AA490839086037E056
:101A7000E06800B30120A8490860FFF7C9F90546EE
:101A800006E0FFF7C5F9401B022801D9032047E70C
:101A9000A04808380068C0F340000028F1D09D48F5
:101AA0000838006820F0F800216940EAC10099492F
:101AB0000839086014E0002097490860FFF7A8F98A
:101AC000054606E0FFF7A4F9401B022801D90320D0
:101AD00026E7904808380068C0F340000028F1D19C
:101AE000207800F0080008282CD16069A8B10120F6
:101AF0008A490860FFF78CF9054606E0FFF788F988
:101B0000401B022801D903200AE782486C30006894
:101B1000C0F340000028F1D014E000207F490860A5
:101B2000FFF776F9054606E0FFF772F9401B022839
:101B300001D90320F4E677486C300068C0F3400018
:101B40000028F1D1207800F00400042870D100278B
:101B500070483830006800F0805090B900BF002015
:101B600000906C483830006840F080506949383146
:101B700008600846006800F08050009000BF00BF79
:101B800001276748006800F48070B0B964480068B5
:101B900040F4807062490860FFF73AF9054606E0B4
:101BA000FFF736F9401B022801D90320B8E65C484C
:101BB000006800F480700028F2D000BFA0680128FF
:101BC00008D154486830006840F00100514968313C
:101BD00008601DE0A06805280DD14E4868300068F7
:101BE00040F004004B49683108600846006840F046
:101BF000010008600CE047486830006820F00100F0
:101C00004449683108600846006820F00400086014
:101C100000BFA068A8B1FFF7FBF8054609E0FFF791
:101C2000F7F8401B41F28831884202D9032077E659
:101C300026E0384868300068C0F340000028EED045
:101C400013E0FFF7E5F8054608E0FFF7E1F8401B71
:101C500041F28831884201D9032061E62D4868307D
:101C60000068C0F340000028EFD1012F07D12948B8
:101C70003830006820F0805026493831086000BFB5
:101C8000A069002845D02348006800F00C0008280F
:101C90005DD0A069022845D100201F490866FFF7E2
:101CA000B7F8054606E0FFF7B3F8401B022801D954
:101CB000032035E6174808380068C0F34060002864
:101CC000F1D1D4E907010843616A40EA8111012298
:101CD000A06AC2EB500041EA00412C20005D41EABD
:101CE00000600C49091F086001200B490866FFF7D6
:101CF0008FF8054606E0FFF78BF8401B022801D954
:101D000003200DE6034808380068C0F3406000284F
:101D1000F1D049E00838024000004742800E4742B7
:101D200000700040002021490866FFF771F8054661
:101D300006E0FFF76DF8401B022801D90320EFE50C
:101D40001B480068C0F340600028F2D12CE0A06975
:101D5000012800D1E4E51648001D0668A0690128A5
:101D600020D006F48001E06981421BD106F03F01DA
:101D7000206A814216D147F6C0703040616AB0EBEC
:101D8000811F0FD106F440310122A06AC2EB50003E
:101D9000B1EB004F06D106F070612C20005DB1EB75
:101DA000006F01D00120BBE50020B9E500004742EB
:101DB0000038024010B504460CB9012010BD606A1D
:101DC00038B96068B0F5827F00D105E00021E1619B
:101DD00002E00021216161610021A16294F85100BB
:101DE00028B9002084F85000204600F047F802206F
:101DF00084F851002068006820F0400021680860E5
:101E0000A08800F48270218901F404410843A1896B
:101E100001F400610843217C01F002010843217DA7
:101E200001F001010843218B01F400710843217F77
:101E300001F0380108432021095D01F080010843C9
:101E4000218D01F400510843216808600421A06934
:101E500001EA104094F8241001F0100108432168B1
:101E600048602068C06920F400602168C8610020D3
:101E70006065012084F8510000209FE710B586B00E
:101E80000446142101A8FEF7D5F91B4920688842B1
:101E90002FD100BF002000901848006840F4805007
:101EA000164908600846006800F48050009000BFA2
:101EB00000BF00BF0020009010481438006840F0B8
:101EC00002000E49143908600846006800F002005C
:101ED000009000BF00BF3820019002200290002037
:101EE0000390032004900520059001A90448FEF703
:101EF0008FFE06B010BD00000030014044380240A3
:101F0000000402402DE9F8430446884616461D4663
:101F100094F85100012802D00220BDE8F883B8F1FE
:101F2000000F00D00EB90120F7E76068B0F5827F9E
:101F30000CD1A06850B9042084F8510033464246C1
:101F400041462046009500F07DF9E6E7FEF760FF88
:101F5000074600BF94F85000012801D10220DCE7B9
:101F6000012084F8500000BF042084F851000020B4
:101F70006065C4F83880A687E6872063A086E0867F
:101F800020646064A068B0F5004F0BD12068006841
:101F900020F04000216808602068006820F480403C
:101FA000216808602068006800F04000402805D0E3
:101FB0002068006840F0400021680860E06830BB9D
:101FC00021E02068806800F0010050B12068007BAB
:101FD000A16B0870A06B401CA063E08F401EE087DF
:101FE00011E0FEF715FFC01BA84201D3681C00B921
:101FF0004DB9012084F8510000BF002084F8500042
:1020000000BF032089E7E08F0028DAD125E021E036
:102010002068806800F0010050B12068C068A16BA2
:102020000880A06B801CA063E08F401EE08711E059
:10203000FEF7EEFEC01BA84201D3681C00B94DB9E3
:10204000012084F8510000BF002084F8500000BF38
:10205000032062E7E08F0028DAD13A46294620467D
:1020600001F009F908B120206065012084F85100D1
:1020700000BF002084F8500000BF606D08B101204F
:102080004BE7002049E72DE9F84304460F46164682
:102090001D46FEF7BDFE8046B14694F8510001286A
:1020A00002D00220BDE8F88307B10EB90120F9E79C
:1020B00000BF94F85000012801D10220F2E701206E
:1020C00084F8500000BF032084F8510000206065B0
:1020D0002763A686E686A063A087E0876064206405
:1020E000A068B0F5004F0BD12068006820F04000D8
:1020F000216808602068006840F48040216808601A
:102100002068006800F04000402805D02068006882
:1021100040F0400021680860E068B0F5006F37D1FA
:10212000606810B1B9F1010F09D1206B00882168F6
:10213000C860206B801C2063E08E401EE08623E098
:102140002068806800F0020002280AD1206B008815
:102150002168C860206B801C2063E08E401EE086F2
:1021600012E0FEF755FEA0EB0800A84201D3681C60
:1021700000B94DB9012084F8510000BF002084F857
:10218000500000BF03208DE7E08E0028D8D136E054
:10219000606810B1B9F1010F09D1206B0078216896
:1021A0000873206B401C2063E08E401EE08623E015
:1021B0002068806800F0020002280AD1206B0078B5
:1021C00021680873206B401C2063E08E401EE0866F
:1021D00012E0FEF71DFEA0EB0800A84201D3681C28
:1021E00000B94DB9012084F8510000BF002084F8E7
:1021F000500000BF032055E7E08E0028D8D14246AA
:102200002946204601F082F808B120206065A068C8
:1022100050B900BF002000902068C068009020687E
:102220008068009000BF00BF012084F8510000BF0B
:10223000002084F8500000BF606D08B1012031E734
:1022400000202FE72DE9FE4F04460F4690461D461D
:102250000C9E01200190FEF7DBFD814694F851B001
:1022600060680290AA46BBF1010F0BD00298B0F54E
:10227000827F04D1A06810B9BBF1040F02D0022004
:10228000BDE8FE8F1FB1B8F1000F00D00DB90120DD
:10229000F6E700BF94F85000012801D10220EFE7D3
:1022A000012084F8500000BF94F85100042802D0A7
:1022B000052084F8510000206065C4F83880E58767
:1022C000A5872763E586A58620646064206800688A
:1022D00000F04000402805D02068006840F0400031
:1022E00021680860E068B0F5006F52D1606810B1F5
:1022F000BAF1010F09D1206B00882168C860206BFA
:10230000801C2063E08E401EE0863BE020688068F1
:1023100000F00200022810D1E08E70B1019801286F
:102320000BD1206B00882168C860206B801C206363
:10233000E08E401EE086002001902068806800F05A
:10234000010068B1E08F58B12068C068A16B0880B7
:10235000A06B801CA063E08F401EE08701200190ED
:10236000FEF756FDA0EB0900B0420BD3701C48B13C
:10237000012084F8510000BF002084F8500000BF05
:1023800003207DE7E08E0028C0D1E08F0028BDD17A
:1023900052E0606810B1BAF1010F09D1206B0078EA
:1023A00021680873206B401C2063E08E401EE0868D
:1023B0003CE02068806800F00200022810D1E08E26
:1023C00070B1019801280BD1206B00782168087347
:1023D000206B401C2063E08E401EE08600200190B0
:1023E0002068806800F0010068B1E08F58B1206873
:1023F000C068A16B0870A06B401CA063E08F401EFA
:10240000E08701200190FEF703FDA0EB0900B04238
:1024100001D3701C00B94EB9012084F8510000BFEF
:10242000002084F8500000BF032029E7E08E002838
:10243000BFD1E08F0028BCD14A463146204600F08B
:1024400065FF40B12020606500BF002084F8500087
:1024500000BF012014E7A06850B900BF0020009021
:102460002068C068009020688068009000BF00BFAE
:10247000012084F8510000BF002084F8500000BF04
:10248000606D08B10120FBE60020F9E670B5044656
:102490002546681EB0F1807F01D301200FE0681E41
:1024A0004FF0E02148610F214FF0FF3001F096FB23
:1024B00000204FF0E021886107200861002070BDF6
:1024C000704770472DE9F84F04462068056820687A
:1024D000C668206847694FF00009CA4605F00F0931
:1024E000B9F1000F0AD105F0200038B106F0200044
:1024F00020B1204601F071F8BDE8F88FB9F1000F66
:102500007CD007F0010018B906F49070002875D04F
:1025100005F0010030B106F4807018B1606C40F035
:102520000100606405F0040030B107F0010018B14B
:10253000606C40F00200606405F0020030B107F00A
:10254000010018B1606C40F00400606405F0080000
:1025500048B106F0200010B907F0010018B1606C16
:1025600040F008006064606C002846D005F0200050
:1025700028B106F0200010B1204601F02EF82068A6
:102580004069C0F3801A606C00F0080010B9BAF11D
:10259000000F2DD0204600F0DAFF2068406900F0DF
:1025A0004000402820D100BF00BF2168143151E80D
:1025B000001F21F040002168143141E80002002A88
:1025C000F3D100BFE06B50B17F48E16B0865E06B71
:1025D000FEF7EEF988B1E06B016D88470DE020460B
:1025E000FFF76FFF09E009E02046FFF76AFF04E00C
:1025F0002046FFF766FF002060647DE7206B01281E
:1026000078D105F01000002874D006F010000028E2
:10261000FAD000BF00200090206800680090206879
:102620004068009000BF00BF2068406900F0400093
:10263000402870D1E06B006840681FFA80F8B8F15C
:10264000000F58D0A08D404555DDA4F82E80E06BDA
:10265000C069B0F5807F43D000BF00BF21680C3156
:1026600051E8001F21F4807021680C3141E800021C
:10267000002AF3D100BF00BF00BF2168143151E828
:10268000001F21F001002168143141E80002002AF6
:10269000F3D100BF00BF00BF2168143151E8001F13
:1026A00021F040002168143141E80002002AF3D1F2
:1026B00000BF202084F842000020206300BF00BF3C
:1026C00021680C3151E8001F21F0100021680C3105
:1026D00041E80002002AF3D100BFE06BFEF712F9D7
:1026E00002206063A08DE28D801A81B22046FFF740
:1026F000E7FE0EE052E0A08D40450AD1E06BC069D4
:10270000B0F5807F05D102206063A18D2046FFF7E0
:10271000D7FEF1E6FFE7A08DE18D401A1FFA80F8A1
:10272000E08DD0B3B8F1000F37D000BF00BF2168F3
:102730000C3151E8001F21F4907021680C3141E800
:102740000002002AF3D100BF00BF00BF216814318E
:1027500051E8001F21F001002168143141E8000216
:10276000002AF3D100BF202084F84200002020631B
:1027700000BF00BF21680C3151E8001F21F010009C
:1027800021680C3141E80002002AF3D100BF022089
:10279000606341462046FFF793FEADE605F08000FA
:1027A00030B106F0800018B1204601F0ABF8A3E686
:1027B00005F0400030B106F0400018B1204600F0AE
:1027C000FCFE99E600BF97E63D35000810B50446CB
:1027D0000CB9012010BDA06900B100E000BF94F861
:1027E000410028B9002084F84000204600F02AF873
:1027F000242084F841002068C06820F4005021683B
:10280000C860204600F068FF2068006920F490400E
:10281000216808612068406920F02A002168486129
:102820002068C06840F400502168C86000206064DF
:10283000202084F8410084F842000020606300BF3B
:10284000C8E7000010B586B00446142101A8FDF7C2
:10285000F1FC1F492068884238D100BF0020009059
:102860001C48006840F010001A49086008460068DB
:1028700000F01000009000BF00BF00BF00200090DB
:1028800014481438006840F00100124914390860F7
:102890000846006800F00100009000BF00BF4FF440
:1028A000C060019002200290002003900320049059
:1028B0000720059001A90848FEF7AAF90022052182
:1028C0002520FEF797FE2520FEF780FE06B010BDFE
:1028D00000100140443802400000024070472DE9DA
:1028E000F84F04460E46174699464FF0000A94F8F2
:1028F0004100202850D106B117B90120BDE8F88F5A
:1029000000206064212084F84100FEF781FA8246AD
:10291000A784E784A068B0F5805F04D1206910B96E
:102920000025B04602E035464FF000081EE0534651
:10293000002280212046CDF8009001F013F820B14C
:10294000202084F841000320D8E745B9B8F80000FA
:10295000C0F308002168486008F1020803E0287805
:10296000216848606D1CE08C401EE084E08C0028EB
:10297000DDD15346002240212046CDF8009000F0E2
:10298000F1FF20B1202084F841000320B6E7202089
:1029900084F841000020B1E70220AFE7704700BF94
:1029A000FEE7014608684069C0F38020B0B16FF4CB
:1029B00080600A68506100200863202081F83D0093
:1029C000002081F83E00086C40F00400086400BF5D
:1029D000002081F83C0000BF012070470020FCE788
:1029E0002DE9F84304460F4615469946DDE9088669
:1029F0002068006840F480602168086020680068F2
:102A000040F4807021680860434600224FF00111B5
:102A10002046009600F037F960B12068006800F4A5
:102A20008070B0F5807F02D14FF4007020640320E5
:102A3000BDE8F88307F0FE0021680861334642468E
:102A40003E49204600F07EF908B10120F0E700BFC2
:102A50000020009020684069009020688069009004
:102A600000BF00BF32464146204600F02DFA50B16B
:102A7000206C042805D12068006840F400702168AB
:102A800008600120D4E7B9F1010F03D1E8B2216851
:102A9000086117E0C5F30720216808613246414606
:102AA000204600F011FA50B1206C042805D12068AE
:102AB000006840F40070216808600120B8E7E8B2BF
:102AC0002168086132464146204600F0FDF950B1C8
:102AD000206C042805D12068006840F4007021684B
:102AE00008600120A4E72068006840F48070216835
:102AF0000860434600224FF001112046009600F086
:102B0000C2F858B12068006800F48070B0F5807F8A
:102B100002D14FF400702064032089E7F8B240F03E
:102B2000010021680861334642460449204600F00E
:102B300009F908B101207BE7002079E702000100D4
:102B40002DE9F8430446884615469946DDE90867AD
:102B50002068006840F480702168086033460022D5
:102B60004FF001112046009700F08DF860B1206809
:102B7000006800F48070B0F5807F02D14FF40070DF
:102B800020640320BDE8F88308F0FE002168086196
:102B90003B4632462149204600F0D4F808B10120D6
:102BA000F0E700BF00200090206840690090206896
:102BB0008069009000BF00BF3A463146204600F0D1
:102BC00083F950B1206C042805D12068006840F4D6
:102BD0000070216808600120D4E7B9F1010F03D12A
:102BE000E8B22168086117E0C5F307202168086191
:102BF0003A463146204600F067F950B1206C04286F
:102C000005D12068006840F4007021680860012048
:102C1000B8E7E8B2216808610020B3E702000100CC
:102C200070B504460D46164625E02046FFF7B9FE6E
:102C300008B1012070BD681CE8B1FEF7E9F8801BFF
:102C4000A84200D8BDB920684069C0F3800090B99F
:102C500000202063202084F83D00002084F83E00FE
:102C6000206C40F02000206400BF002084F83C006D
:102C700000BF0120DEE720684069C0F38000002823
:102C8000D3D00020D6E72DE9F04104460D46174683
:102C90001E46DDF8188038E0701CA8B3FEF7B8F8BF
:102CA000A0EB0800B04200D876BBC5F3074001286E
:102CB0000AD120684069A9B20840A9B2884201D16E
:102CC00001200BE0002009E020688069A9B20840DB
:102CD000A9B2884201D1012000E00020B84214D1FD
:102CE00000202063202084F83D00002084F83E006E
:102CF000206C40F02000206400BF002084F83C00DD
:102D000000BF0120BDE8F081FFE7C5F307400128BF
:102D10000AD120684069A9B20840A9B2884201D10D
:102D200001200BE0002009E020688069A9B208407A
:102D3000A9B2884201D1012000E00020B842ABD006
:102D40000020DFE72DE9F04104460D4616461F46F8
:102D500058E020684069C0F38020E8B1206800682E
:102D600040F40070216808606FF480602168486159
:102D700000202063202084F83D00002084F83E00DD
:102D8000206C40F00400206400BF002084F83C0068
:102D900000BF0120BDE8F081701C90B3FEF738F849
:102DA000C01BB04200D866BBC5F3074001280AD15A
:102DB00020684069A9B20840A9B2884201D1012027
:102DC0000BE0002009E020688069A9B20840A9B2A0
:102DD000884201D1012000E0002090B9002020634A
:102DE000202084F83D00002084F83E00206C40F054
:102DF0002000206400BF002084F83C0000BF0120B8
:102E0000C8E7FFE7C5F3074001280AD120684069F9
:102E1000A9B20840A9B2884201D101200BE00020EC
:102E200009E020688069A9B20840A9B2884201D1AE
:102E3000012000E0002000288BD00020AAE770B518
:102E400004460D46164637E020684069C0F300107E
:102E5000A0B16FF01000216848610020206320209D
:102E600084F83D00002084F83E00206C206400BF00
:102E7000002084F83C0000BF012070BDFDF7C8FFB2
:102E8000801BA84200D8BDB920684069C0F38010FB
:102E900090B900202063202084F83D00002084F8B1
:102EA0003E00206C40F02000206400BF002084F829
:102EB0003C0000BF0120E0E720684069C0F38010BB
:102EC0000028C1D00020D8E770B504460D4616464C
:102ED00025E02046FFF765FD08B1012070BD681CA4
:102EE000E8B1FDF795FF801BA84200D8BDB9206866
:102EF0004069C0F3C01090B900202063202084F8FE
:102F00003D00002084F83E00206C40F0200020644A
:102F100000BF002084F83C0000BF0120DEE72068ED
:102F20004069C0F3C0100028D3D00020D6E70000CD
:102F300070B5184804684568B4F1005F02D31648BC
:102F4000844201D9012070BD1248854202D3134842
:102F5000854201D90120F6E7062000F025FE282051
:102F600000F022FE252000F01FFE00204FF0E0219F
:102F7000086148618861FDF72FFD72B600BF84F3D8
:102F8000088800BF0348064908602E46B047002065
:102F9000D9E7000000C00008FFFF01200000010881
:102FA00008ED00E070B5184804684568B4F1005FAA
:102FB00002D31648844201D9012070BD12488542CF
:102FC00002D31348854201D90120F6E7062000F01C
:102FD000EBFD282000F0E8FD252000F0E5FD0020B5
:102FE0004FF0E021086148618861FDF7F5FC72B699
:102FF00000BF84F3088800BF0348064908602E46D6
:10300000B0470020D9E7000000800008FFFF012042
:1030100000C0000808ED00E070B518480468456875
:10302000B4F1005F02D31648844201D9012070BD7B
:103030001248854202D31348854201D90120F6E7A0
:10304000062000F0B1FD282000F0AEFD252000F0A4
:10305000ABFD00204FF0E021086148618861FDF779
:10306000BBFC72B600BF84F3088800BF0348064962
:1030700008602E46B0470020D9E700000040000855
:10308000FFFF01200080000808ED00E000B587B0D8
:10309000142102A8FDF7CEF800BF0020019041489E
:1030A000006840F004003F4908600846006800F0EE
:1030B0000400019000BF00BF00BF0020019008463F
:1030C000006840F0800008600846006800F080005A
:1030D000019000BF00BF00BF0020019008460068BB
:1030E00040F0010008600846006800F0010001900F
:1030F00000BF00BF00BF002001900846006840F0FC
:10310000400008600846006800F04000019000BFE1
:1031100000BF00BF002001900846006840F0020098
:1031200008600846006800F00200019000BF00BF80
:10313000012240211C48FDF765FE4FF4005002902B
:103140004FF4881003900220049002A91748FDF75D
:103150005FFD012002904FF488100390022004903C
:1031600002A91348FDF754FD40200290012003906E
:10317000002004900220059002A90B48FDF748FDAD
:10318000002204210620FEF735FA0620FEF71EFA7B
:10319000002204212820FEF72DFA2820FEF716FA37
:1031A00007B000BD3038024000180240000802405D
:1031B0000000024010B50B480B4908600B484860FE
:1031C000002109488160C1604FF480410161002104
:1031D00041618161C1610162FDF720FE08B1FDF727
:1031E0003BFA10BD0054004038000020A0860100CA
:1031F00010B50E480E4908604FF4827048600021F7
:103200000B488160C160016141614FF400718161CF
:103210001021C16100210162416281620A21C16203
:10322000FEF7C8FD08B1FDF717FA10BD00300140E8
:103230008C00002010B50B480B4908604FF4E130BA
:103240004860002108488160C16001610C21416132
:1032500000218161C161FFF7B9FA08B1FDF7FCF9FE
:1032600010BD000000100140E400002000BFFEE798
:1032700000BFFEE77047F8B504460E461546606885
:10328000B0F5827F0DD1A068B0F5004F03D0A068E3
:10329000B0F5806F05D12068006820F040002168FB
:1032A00008606068B0F5827F1FD1A068B0F5806FBC
:1032B0000DD03346002280212046009500F06AF8A8
:1032C00008B3606D40F0200060650320F8BD334610
:1032D000002201212046009500F05CF898B1606D55
:1032E00040F0200060650320F0E733460022012112
:1032F0002046009500F04EF828B1606D40F02000A7
:1033000060650320E2E70020E0E700007CB50446AA
:103310000E4615463346012202212046009500F054
:1033200039F828B1606D40F02000606503207CBD55
:10333000164800681821B0FBF1F01549B0FBF1F018
:103340004FF47A71484301906068B0F5827F0DD1E7
:103350003346002280212046009500F01BF898B1EA
:10336000606D40F0200060650320E0E700BF019839
:1033700000B908E00198401E019020688068C0F301
:10338000C0100028F3D100BF0020D0E72C0000209F
:1033900040420F002DE9F84F04460D4690461E4668
:1033A000DDF82890FDF734FDA0EB0900371AFDF792
:1033B0002FFD82462C480068C0F3CB307843009044
:1033C00046E0701C002843D0FDF722FDA0EB0A0068
:1033D000B84200D2A7BB2068406820F0E000216816
:1033E00048606068B0F5827F0DD1A068B0F5004FED
:1033F00003D0A068B0F5806F05D12068006820F088
:10340000400021680860A06AB0F5005F0DD100BFE0
:103410002068006820F40050216808602068006877
:1034200040F400502168086000BF012084F851007A
:1034300000BF002084F8500000BF0320BDE8F88FD3
:10344000FFE7009808B9002702E00098401E0090AE
:10345000206880682840A84201D1012000E00020B7
:103460004045AED10020E9E72C000020704710B5A0
:10347000FEF736F810BD000000B593B0302107A864
:10348000FCF7D8FE142102A8FCF7D4FE00BF0020F0
:1034900001902348006840F08050214908600846A8
:1034A000006800F08050019000BF00BF00BF002006
:1034B00001901C48006840F480401A4908600846A2
:1034C000006800F48040019000BF00BF0120079019
:1034D0000004089002200D9041050E9119210F91D2
:1034E00090211091022111910421129107A8FEF759
:1034F00013FA08B1FDF7B0F80F20029002200390F4
:10350000002004904FF48050059000200690022186
:1035100002A8FEF7C1F808B1FDF79EF813B000BD90
:1035200040380240007000400348006840F47000DA
:10353000014908607047000088ED00E070B504465E
:10354000A56B0020E8852846FEF7BBFF70BD00BFD5
:1035500000BF02680C3252E8002F22F4907102681A
:103560000C3242E80013002BF3D100BF00BF00BFB4
:103570000268143252E8002F22F00101026814326E
:1035800042E80013002BF3D100BF016B01290ED1DB
:1035900000BF00BF02680C3252E8002F22F0100179
:1035A00002680C3242E80013002BF3D100BF202147
:1035B00080F8421000210163704710B5044620686E
:1035C000C06820F040002168C860202084F84100D5
:1035D0002046FFF7E3F9002010BDF8B504460025AA
:1035E000002694F84200222873D1A068B0F5805FCD
:1035F0000BD1206948B9A66A20684068C0F308006A
:103600003080A06A801CA06214E0A56AA068B0F5B2
:10361000805F03D0A06828B9206918B92068406885
:10362000287004E02068406800F07F002870A06ADD
:10363000401CA062E08D401E80B2E085002846D18B
:103640002068C06820F020002168C8602068C06839
:1036500020F480702168C8602068406920F0010073
:1036600021684861202084F8420000206063206BBC
:10367000012826D10020206300BF00BF21680C3143
:1036800051E8001F21F0100021680C3141E80002D0
:10369000002AF3D100BF2068006800F01000102855
:1036A0000AD100BF002000902068006800902068C8
:1036B0004068009000BF00BFA18D2046FEF700FFCC
:1036C00002E02046FFF70AF90020F8BD01E00020E3
:1036D000FBE70220F9E700002DE9F84F04462068D7
:1036E000006920F44050E1680843216808612169BD
:1036F000A068084361690843E169084300902068B5
:10370000C06849F20C618843009908432168C86089
:103710002068406920F44070A1690843216848612D
:1037200076492068884203D075492068884203D1D1
:10373000FEF78AF8814602E0FEF776F88146E069F6
:10374000B0F5004F6CD102206168A0FB0150034628
:103750001920A9FB007001462A463846FCF732FDC5
:103760006421B0FBF1F04FEA001A02206168A0FB6F
:1037700001510B461920A9FB00712A463846FCF777
:1037800021FD834602206168A0FB015003461920F9
:10379000A9FB00712A463846FCF714FD6421B0FBF2
:1037A000F1F000EBC00101EB0010ABEB8000322127
:1037B00001EBC0006421B0FBF1F000F0F8000AEB6F
:1037C000400A02206168A0FB015003461920A9FBB2
:1037D000007001462A463846FCF7F4FC8346022076
:1037E0006168A0FB015003461920A9FB00712A461D
:1037F0003846FCF7E7FC6421B0FBF1F000EBC001B8
:1038000001EB0010ABEB8000322101EBC000642122
:10381000B0FBF1F000F007005044216888606AE0D6
:1038200004206168A0FB015003461920A9FB007029
:1038300001462A463846FCF7C5FC824604206168EA
:10384000A0FB015003461920A9FB007001462A463F
:103850003846FCF7B7FC6421B0FBF1F000EBC00187
:1038600001EB0010AAEB8000322101EB0010642173
:10387000B0FBF1F000F0F00A04206168A0FB0170D9
:1038800003461920A9FB00513A462846FCF79AFC4A
:103890006421B0FBF1F00AEB001A04206168A0FB80
:1038A00001510B461920A9FB00712A463846FCF746
:1038B00089FC834604206168A0FB0150034619205F
:1038C000A9FB007001462A463846FCF77BFC6421C0
:1038D000B0FBF1F000EBC00101EB0010ABEB80009E
:1038E000322101EB00106421B0FBF1F000F00F0079
:1038F000504421688860BDE8F88F00000010014046
:1039000000140140014691F84100212828D188681F
:10391000B0F5805F0BD1086948B90A6A1088C0F316
:1039200008000B685860086A801C086205E00B6A92
:10393000581C086218780B685860C88C401E80B20A
:10394000C88458B90868C06820F080000B68D86047
:103950000868C06840F040000B68D86000207047DD
:103960000220FCE72DE9F84304460D461746984629
:10397000089E31E0701C70B3FDF74AFAA0EB080016
:10398000B04200D816B90320BDE8F8832068C068AB
:1039900000F00400F8B1802D1ED0402D1CD020680E
:1039A0000068C0F3C000B0B100BF002000902068E4
:1039B0000068009020684068009000BF00BF20466B
:1039C000FFF7C5FD0820606400BF002084F84000B8
:1039D00000BF0120D8E7FFE7206800682840A84220
:1039E00001D1012000E00020B842C3D00020CBE785
:1039F00010B50248FEF766FD10BD0000E40000208F
:103A000000BFFEE7FEB504460D46164664200123BE
:103A10002246A021CDE9005602900248FDF7E6FAC1
:103A2000FEBD00003800002013B584B004466420B9
:103A3000012105AA0B46CDE9002102902246A021D2
:103A40000248FDF757FC06B010BD0000380000200A
:103A50002DE9FE43064688461546002424E0301929
:103A6000C11700EB5171C910A0EBC101C1F10801F0
:103A70001FFA81F9281B484501DA281B00E0484657
:103A800087B2642108EB0400CDE901710090301980
:103A900082B20123A0210648FDF72CFCE01984B274
:103AA0000520FCF7C1FF00BFAC42D8DBBDE8FE83B8
:103AB0003800002008B56423012269460248FEF759
:103AC00021FA9DF8000008BD8C0000202DE9F05F70
:103AD00006460F4690469946DDE90AAB00F040F8ED
:103AE00000F02AF8032000F04DF83006000A07F035
:103AF0000F0140EA013008F00F0140EA012009F00F
:103B0000FF0140EA0104200C00F03CF8C4F3072058
:103B100000F038F8E0B200F035F8002505E0FFF7D6
:103B2000C9FF0AF80500681C85B25D45F7DB00F0A7
:103B30000DF8BDE8F09F000010B5002240210248BA
:103B4000FDF760F910BD00000018024010B5012219
:103B500040210248FDF756F910BD00000018024050
:103B600010B5FFF7E9FF052000F00CF800BFFFF7E4
:103B7000A1FF044604F001000028F8D1FFF7E6FF9A
:103B800010BD000001B56423012269460148FEF71B
:103B90007AFA08BD8C000020014A024900F041B8C1
:103BA000453C00083400002000280BDB00F01F0219
:103BB00001219140044A430942F82310BFF34F8F7B
:103BC000BFF36F8F7047000080E100E0024800689B
:103BD000C0F30220704700000CED00E010B5002893
:103BE00004DB0A07130E054A135406E00A07140EF5
:103BF000034A00F00F031B1FD45410BD00E400E083
:103C000018ED00E002E008C8121F08C1002AFAD12E
:103C100070477047002001E001C1121F002AFBD14C
:103C200070472DE9F04116460F460446002503E093
:103C30003946B047641C6D1C20780028F8D128460E
:103C4000BDE8F08113B50C464FF6FF7301226946BB
:103C50000248FEF744FE00981CBD0000E40000206E
:103C6000FDF74AFCFFF708FCFFF710FAFFF7E2FA4E
:103C7000FFF7A0FAFFF7BCFAFCF72CFBFCF7C0FB40
:103C8000FCF758FBFCF712FB00BFFEE7000000004A
:103C900000000000010203040607080900000000FC
:103CA00001020304C43C00080000002038000000AA
:103CB000043C0008FC3C0008380000200806000016
:103CC000143C00080000000000000000000000009C
:103CD00000000000010000000000000000000000E3
:103CE00000000000000000001000000001000000C3
:0C3CF0000024F4005A0000000000000056
:040000050800018965
:00000001FF
