:020000040800F2
:1040000080070020A1410008016700089F630008A5
:10401000FD660008BD470008E56C000800000000D0
:10402000000000000000000000000000076700081A
:10403000C147000800000000056700080967000884
:10404000BB410008BB410008BB410008BB41000860
:10405000BB410008BB410008BB410008BB41000850
:10406000BB410008BB410008BB410008BB41000840
:10407000BB410008BB410008BB410008BB41000830
:10408000BB410008BB410008BB410008BB41000820
:10409000BB410008BB410008BB410008BB41000810
:1040A000BB410008BB410008BB410008BB41000800
:1040B000BB410008BB410008BB410008BB410008F0
:1040C000BB410008BB410008BB410008BB410008E0
:1040D000BB410008D56C0008BB410008BB4100088B
:1040E000C3470008BB410008BB410008BB410008B2
:1040F000BB410008BB410008BB410008BB410008B0
:10410000BB410008BB410008BB410008BB4100089F
:10411000BB410008BB410008BB410008BB4100088F
:10412000BB410008BB410008BB410008BB4100087F
:10413000BB410008BB410008BB410008BB4100086F
:10414000BB410008BB410008BB410008BB4100085F
:10415000BB410008BB410008BB410008BB4100084F
:10416000BB410008BB410008BB410008BB4100083F
:10417000BB410008BB410008BB4100080000000033
:10418000BB410008BB410008DFF810D000F0EAF89E
:1041900000480047256F0008AFF30080800700202B
:1041A0000648804706480047FEE7FEE7FEE7FEE7D1
:1041B000FEE7FEE7FEE7FEE7FEE7FEE7C167000871
:1041C000894100082DE9F05F0546002092469B4694
:1041D00088460646814640241BE02846414647461D
:1041E000224600F076F853465A46C01A914110D341
:1041F00011461846224600F05DF82D1A67EB0108BB
:104200004F4622460120002100F054F817EB000928
:104210004E41201EA4F10104DFDC484631462A4607
:104220004346BDE8F09FD2B201E000F8012B491EE1
:10423000FBD270470022F6E710B513460A46044643
:104240001946FFF7F0FF204610BD30B505462A4657
:104250000B4612F8010B13F8014B08B1A042F8D03D
:104260001CB1002802D06D1CF1E7284630BD70B5A6
:10427000064602F08BFD046805460A2200213046FE
:1042800000F037F82C6070BD30B50B4601460020B9
:104290002022012409E021FA02F59D4205D303FA08
:1042A00002F5491B04FA02F52844151EA2F1010289
:1042B000F1DC30BD202A04DB203A00FA02F10020B4
:1042C00070479140C2F1200320FA03F31943904054
:1042D0007047202A04DB203A21FA02F000217047BF
:1042E00021FA02F3D040C2F120029140084319465E
:1042F00070472DE9F04791460F4680460446002658
:1043000014F8015B2DB100F03FF80068405DC00774
:10431000F6D12B2D02D02D2D18D0641E4A463946D9
:10432000204600F035F827B13968A14201D1C7F81D
:10433000008071054FF002040BD54042002803DDD8
:1043400002F024FD0460A007BDE8F08746F4806613
:10435000E4E70028F8DA02F019FD04606FF000408D
:10436000F2E70000064C074D06E0E06840F001036C
:1043700094E8070098471034AC42F6D3FFF708FFE3
:10438000F86F00081870000800487047F46F0008C4
:104390002DE9F05F82460078002715468B460AF12A
:1043A0000104B946302801D09DB113E014F8010B87
:1043B0000127782803D0582801D045B10AE00DB173
:1043C000102D07D10027102514F8010B02E0082555
:1043D00000E00A250026B0460EE005FB080005FBBC
:1043E00006F1012701EB10461FFA80F8B6F5803F71
:1043F00000D3B94614F8010B294600F018F800283C
:10440000EBDABBF1000F05D00FB1641E00E054469B
:10441000CBF80040B9F1000F06D002F0B7FC022142
:104420000160C81EBDE8F09F48EA0640FAE73A2856
:1044300000D2303820F02002412A01D3A2F1370007
:10444000884201D34FF0FF307047000010B51C4880
:104450000078052831D2DFE800F003061B1E270094
:1044600000F020F92AE001F09DFF16A002F03CFCCC
:1044700018A002F039FC02201149087000F068FD14
:104480001B49086000201B49087002F00DF815E078
:1044900000F0F2F812E000F05BF820B116A002F094
:1044A00023FC02F05FFC09E000F0E0F820B11DA061
:1044B00002F01AFC02F056FC00E000BF00BF10BD85
:1044C00040000020466C617368206572617365640A
:1044D0000D0A000053746172742072656365697619
:1044E000696E6720646174612E2E2E0D0A00000033
:1044F0003800002041000020446174612063686539
:10450000636B206661696C65642C207265737461ED
:104510007274696E6720626F6F746C6F616465722C
:104520000D0A00004A756D7020746F206170702054
:104530006661696C65642C2072657374617274695C
:104540006E6720626F6F746C6F616465720D0A0034
:1045500010B50E4800880E490988884209D10B48D9
:1045600001880CA002F0C0FB04201849087000204C
:1045700010BD074802880548018815A002F0B4FB69
:104580000020124908700120F2E700003E000020E0
:10459000320000204461746120726563656976654C
:1045A00064207375636365737366756C6C792C2016
:1045B000746F74616C206C656E6774683A20257541
:1045C0002062797465730D0A00000000400000202D
:1045D0004C656E677468206D69736D617463682CD7
:1045E0002065787065637465643A2025752C2061B8
:1045F000637475616C3A2025750D0A0010B506A02C
:1046000002F072FB09A002F06FFB0EA002F06CFB3F
:1046100000201549087010BD72657365745F4170A4
:104620007020737461727465640D0A005761697457
:10463000696E6720666F7220646174612E2E2E0D84
:104640000A000000506C656173652073656E64201C
:104650002773746172743A6C656E2720746F2073CF
:10466000746172740D0A00004000002010B501F062
:10467000BFFE0446204610BD10B50748008850B163
:1046800000F066FC05490968401AB0F5FA6F02D9D6
:1046900003200349087010BD3200002038000020BC
:1046A0004000002038B54FF0FF30174B402217492B
:1046B0000090174801F0AAFA1348008800281EDD70
:1046C00014A11248FFF7C1FD0546002D13D0A81D07
:1046D000FFF7CDFD84B2002C09DD1048048021468F
:1046E0000FA002F001FB01201C49087002E01CA091
:1046F00002F0FAFA02E020A002F0F6FA02E029A0A5
:1047000002F0F2FA38BD00003C0000204003002017
:10471000F800002073746172743A00003E000020BB
:10472000537461727420636F6D6D616E6420726585
:104730006365697665642C2065787065637465646B
:104740002064617461206C656E6774683A20257519
:104750002062797465730D0A00000000400000209B
:10476000496E76616C69642064617461206C656E69
:104770006774680D0A000000496E76616C696420F8
:10478000666F726D61742C20706C65617365207347
:10479000656E64202773746172743A6C656E270DC0
:1047A0000A000000496E76616C696420737461725E
:1047B0007420636F6D6D616E640D0A0000BFFEE7CB
:1047C000704710B54FF4005000F0B4FA10BD72B647
:1047D00000BFFEE710B5002201B909E0012901D1AF
:1047E0000A0205E0022901D10A0201E04FF44072F9
:1047F0000E4B1B6823F440730C4C236023461B684C
:104800001343236023461B6823F078032360234669
:104810001B68022444EAC0042343044C236023465B
:104820001B6843F48033236010BD0000103C02403D
:104830001C48006800F40070B0B11A48006820F409
:1048400000701849086000BF0846006840F4006026
:1048500008600846006820F40060086000BF084651
:10486000006840F4007008600E48006800F4806042
:10487000B0B10C48006820F480600A49086000BFAD
:104880000846006840F4805008600846006820F43C
:104890008050086000BF0846006840F480600860EF
:1048A00070470000003C02400A4A126822F440723D
:1048B000084B1A601A46126842F004021A601A463F
:1048C00012684FF4803343EA00231A43014B1A6005
:1048D00070470000103C0240074A126822F4407200
:1048E000054B1A601A4612681A601A46126842F09E
:1048F00001021A6001707047103C024010B50A496D
:10490000096821F44071084C21602146096841F48E
:10491000407121602146096841F001012160026077
:10492000BFF36F8F436010BD103C0240084A12680D
:1049300022F44072064B1A601A46126842F48072E2
:104940001A601A46126842F001021A60018070472C
:10495000103C0240084A126822F44072064B1A606A
:104960001A46126842F400721A601A46126842F03F
:1049700001021A6001607047103C02402348006841
:1049800000F0100040B12248C06940F010002049FA
:10499000C86110201D4908601C48006800F0200014
:1049A00040B11B48C06940F008001949C861202087
:1049B000164908601548006800F0400040B11448EE
:1049C000C06940F004001249C86140200F490860E6
:1049D0000E48006800F0800040B10D48C06940F00A
:1049E00002000B49C8618020084908600748006838
:1049F00000F0020040B10648C06940F020000449C0
:104A0000C861022001490860704700000C3C024068
:104A10000000002070B50446002500201449C8613C
:104A200000F096FA054609E0601C38B124B100F0A8
:104A30008FFA401BA04201D9032070BD0D480068C9
:104A400000F480300028EFD10A48006800F001002F
:104A500010B10120074908600648006800F0F20024
:104A600018B1FFF78BFF0120E7E70020E5E7000022
:104A7000000000200C3C024070B50446A56D00F01B
:104A800067FA064694F83500022808D08020606551
:104A900000BF002084F8340000BF012070BD2068F2
:104AA000006820F01600216808602068406920F046
:104AB000800021684861206C08B9A06C28B120688A
:104AC000006820F00800216808602068006820F075
:104AD00001002168086010E000F03AFA801B052808
:104AE0000BD920206065032084F8350000BF00202A
:104AF00084F8340000BF0320D0E72068006800F08D
:104B000001000028E8D194F85C103F208840A8609C
:104B1000012084F8350000BF002084F8340000BF75
:104B200000BFBBE7014691F83500022803D0802082
:104B3000486501207047052081F835000868006845
:104B400020F001000A6810600020F3E710B50F485C
:104B50000F490860002008600E48091D0860002009
:104B600008600D480A491039086000200860C1201B
:104B7000091D0860002008600120091D0860002050
:104B8000086000F067FB002010BD0000FFC9FEF6C2
:104B90002038024033797704FF1160222DE9F0417B
:104BA00004460F46002600BF2548007E012802D19A
:104BB0000220BDE8F08101202149087600BF4CF2B7
:104BC0005030FFF727FF0546002D31D1401E3860D9
:104BD000206801280FD1207C6168FFF765FE4CF248
:104BE0005030FFF717FF05461648006820F0040014
:104BF000144908601AE0A66812E0217C3046FFF7ED
:104C0000E9FD4CF25030FFF705FF05460D480068FE
:104C100020F07A000B4908600DB13E6005E0761C7B
:104C2000D4E902100844B042E7D800BFFFF700FE05
:104C300000BF00200249087600BF2846B9E70000FF
:104C400000000020103C02400348006840F0004093
:104C50000149086000207047103C02402DE9F041F6
:104C60000646884614461D4600BF1E48007E0128A1
:104C700002D10220BDE8F08101201A49087600BF68
:104C80004CF25030FFF7C6FE07461FBB26B9E1B213
:104C90004046FFF721FE12E0012E04D1A1B24046AA
:104CA000FFF744FE0BE0022E04D121464046FFF7F9
:104CB00051FE04E022462B464046FFF71FFE4CF211
:104CC0005030FFF7A7FE07460748006820F00100B4
:104CD0000549086000BF00200249087600BF384639
:104CE000C8E7000000000020103C024000200949F5
:104CF000096801F0004159B10749064A0C3A1160B0
:104D0000064911600349096801F0004101B1012021
:104D100070470000103C024023016745AB89EFCD8E
:104D2000B0F5005F02D10121014A11707047000007
:104D30004100002010B5044604480068204020B11E
:104D4000024804602046FFF7EBFF10BD143C014011
:104D5000F8B502460B460025002400200021D6E0CD
:104D6000012606FA01F51E6806EA0504AC4274D174
:104D70001E7906F00306012E04D01E7906F0030604
:104D8000022E13D190684F000326BE40B0434F005F
:104D9000DE68BE4030439060506801268E40B043CC
:104DA0001E79C6F300168E40304350601E7906F01F
:104DB0000306032E09D0D0684F000326BE40B0433F
:104DC0004F009E68BE403043D0601E7906F0030657
:104DD000022E13D1CF0802F1200656F827004E0705
:104DE000F70E0F26BE40B0434F07FF0E1E69BE40B0
:104DF0003043CF0802F1200646F8270010684F0024
:104E00000326BE40B0431E7906F003064F00BE40A5
:104E1000304310605E6806F44036002E76D000BF46
:104E2000002600963C4E366846F480463A4F3E6077
:104E30003E46366806F48046009600BF00BF374EF7
:104E40008F0856F827008E07370F0F26BE40B04355
:104E5000334EB24202D1002624E057E0314EB24236
:104E600001D101261EE0304EB24201D1022619E0E6
:104E70002E4EB24201D1032614E02D4EB24201D192
:104E800004260FE02B4EB24201D105260AE02A4E3D
:104E9000B24201D1062605E0284EB24201D10726D2
:104EA00000E008268F073F0FBE4030431B4E8F089F
:104EB00046F82700224E3068A0435E6806F480164C
:104EC00006B120431E4E3060361D3068A0435E6838
:104ED00006F4001606B12043194E361D3060184EF8
:104EE000361F3068A0435E6806F4003606B12043E2
:104EF000134E361F3060361F3068A0435E6806F4DC
:104F0000803606B120430E4E083E3060491C102901
:104F1000FFF426AFF8BD00004438024008380140D5
:104F2000000002400004024000080240000C024061
:104F3000001002400014024000180240001C024011
:104F4000083C01400AB1816101E00B0483617047B4
:104F500001480068704700002000002070B504463A
:104F60000CB9012070BD94F83D0028B9002084F8E8
:104F70003C00204600F0DAF8242084F83D00206848
:104F8000006820F00100216808602068006840F493
:104F90000040216808602068006820F40040216813
:104FA000086000F0ABFA05465C496068884206D8A4
:104FB0005B48854201D2012007E0002005E0594806
:104FC000854201D2012000E00020012800D1C9E77C
:104FD0005548B5FBF0F62068406820F03F003043AC
:104FE000216848604D496068884201D8701C07E01C
:104FF0004FF4967070434FF47A71B0FBF1F0401C9F
:105000002168096A21F03F01084321680862434989
:105010006068884214D8681E61684900B0FBF1F0EE
:10502000401CC0F30B00042801D204203DE0681EA0
:1050300061684900B0FBF1F0401CC0F30B0034E0A4
:10504000A06838B9681E616801EB4101B0FBF1F05E
:10505000401C0AE0681E616801EBC10202EB01110D
:10506000B0FBF1F0401C40F48040C0F30B0008B9E5
:1050700001201AE0A06848B9681E616801EB41018F
:10508000B0FBF1F0401CC0F30B000CE0681E61683F
:1050900001EBC10202EB0111B0FBF1F0401CC0F3C7
:1050A0000B0040F4804040F400402168C9694CF690
:1050B000FF72914308432168C861D4E9070108439E
:1050C0002168096821F0C001084321680860D4E91B
:1050D000031008432168896848F2FF32914308436E
:1050E00021688860D4E9050108432168C96821F076
:1050F000FF0108432168C8602068006840F0010093
:105100002168086000202064202084F83D000020F1
:10511000206384F83E0000BF24E70000A086010061
:1051200080841E0000093D0040420F0010B586B08B
:105130000446142101A8FFF77DF81B492068884226
:1051400030D100BF002000901848006840F00200F5
:10515000164908600846006800F00200009000BF91
:1051600000BF4FF440700190122002900020039085
:10517000032004900420059001A90D48FFF7E8FDE5
:1051800000BF0020009009481030006840F4001073
:105190000649103108600846006800F400100090CD
:1051A00000BF00BF06B010BD0054004030380240C0
:1051B0000004024003480068034909780844014993
:1051C00008607047200000202800002010B50D481E
:1051D000006840F400700B4908600846006840F41D
:1051E000806008600846006840F480700860032012
:1051F00000F0A8F80F2000F007F800F02DF80020CC
:1052000010BD0000003C024070B504460E48007816
:105210004FF47A71B1FBF0F00C490968B1FBF0F57D
:10522000284600F0D9FC08B1012070BD102C07D22F
:1052300000222146501E00F047F80548046001E0B6
:105240000120F2E70020F0E7280000202C000020D9
:10525000240000207047000008B500BF0020009027
:105260000E48006840F480400C4908600846006819
:1052700000F48040009000BF00BF00BF00200090FD
:10528000081F006840F08050091F08600846006849
:1052900000F08050009000BF00BF08BD44380240BD
:1052A0000146084600280DDB00BF00BF00F01F03C9
:1052B00001229A4043099B0003F1E023C3F8002137
:1052C00000BF00BF00BF70472DE9F05F80460D466C
:1052D0001646002701F02AFD074639462A4633467E
:1052E00001F00700C0F1070ABAF1040F02D94FF02C
:1052F000040A01E0C0F1070AD14600F1040ABAF13C
:10530000070F02D24FF0000A01E0A0F1030AD446D1
:105310004FF0010A0AFA09FAAAF1010A0AEA020A96
:105320000AFA0CFA4FF0010B0BFA0CFBABF1010B74
:105330000BEA030B4AEA0B042146404601F0FEFC4F
:10534000BDE8F09F00BF00F00702064B19684FF65A
:10535000FF031940044B0B4343EA0221014B196040
:1053600000BF70470CED00E00000FA0570B5044680
:105370000D460CB9012070BD5848006800F00700C8
:10538000A84209D255490D700846006800F0070090
:10539000A84201D00120EEE7207800F002000228A8
:1053A0001DD1207800F00400042805D14C48006885
:1053B00040F4E0504A490860207800F008000828CE
:1053C00005D14748006840F46040454908604448BA
:1053D000006820F0F000A168084341490860207887
:1053E00000F00100A8B36068012807D13C480838E4
:1053F0000068C0F34040B8B90120BCE760680228EB
:1054000002D06068032807D1354808380068C0F327
:10541000406048B90120AEE7314808380068C0F361
:10542000400008B90120A6E72D48006820F00300DD
:10543000616808432A490860FFF78AFD064609E0CB
:10544000FFF786FD801B41F28831884202D9032094
:1054500091E707E02248006800F00C006168B0EBBB
:10546000810FEDD11D48006800F00700A84209D95E
:105470001A490D700846006800F00700A84201D0E4
:10548000012078E7207800F00400042807D11448B0
:10549000006820F4E050E168084311490860207872
:1054A00000F00800082808D10D48006820F460408A
:1054B000216940EAC1000A49086000F03FF8084944
:1054C0000968C1F30311074A515CC84006490860E6
:1054D00006480068FFF798FE00204CE7003C0240B9
:1054E00008380240586F00082C00002024000020DB
:1054F00001480068704700002C00002000B5FFF74D
:10550000F7FF04490968C1F38221034A515CC8408E
:1055100000BD000008380240686F000800B5FFF7C2
:10552000E7FF04490968C1F34231034A515CC840AE
:1055300000BD000008380240686F00082DE9F04700
:10554000002400250026A1462548006800F00C0034
:1055500020B1042805D008283AD105E0DFF884906E
:1055600039E0DFF8849036E01D48001F006800F045
:105570003F041B48001F006800F4800078B11A48FF
:105580001749091F0968C1F38811A0FB0170014682
:10559000224600233846FEF715FE05460EE0114868
:1055A0000F49091F0968C1F38811A0FB017001466A
:1055B000224600233846FEF705FE05460848001F30
:1055C0000068C0F30140401C4600B5FBF6F902E05C
:1055D000DFF8109000BF00BF4846BDE8F08700002C
:1055E000083802400024F40040787D01F8B50446F4
:1055F0000CB90120F8BD207800F00100002874D01B
:10560000F948006800F00C0004280DD0F648006846
:1056100000F00C00082813D1F348001F006800F4C4
:105620008000B0F5800F0BD1EF4808380068C0F358
:105630004040002859D06068002856D10120D9E7A1
:1056400000BF6068B0F5803F08D1E74808380068BF
:1056500040F48030E449083908601EE06068B0F525
:10566000A02F0DD1E0480838006840F48020DE49C2
:10567000083908600846006840F4803008600CE093
:10568000D9480838006820F48030D74908390860C4
:105690000846006820F48020086000BF606890B170
:1056A000FFF756FC054606E0FFF752FC401B642856
:1056B00001D903209EE7CC4808380068C0F3404079
:1056C0000028F1D011E0FFF743FC054606E0FFF7A4
:1056D0003FFC401B642801D903208BE7C2480838EF
:1056E0000068C0F340400028F1D1207800F00200AB
:1056F00002285FD1BC48006800F00C0058B1BA48DD
:10570000006800F00C0008281CD1B748001F006892
:1057100000F48000B0B9B44808380068C0F3400015
:1057200020B1E068012801D0012063E7AE480838C5
:10573000006820F0F800216940EAC100AA49083950
:10574000086037E0E06800B30120A8490860FFF76F
:10575000FFFB054606E0FFF7FBFB401B022801D9D3
:10576000032047E7A04808380068C0F3400000283D
:10577000F1D09D480838006820F0F800216940EA1F
:10578000C10099490839086014E000209749086071
:10579000FFF7DEFB054606E0FFF7DAFB401B0228B9
:1057A00001D9032026E7904808380068C0F340007C
:1057B0000028F1D1207800F0080008282CD1606979
:1057C000A8B101208A490860FFF7C2FB054606E040
:1057D000FFF7BEFB401B022801D903200AE78248DD
:1057E0006C300068C0F340000028F1D014E00020C5
:1057F0007F490860FFF7ACFB054606E0FFF7A8FB12
:10580000401B022801D90320F4E677486C30006879
:10581000C0F340000028F1D1207800F004000428F3
:1058200070D1002770483830006800F0805090B97F
:1058300000BF002000906C483830006840F0805075
:105840006949383108600846006800F080500090CF
:1058500000BF00BF01276748006800F48070B0B93E
:105860006448006840F4807062490860FFF770FB8C
:10587000054606E0FFF76CFB401B022801D9032018
:10588000B8E65C48006800F480700028F2D000BFE1
:10589000A068012808D154486830006840F0010031
:1058A0005149683108601DE0A06805280DD14E48B7
:1058B0006830006840F004004B49683108600846D1
:1058C000006840F0010008600CE04748683000685C
:1058D00020F001004449683108600846006820F063
:1058E0000400086000BFA068A8B1FFF731FB0546BF
:1058F00009E0FFF72DFB401B41F28831884202D9B5
:10590000032077E626E0384868300068C0F340009E
:105910000028EED013E0FFF71BFB054608E0FFF779
:1059200017FB401B41F28831884201D9032061E610
:105930002D4868300068C0F340000028EFD1012FE7
:1059400007D129483830006820F080502649383186
:10595000086000BFA069002845D02348006800F017
:105960000C0008285DD0A069022845D100201F49FD
:105970000866FFF7EDFA054606E0FFF7E9FA401B77
:10598000022801D9032035E6174808380068C0F31B
:1059900040600028F1D1D4E907010843616A40EA78
:1059A00081110122A06AC2EB500041EA00412C2083
:1059B000005D41EA00600C49091F086001200B49A5
:1059C0000866FFF7C5FA054606E0FFF7C1FA401B77
:1059D000022801D903200DE6034808380068C0F307
:1059E00040600028F1D049E00838024000004742FA
:1059F000800E474200700040002021490866FFF7F2
:105A0000A7FA054606E0FFF7A3FA401B022801D9D2
:105A10000320EFE51B480068C0F340600028F2D186
:105A20002CE0A069012800D1E4E51648001D0668B5
:105A3000A069012820D006F48001E06981421BD1D1
:105A400006F03F01206A814216D147F6C07030400F
:105A5000616AB0EB811F0FD106F440310122A06AC8
:105A6000C2EB5000B1EB004F06D106F070612C2064
:105A7000005DB1EB006F01D00120BBE50020B9E56E
:105A8000000047420038024010B504460CB901201E
:105A900010BD606A38B96068B0F5827F00D105E05A
:105AA0000021E16102E00021216161610021A16228
:105AB00094F8510028B9002084F85000204600F0E6
:105AC00047F8022084F851002068006820F0400068
:105AD00021680860A08800F48270218901F40441E3
:105AE0000843A18901F400610843217C01F002010F
:105AF0000843217D01F001010843218B01F400716D
:105B00000843217F01F0380108432021095D01F09D
:105B100080010843218D01F4005108432168086089
:105B20000421A06901EA104094F8241001F010014A
:105B30000843216848602068C06920F4006021683B
:105B4000C86100206065012084F8510000209FE7B3
:105B500010B586B00446142101A8FEF76BFB1B4963
:105B6000206888422FD100BF0020009018480068AC
:105B700040F48050164908600846006800F48050E0
:105B8000009000BF00BF00BF0020009010481438F4
:105B9000006840F002000E491439086008460068A9
:105BA00000F00200009000BF00BF382001900220EA
:105BB000029000200390032004900520059001A985
:105BC0000448FFF7C5F806B010BD000000300140E2
:105BD000443802400004024070B504462546681E61
:105BE000B0F1807F01D301200FE0681E4FF0E0216B
:105BF00048610F214FF0FF3001F0A0F800204FF076
:105C0000E021886107200861002070BD2DE9F84F70
:105C100004460F4690461D46DDF828A094F8420041
:105C2000202878D117B1B8F1000F02D10120BDE8CA
:105C3000F88F00206064222084F842000120206355
:105C400000206063FFF784F98346A4F82C80A4F851
:105C50002E80A068B0F5805F04D1206910B90026BD
:105C6000B94602E03E464FF000090020288053E08C
:105C70002068006800F01000102813D100BF002039
:105C8000009020680068009020684068009000BF85
:105C900000BF288830B102206063202084F84200D1
:105CA0000020C4E72068006800F02000202821D1EF
:105CB00046B920684068C0F30800A9F8000009F15F
:105CC000020911E0A068B0F5805F03D0A06828B990
:105CD000206918B920684068307004E02068406886
:105CE00000F07F003070761C2888401C2880E08DF2
:105CF000401EE0850AF1010070B1FFF729F9A0EB21
:105D00000B00504502D8BAF1000F05D1202084F8CD
:105D1000420003208BE70BE0E08D0028A8D1A08D86
:105D2000E18D401A2880202084F8420000207EE780
:105D300002207CE7F8B504460E46174694F8420068
:105D400020282ED106B10FB90120F8BD0120206313
:105D5000002060633A463146204600F025FF0546A4
:105D6000EDB9206B012819D100BF002000902068F8
:105D70000068009020684068009000BF00BF00BF2E
:105D800000BF21680C3151E8001F41F0100021686C
:105D90000C3141E80002002AF3D100E00125284639
:105DA000D3E70220D1E700002DE9F04105460E4679
:105DB0002F492868884259D1FFF7CAF82D49086051
:105DC0002D4806802D4800882B49098808442B4916
:105DD00008802B4800682B49084427490988084453
:105DE000294988420AD929A000F07EFF4FF40072A9
:105DF0002B492C48FFF79EFFBDE8F081FEF776FFA8
:105E000000241BE01E4800681E49084400EB0408FB
:105E10002348075D3A46002341461846FEF71EFF19
:105E200058B121A000F060FFFEF70EFF4FF40072A2
:105E30001B491C48FFF77EFFDEE7641C0E48008804
:105E40008442DFD30E4800680B49098808440C4996
:105E50000860FEF7F9FE4FF400711148FEF7EAF909
:105E60004FF400720E490F48FFF764FF00BFC3E70D
:105E700000100140380000203000002032000020D7
:105E80003400002000C00008FFFF0008466C61736A
:105E900068206F766572666C6F770D0A00000000EF
:105EA00040010020F8000020466C61736820777282
:105EB000697465206661696C65640D0A0000000004
:105EC000704700002DE9F84F0446206805682068F7
:105ED000C668206847694FF00009CA4605F00F09F7
:105EE000B9F1000F0AD105F0200038B106F020000A
:105EF00020B1204600F0C3FCBDE8F88FB9F1000FD7
:105F00007CD007F0010018B906F49070002875D015
:105F100005F0010030B106F4807018B1606C40F0FB
:105F20000100606405F0040030B107F0010018B111
:105F3000606C40F00200606405F0020030B107F0D0
:105F4000010018B1606C40F00400606405F00800C6
:105F500048B106F0200010B907F0010018B1606CDC
:105F600040F008006064606C002846D005F0200016
:105F700028B106F0200010B1204600F080FC206817
:105F80004069C0F3801A606C00F0080010B9BAF1E3
:105F9000000F2DD0204600F02CFC2068406900F056
:105FA0004000402820D100BF00BF2168143151E8D3
:105FB000001F21F040002168143141E80002002A4E
:105FC000F3D100BFE06B50B17F48E16B0865E06B37
:105FD000FEF7A8FD88B1E06B016D88470DE0204613
:105FE000FFF76EFF09E009E02046FFF769FF04E0D4
:105FF0002046FFF765FF002060647DE7206B0128E5
:1060000078D105F01000002874D006F010000028A8
:10601000FAD000BF0020009020680068009020683F
:106020004068009000BF00BF2068406900F0400059
:10603000402870D1E06B006840681FFA80F8B8F122
:10604000000F58D0A08D404555DDA4F82E80E06BA0
:10605000C069B0F5807F43D000BF00BF21680C311C
:1060600051E8001F21F4807021680C3141E80002E2
:10607000002AF3D100BF00BF00BF2168143151E8EE
:10608000001F21F001002168143141E80002002ABC
:10609000F3D100BF00BF00BF2168143151E8001FD9
:1060A00021F040002168143141E80002002AF3D1B8
:1060B00000BF202084F842000020206300BF00BF02
:1060C00021680C3151E8001F21F0100021680C31CB
:1060D00041E80002002AF3D100BFE06BFEF7CCFCE0
:1060E00002206063A08DE28D801A81B22046FFF706
:1060F0005BFE0EE052E0A08D40450AD1E06BC06926
:10610000B0F5807F05D102206063A18D2046FFF7A6
:106110004BFEF1E6FFE7A08DE18D401A1FFA80F8F3
:10612000E08DD0B3B8F1000F37D000BF00BF2168B9
:106130000C3151E8001F21F4907021680C3141E8C6
:106140000002002AF3D100BF00BF00BF2168143154
:1061500051E8001F21F001002168143141E80002DC
:10616000002AF3D100BF202084F8420000202063E1
:1061700000BF00BF21680C3151E8001F21F0100062
:1061800021680C3141E80002002AF3D100BF02204F
:10619000606341462046FFF707FEADE605F080004C
:1061A00030B106F0800018B1204600F01DFDA3E6D6
:1061B00005F0400030B106F0400018B1204600F074
:1061C0004EFB99E600BF97E6E167000810B504466C
:1061D0000CB9012010BDA06900B100E000BF94F827
:1061E000410028B9002084F84000204600F02AF839
:1061F000242084F841002068C06820F40050216801
:10620000C860204600F0BAFB2068006920F4904086
:10621000216808612068406920F02A0021684861EF
:106220002068C06840F400502168C86000206064A5
:10623000202084F8410084F842000020606300BF01
:10624000C8E7000010B586B00446142101A8FDF788
:10625000F1FF1F492068884238D100BF002000901C
:106260001C48006840F010001A49086008460068A1
:1062700000F01000009000BF00BF00BF00200090A1
:1062800014481438006840F00100124914390860BD
:106290000846006800F00100009000BF00BF4FF406
:1062A000C06001900220029000200390032004901F
:1062B0000720059001A90848FEF74AFD00220521A4
:1062C0002520FFF701F82520FEF7EAFF06B010BDF4
:1062D00000100140443802400000024070472DE9A0
:1062E000F84F04460E46174699464FF0000A94F8B8
:1062F0004100202850D106B117B90120BDE8F88F20
:1063000000206064212084F84100FEF721FE8246CF
:10631000A784E784A068B0F5805F04D1206910B934
:106320000025B04602E035464FF000081EE0534617
:10633000002280212046CDF8009000F085FC20B19D
:10634000202084F841000320D8E745B9B8F80000C0
:10635000C0F308002168486008F1020803E02878CB
:10636000216848606D1CE08C401EE084E08C0028B1
:10637000DDD15346002240212046CDF8009000F0A8
:1063800063FC20B1202084F841000320B6E72020E0
:1063900084F841000020B1E70220AFE7704700BF5A
:1063A000FEE7000000B587B0FEF7A0FC00200290D9
:1063B0000320049001200590022006900020019007
:1063C00001A902A8FEF7EAFB10B103A000F08CFCC3
:1063D000FEF73AFC07B000BD466C61736820657239
:1063E000617365206661696C65640D0A00000000D8
:1063F00070B5194804684568B4F1005F02D31748C6
:10640000844204D916A000F06FFC012070BD124830
:10641000854202D31B48854204D91BA000F064FCCE
:106420000120F3E7172000F06FFC252000F06CFC42
:1064300000204FF0E021086148618861FEF786FB8B
:1064400072B600BF84F3088800BF0348154908608E
:106450002E46B0470020D9E700C00008FFFF01200A
:10646000496E76616C6964206170706C69636174F7
:10647000696F6E20737461636B20706F696E7465F1
:10648000720D0A00FFFF0008496E76616C69642096
:106490006170705F72657365745F68616E646C656E
:1064A000720D0A0008ED00E008B5002011490860EF
:1064B0001149088000BF00901048006800680090F3
:1064C0000E4800684068009000BF00BF00BF002079
:1064D00000900A480068006800900848006840681A
:1064E000009000BF00BF4FF4007205490348FFF75A
:1064F00021FC08BD3400002032000020F8000020FC
:106500004001002000B587B0142102A8FDF792FEDB
:1065100000BF002001904748006840F00400454952
:1065200008600846006800F00400019000BF00BF4A
:1065300000BF002001900846006840F0200008607D
:106540000846006800F02000019000BF00BF00BFB7
:10655000002001900846006840F08000086008466E
:10656000006800F08000019000BF00BF00BF002065
:1065700001900846006840F0400008600846006846
:1065800000F04000019000BF00BF00BF002001905C
:106590000846006840F0010008600846006800F006
:1065A0000100019000BF00BF00BF0020019008461D
:1065B000006840F0020008600846006800F0020031
:1065C000019000BF00BF002240211B48FEF7BAFC2B
:1065D000012240211948FEF7B5FC4FF4005002900B
:1065E0004FF4881003900220049002A91448FEF78B
:1065F000AFFB402002900120039000200490059002
:1066000002A90D48FEF7A4FB402002900120039050
:10661000002004900220059002A90848FEF798FB8C
:10662000002204212820FEF74FFE2820FEF738FE26
:1066300007B000BD3038024000140240001802408C
:106640000008024010B50B480B4908600B48486031
:10665000002109488160C1604FF48041016100213F
:1066600041618161C1610162FEF778FC08B1FEF70A
:10667000AEF810BD005400404C000020A086010080
:1066800010B50E480E4908604FF482704860002132
:106690000B488160C160016141614FF4007181610B
:1066A0001021C16100210162416281620A21C1623F
:1066B000FFF7EAF908B1FEF78AF810BD0030014093
:1066C000A000002010B50B480B4908604FF4E130E2
:1066D0004860002108488160C16001610C2141616E
:1066E00000218161C161FFF771FD08B1FEF76FF80C
:1066F00010BD000000100140F800002000BFFEE7C0
:1067000000BFFEE77047704710B5FEF753FD10BDA0
:1067100000B593B0302107A8FDF78CFD142102A825
:10672000FDF788FD00BF002001902348006840F07D
:106730008050214908600846006800F080500190B0
:1067400000BF00BF00BF002001901C48006840F45B
:1067500080401A4908600846006800F480400190B3
:1067600000BF00BF012007900004089002200D9098
:1067700041050E9119210F91902110910221119143
:106780000421129107A8FEF731FF08B1FEF71FF8A8
:106790000F20029002200390002004904FF48050BC
:1067A000059000200690022102A8FEF7DFFD08B147
:1067B000FEF70DF813B000BD4038024000700040F5
:1067C0000548006840F47000034908600348024926
:1067D000803908607047000088ED00E00040000844
:1067E00070B50446A56B0020E8852846FFF768FBD6
:1067F00070BD00BF00BF02680C3252E8002F22F4C7
:10680000907102680C3242E80013002BF3D100BFF4
:1068100000BF00BF0268143252E8002F22F00101CD
:106820000268143242E80013002BF3D100BF016B61
:1068300001290ED100BF00BF02680C3252E8002FC0
:1068400022F0100102680C3242E80013002BF3D151
:1068500000BF202180F8421000210163704710B56D
:1068600004462068C06820F040002168C8602020ED
:1068700084F841002046FFF791FD002010BDF8B5D7
:1068800004460025002694F84200222873D1A0680F
:10689000B0F5805F0BD1206948B9A66A20684068CE
:1068A000C0F308003080A06A801CA06214E0A56AD2
:1068B000A068B0F5805F03D0A06828B9206918B936
:1068C00020684068287004E02068406800F07F007D
:1068D0002870A06A401CA062E08D401E80B2E08556
:1068E000002846D12068C06820F020002168C860D8
:1068F0002068C06820F480702168C8602068406902
:1069000020F0010021684861202084F84200002026
:106910006063206B012826D10020206300BF00BFE8
:1069200021680C3151E8001F21F0100021680C3162
:1069300041E80002002AF3D100BF2068006800F09F
:10694000100010280AD100BF0020009020680068C5
:10695000009020684068009000BF00BFA18D2046D5
:10696000FFF722FA02E02046FFF7B8FC0020F8BD4E
:1069700001E00020FBE70220F9E700002DE9F84FD5
:1069800004462068006920F44050E168084321680B
:1069900008612169A068084361690843E169084307
:1069A00000902068C06849F20C6188430099084350
:1069B0002168C8602068406920F44070A1690843DC
:1069C0002168486176492068884203D0754920686B
:1069D000884203D1FEF7A2FD814602E0FEF78EFD5C
:1069E0008146E069B0F5004F6CD102206168A0FBE0
:1069F000015003461920A9FB007001462A4638467B
:106A0000FDF7E0FB6421B0FBF1F04FEA001A022031
:106A10006168A0FB01510B461920A9FB00712A46B1
:106A20003846FDF7CFFB834602206168A0FB01508A
:106A300003461920A9FB00712A463846FDF7C2FB20
:106A40006421B0FBF1F000EBC00101EB0010ABEBF7
:106A50008000322101EBC0006421B0FBF1F000F0B6
:106A6000F8000AEB400A02206168A0FB01500346CF
:106A70001920A9FB007001462A463846FDF7A2FB03
:106A8000834602206168A0FB015003461920A9FB40
:106A900000712A463846FDF795FB6421B0FBF1F002
:106AA00000EBC00101EB0010ABEB8000322101EBE9
:106AB000C0006421B0FBF1F000F0070050442168F1
:106AC00088606AE004206168A0FB01500346192039
:106AD000A9FB007001462A463846FDF773FB824643
:106AE00004206168A0FB015003461920A9FB007037
:106AF00001462A463846FDF765FB6421B0FBF1F0FC
:106B000000EBC00101EB0010AAEB8000322101EB89
:106B100000106421B0FBF1F000F0F00A042061687D
:106B2000A0FB017003461920A9FB00513A462846F4
:106B3000FDF748FB6421B0FBF1F00AEB001A0420DA
:106B40006168A0FB01510B461920A9FB00712A4680
:106B50003846FDF737FB834604206168A0FB0150EF
:106B600003461920A9FB007001462A463846FDF766
:106B700029FB6421B0FBF1F000EBC00101EB001038
:106B8000ABEB8000322101EB00106421B0FBF1F08F
:106B900000F00F00504421688860BDE8F88F0000C5
:106BA000001001400014014010B5034699629A8517
:106BB000DA8500205864222083F84200186928B141
:106BC0001868C06840F480701C68E060186840690C
:106BD00040F001001C6860611868C06840F0200047
:106BE0001C68E060002010BD014691F8410021289A
:106BF00028D18868B0F5805F0BD1086948B90A6A66
:106C00001088C0F308000B685860086A801C08628E
:106C100005E00B6A581C086218780B685860C88C2D
:106C2000401E80B2C88458B90868C06820F080004F
:106C30000B68D8600868C06840F040000B68D860F6
:106C4000002070470220FCE72DE9F84304460D467A
:106C500017469846089E31E0701C70B3FEF778F92D
:106C6000A0EB0800B04200D816B90320BDE8F883B5
:106C70002068C06800F00400F8B1802D1ED0402DBF
:106C80001CD020680068C0F3C000B0B100BF002075
:106C9000009020680068009020684068009000BF65
:106CA00000BF2046FFF7A5FD0820606400BF00205C
:106CB00084F8400000BF0120D8E7FFE720680068A3
:106CC0002840A84201D1012000E00020B842C3D0F2
:106CD0000020CBE710B50248FFF7F4F810BD000024
:106CE000F800002000BFFEE70FB4054B10B503A964
:106CF000044A029800F05EF810BC5DF814FB000036
:106D0000096F00084400002000280BDB00F01F0280
:106D100001219140044A430942F82310BFF34F8FE9
:106D2000BFF36F8F7047000080E100E00248006809
:106D3000C0F30220704700000CED00E010B5002801
:106D400004DB0A07130E054A135406E00A07140E63
:106D5000034A00F00F031B1FD45410BD00E400E0F1
:106D600018ED00E0BFF34F8F0648006800F4E060C4
:106D700005490843001D03490860BFF34F8F00BF5A
:106D800000BFFDE70CED00E00000FA050048704789
:106D90004800002002E008C8121F08C1002AFAD1EA
:106DA00070477047002001E001C1121F002AFBD18B
:106DB000704700002DE9FF4F89B09B46044600252F
:106DC00006E025280BD05A460B999047641C6D1C91
:106DD00020780028F5D10DB02846BDE8F08F0027B7
:106DE000B8460122474900E0074314F8013F203B21
:106DF00002FA03F00842F7D120782E2819D114F8AE
:106E0000010F47F004072A280ED06FF02F022078D8
:106E1000A0F1300109290CD808EB880102EB4101EF
:106E200000EB0108641CF2E70A98641C50F8048B1C
:106E30000A9020780028CED0642808D0692806D08F
:106E400075281ED05A460B9990476D1C58E00A9938
:106E50004FF00A0901C90A91002802DA40422D21A7
:106E600002E0390504D52B218DF82010012103E023
:106E7000F90704D02021F7E78A4608AE0DE000218B
:106E8000FAE70A994FF00A0901C90A91F7E749465A
:106E9000FDF7FAF9303106F8011D0028F7D1ADEB06
:106EA000060000F12009780701D44FF00108C84519
:106EB00002DDA8EB090000E000208046002706E084
:106EC00008A85A46C05D0B9990476D1C7F1C57451A
:106ED000F6DB04E030205A460B9990476D1CB8F160
:106EE0000001A8F10108F5DC05E016F8010B5A468F
:106EF0000B9990476D1CB9F10001A9F10109F4DC6F
:106F0000641C65E70928010013B50C464FF6FF73B2
:106F1000012269460248FFF7E2F900981CBD000013
:106F2000F800002062B6FEF751F9FFF7F1FBFFF71A
:106F3000E9FAFFF7C7FBFFF785FBFFF7A1FBFDF7BA
:106F40005DFB002240210348FDF7FCFF01E0FDF757
:106F50007DFAFCE700140240000000000000000081
:106F600001020304060708090000000001020304EF
:106F7000004040404040404040404141414141404C
:106F80004040404040404040404040404040404001
:106F90004005020202020202020202020202020290
:106FA0000220202020202020202020020202020295
:106FB00002029090909090901010101010101010ED
:106FC00010101010101010101010101002020202F9
:106FD000020288888888888808080808080808083D
:106FE0000808080808080808080808080202020239
:106FF00040000000716F00081870000800000020B9
:107000004C000000946D0008647000084C000020E3
:1070100034070000A46D000800000000000000001C
:10702000000000000000000001000000000000005F
:107030000000000000000000000000001000000040
:10704000010000000024F400000000000000000027
:107050000000000000000000000000000000000030
:04706000000000002C
:040000050800418925
:00000001FF
